:020000040800F2
:1000000000000220492400089924000899240008CF
:100010009924000899240008992400080000000091
:100020000000000000000000000000004107000880
:100030009924000800000000430700084507000855
:10004000992400089924000899240008992400089C
:10005000992400089924000899240008992400088C
:10006000992400089924000899240008992400087C
:10007000992400089924000899240008992400086C
:1000800099240008992400085107000899240008C1
:10009000992400089924000899240008992400084C
:1000A000992400089924000899240008992400083C
:1000B000992400089924000899240008992400082C
:1000C000992400089924000899240008992400081C
:1000D0009924000899240008610700089924000861
:1000E00099240008992400089924000899240008FC
:1000F00099240008992400089924000899240008EC
:1001000099240008992400089924000899240008DB
:1001100099240008992400089924000899240008CB
:1001200099240008992400089924000899240008BB
:1001300099240008992400089924000899240008AB
:10014000992400089924000899240008992400089B
:10015000992400089924000899240008992400088B
:10016000992400089924000899240008992400087B
:100170009924000899240008992400080000000030
:080180009924000899240008ED
:1001880010B5054C237833B9044B13B10448AFF3C9
:1001980000800123237010BD0C0000200000000027
:1001A800E424000808B5034B1BB103490348AFF327
:1001B800008008BD0000000010000020E4240008B2
:1001C80053B94AB9002908BF00281CBF4FF0FF31B6
:1001D8004FF0FF3000F072B9ADF1080C6DE904CEB4
:1001E80000F006F8DDF804E0DDE9022304B070470A
:1001F8002DE9F047089E04468846002B4BD18A42D9
:10020800154667D9B2FA82F24AB1C2F1200701FA5B
:1002180002F320FA07F7954047EA030894404FEAAB
:10022800154E230CB8FBFEF71FFA85FC0EFB17884A
:1002380043EA084307FB0CF1994209D9EB1807F187
:10024800FF3080F01B81994240F21881023F2B4415
:100258005B1AA4B2B3FBFEF00EFB103344EA03446E
:1002680000FB0CFCA44509D92C1900F1FF3380F0E0
:100278000781A44540F2048102382C4440EA074033
:10028800A4EB0C0400271EB1D4400023C6E90043A8
:100298003946BDE8F0878B4209D9002E00F0EB8083
:1002A8000027C6E9000138463946BDE8F087B3FAA9
:1002B80083F7002F47D18B4202D3824200F2FA80A3
:1002C800841A61EB030301209846002EE0D0C6E9AA
:1002D8000048DDE702B9FFDEB2FA82F2002A40F0F8
:1002E8008F80491B4FEA154E1FFA85F80127B1FB8D
:1002F800FEFC230C0EFB1C1143EA014308FB0CF126
:10030800994207D9EB180CF1FF3002D2994200F25A
:10031800CD808446591AA3B2B1FBFEF00EFB10142F
:1003280043EA044408FB00F8A04507D92C1900F15A
:10033800FF3302D2A04500F2B6801846A4EB0804A9
:1003480040EA0C409FE7C7F1200CBB4022FA0CFEA4
:100358004EEA030E01FA07F420FA0CF521FA0CF321
:100368004FEA1E482543B3FBF8F92C0C08FB193358
:100378001FFA8EFA44EA034309FB0AF49C4202FA84
:1003880007F200FA07F10BD91EEB030309F1FF305E
:1003980080F087809C4240F28480A9F1020973446E
:1003A8001B1BADB2B3FBF8F008FB103345EA03445E
:1003B80000FB0AFAA24508D91EEB040400F1FF333A
:1003C8006BD2A24569D90238744440EA0940A0FBBF
:1003D8000289A4EB0A044C45C2464B4654D351D07B
:1003E800002E69D0B1EB0A0564EB030404FA0CFC97
:1003F800FD40FC404CEA0505C6E90054002747E7E4
:10040800C2F1200320FA03F7954001FA02F021FA1D
:1004180003F34FEA154E3843010CB3FBFEF71FFAFE
:1004280085F80EFB173341EA034107FB08F38B42BB
:1004380004FA02F407D9691807F1FF3C2FD28B425E
:100448002DD9023F2944CB1A81B2B3FBFEF00EFB33
:10045800103341EA034100FB08F38B4207D96918BE
:1004680000F1FF3C17D28B4215D902382944C91A2A
:1004780040EA07473BE73746304609E70746E7E6DD
:100488001846FBE64145ABD2B8EB020A69EB0E020F
:1004980001381346A4E76046E9E7184695E767463A
:1004A800D1E781467CE702382C4447E7ACF1020CDF
:1004B8002B442FE7384608E73746E9E6704700BF80
:1004C800074AD36823F4E0631B041B0C000200F402
:1004D800E060184340F0BF6040F40030D0607047DF
:1004E80000ED00E030B4174BDB68C3F30223C3F11F
:1004F8000704042C28BF04241D1D062D18D9033B0E
:100508004FF0FF3505FA04F421EA0401994005FA91
:1005180003F322EA0303194300280BDB0901C9B2DC
:1005280000F1604000F5614080F8001330BC70476E
:100538000023E5E700F00F000901C9B2024B195486
:10054800F4E700BF00ED00E014ED00E000F01F024A
:10055800400901239340024A42F82030704700BF07
:1005680000E100E00138B0F1807F0AD2064B586004
:10057800064AF02182F823100020986007221A60AA
:1005880070470120704700BF10E000E000ED00E078
:10059800042805D0054A136823F004031360704744
:1005A800024A136843F004031360704710E000E048
:1005B800704708B5FFF7FCFF08BD08B50320FFF733
:1005C8007FFF002211466FF00B00FFF78BFF002220
:1005D80011466FF00A00FFF785FF002211466FF001
:1005E8000900FFF77FFF002211466FF00400FFF7B4
:1005F80079FF002211466FF00300FFF773FF002216
:1006080011466FF00100FFF76DFF002211464FF011
:10061800FF30FFF767FF08BD0268134B9A4200D00E
:10062800704710B586B00024009403F58C335A6CDB
:1006380042F480725A645B6C03F480730093009BED
:100648000123019303230293039401A9074800F0AF
:10065800A9FD224621461220FFF744FF1220FFF78A
:1006680075FF06B010BD00BF002001400004024025
:100678000268094B9A4200D0704782B00023019368
:10068800064B1A6C42F004021A641B6C03F0040354
:100698000193019B02B070470008004000380240F7
:1006A80002680B4B9A4200D0704700B587B04FF4F0
:1006B80000430193022302930022039204920593BC
:1006C80001A9044800F06EFD07B05DF804FB00BF07
:1006D80000080040000C02400268154B9A4200D006
:1006E800704710B586B00024009403F5FA331A6CED
:1006F80042F400321A641B6C03F400330093009B2D
:100708000C230193022302930123039303230493ED
:100718000723059301A9074800F044FD2246214616
:100728002620FFF7DFFE2620FFF710FF06B010BDDA
:1007380000440040000002407047704708B500F0D0
:100748000BFDFFF736FF08BD08B5024801F0A5F913
:1007580008BD00BF6400002008B5024801F0C4FDD0
:1007680008BD00BFB8000020002800F0BB8170B5AC
:1007780082B00446036813F0010F3BD0A74B9B6877
:1007880003F00C03042B2CD0A44B9B6803F00C0340
:10079800082B21D06368B3F5803F4FD0B3F5A02F65
:1007A80052D09E4B1A6822F480321A601A6822F4DA
:1007B80080221A606368002B50D000F0D9FC0546EF
:1007C800964B1B6813F4003F14D100F0D1FC401B7A
:1007D8006428F5D903208AE1904B5B6813F4800FF5
:1007E800D8D08E4B1B6813F4003F03D06368002BEE
:1007F80000F07A81236813F0020F55D0874B9B686D
:1008080013F00C0F3ED0854B9B6803F00C03082BAC
:1008180033D0E368002B68D0814B01221A6000F0C6
:10082800A7FC05467D4B1B6813F0020F54D100F05E
:100838009FFC401B0228F5D9032058E1774A13682A
:1008480043F480331360B5E7744B1A6842F480228E
:100858001A601A6842F480321A60ABE700F088FC2C
:1008680005466E4B1B6813F4003FC3D000F080FCB4
:10087800401B6428F5D9032039E1684B5B6813F401
:10088800800FC6D1654B1B6813F0020F04D0E368D4
:10089800012B01D001202AE1604A136823F0F803F4
:1008A800216943EAC1031360236813F0080F40D09D
:1008B800636963B35B4B01221A6000F059FC05467B
:1008C800564B5B6F13F0020F33D100F051FC401B05
:1008D8000228F5D903200AE1504A136823F0F803E7
:1008E800216943EAC1031360DEE74D4B00221A6019
:1008F80000F03EFC0546494B1B6813F0020FD3D0AD
:1009080000F036FC401B0228F5D90320EFE0454BE8
:1009180000221A6000F02CFC0546404B5B6F13F078
:10092800020F06D000F024FC401B0228F5D9032052
:10093800DDE0236813F0040F79D0384B1B6C13F0FB
:10094800805F33D100230193344B1A6C42F08052FC
:100958001A641B6C03F080530193019B0125324BF1
:100968001B6813F4807F23D0A368012B34D0052B98
:1009780038D02A4B1A6F22F001021A671A6F22F038
:1009880004021A67A368002B36D000F0F1FB064674
:10099800224B1B6F13F0020F48D100F0E9FB801BBC
:1009A80041F288339842F3D90320A0E00025D6E726
:1009B8001D4A136843F48073136000F0D9FB0646A0
:1009C800194B1B6813F4807FCED100F0D1FB801B3C
:1009D8000228F5D903208AE0104A136F43F0010377
:1009E8001367CFE70D4B1A6F42F004021A671A6FAC
:1009F80042F001021A67C5E700F0BAFB0646074B4A
:100A08001B6F13F0020F11D000F0B2FB801B41F2F4
:100A180088339842F3D9032069E000BF00380240C8
:100A280000004742800E474200700040E5B9A369C4
:100A3800002B5BD0304A926802F00C02082A58D08A
:100A4800022B17D02D4B00221A6000F091FB0446B0
:100A5800294B1B6813F0007F42D000F089FB001B74
:100A68000228F5D9032042E0234A136C23F080536F
:100A78001364DCE7214B00221A6000F079FB05467D
:100A88001D4B1B6813F0007F06D000F071FB401B64
:100A98000228F5D903202AE0E369226A1343626A2F
:100AA80043EA8213A26A5208013A43EA0243E26A1D
:100AB80043EA0263104A5360104B01221A6000F0A7
:100AC80057FB04460C4B1B6813F0007F06D100F05F
:100AD8004FFB001B0228F5D9032008E0002006E0A0
:100AE800002004E001207047012000E0002002B04F
:100AF80070BD0120FBE700BF00380240600047429C
:100B0800324B9B6803F00C03042B5CD0082B01D0FC
:100B18002F4870472DE9F04B2C4B5A6802F03F02E2
:100B28005B6813F4800F2BD0284B5B68C3F38813E2
:100B38001E4600275C010025E41A65EB0705A9019C
:100B480041EA9461A001001B61EB0501CB0043EA77
:100B58005073C400A01943EB07014B0243EAD0537A
:100B68004402204619460023FFF72AFB174B5B680F
:100B7800C3F3014301335B00B0FBF3F0BDE8F08B36
:100B8800124B5B68C3F388131E4600275C010025DF
:100B9800E41A65EB0705A90141EA9461A001001B6D
:100BA80061EB0501CB0043EA5073C400A01943EB85
:100BB80007018B0243EA905384022046194600231A
:100BC800FFF7FEFAD2E70348704700BF003802403B
:100BD8000024F40000127A00002800F09D8070B50F
:100BE80004464F4B1B6803F00F038B4209D2CBB26C
:100BF8004B4A1370136803F00F038B4201D0012096
:100C080070BD236813F0020F17D013F0040F04D03F
:100C1800444A936843F4E0539360236813F0080F41
:100C280004D0404A936843F4604393603D4A936814
:100C380023F0F003A068034393600D46236813F084
:100C4800010F32D06368012B21D09A1E012A25D9C1
:100C5800344A126812F0020F60D032498A6822F0D2
:100C6800030213438B6000F083FA06462D4B9B6802
:100C780003F00C036268B3EB820F16D000F078FA29
:100C8800801B41F288339842F0D90320B8E7254AFF
:100C9800126812F4003FE0D10120B1E7214A12683E
:100CA80012F0007FD9D10120AAE71D4B1B6803F081
:100CB8000F03AB4209D9EAB2194B1A701B6803F04B
:100CC8000F03AB4201D001209AE7236813F0040F09
:100CD80006D0144A936823F4E053E1680B43936009
:100CE800236813F0080F07D00E4A936823F4604373
:100CF800216943EAC1039360FFF702FF094B9B6830
:100D0800C3F30313084AD35CD840084B186000208B
:100D180000F0E2F9002073E70120704701206FE737
:100D2800003C024000380240082500080800002066
:100D3800014B1868704700BF0800002008B5FFF78E
:100D4800F7FF044B9B68C3F38223034AD35CD84064
:100D580008BD00BF003802401825000808B5FFF795
:100D6800E7FF044B9B68C3F34233034AD35CD84084
:100D780008BD00BF003802401825000830B58BB008
:100D8800002401941D4B1A6B42F080021A631A6BFF
:100D980002F080020192019A02941A6B42F0010259
:100DA8001A631A6B02F001020292029A03941A6BF8
:100DB80042F002021A631A6B02F002020392039ACB
:100DC80004941A6B42F008021A631B6B03F00803C1
:100DD8000493049B0A4D22464FF4E041284600F054
:100DE800C5FA4FF4E043059301230693079408944A
:100DF80005A9284600F0D6F90BB030BD00380240EE
:100E0800000C024010B588B06023019302900023C3
:100E180003930593054C0C2201A9204600F0B6FC6B
:100E28000C21204600F030FD08B010BD280000203D
:100E3800FEE7000008B50B480B4B03604FF4165350
:100E4800436000238360C36003610C2242618361B5
:100E5800C36101F097F900B908BD40F22B110348AE
:100E6800FFF7E6FFB800002000440040FC2400081B
:100E780000B585B01448154B0360002343608360B8
:100E8800036183610362C362114A8262C360012203
:100E9800C2610363426100F0D3FD68B9082300937F
:100EA80001230193002302936946074800F09CFE42
:100EB80030B905B05DF804FBDD210648FFF7B8FF3F
:100EC800E7210448FFF7B4FF640000200020014038
:100ED8000100000FFC24000800B58FB02648274BFE
:100EE800036040F2374343600023836040F2CF72CF
:100EF800C260036100F0E6FB30BB0EA94FF48053DB
:100F080041F8103D1C4800F0F9FA08BB1A4800F0F7
:100F1800F2FB10BB00230893099308A9164800F0B8
:100F28002BFFF8B9602301930023029303930593E1
:100F38000C2201A9104800F029FCC0B90E48FFF79F
:100F4800AFFB0FB05DF804FBFB210D48FFF770FF06
:100F580040F201110A48FFF76BFF4FF4837108480C
:100F6800FFF766FF40F20D110548FFF761FF4FF4E8
:100F78008B710348FFF75CFF280000200008004041
:100F8800FC24000800B595B0002101912B4B1A6C88
:100F980042F080521A641B6C03F080530193019B4A
:100FA8000291274B1A6842F480421A601B6803F4C6
:100FB80080430293029B012308934FF480330993E3
:100FC80002230E934FF480020F92082210924FF4DE
:100FD800A872119212930723139308A8FFF7C4FB72
:100FE80020BB0F23039302230493002305934FF49C
:100FF800C05306934FF4A0530793052103A8FFF7A6
:10100800EBFDB8B9FFF794FE0E4BA3FB0030800947
:10101800FFF7A8FA0420FFF7BBFA002211464FF0A9
:10102800FF30FFF75FFA15B05DF804FBAA21064808
:10103800FFF7FEFEB8210448FFF7FAFE0038024029
:1010480000700040D34D6210FC24000808B500F081
:1010580069F8FFF797FFFFF791FEFFF7EBFEFFF741
:1010680007FFFFF739FF0C21154800F00DFC01229E
:101078001449154801F0B5F870B175211348FFF708
:10108800D7FEB0F5FA6F16D0114B1B681844114BF8
:10109800186080B2FFF7B6FE0A4B1B780A2BFBD10B
:1010A800642000F06BF80B4B18680028E9D1084B56
:1010B80064221A60E5E7064B6FF063021A60E3E703
:1010C80028000020B0000020B8000020FC24000800
:1010D800B4000020AC00002010B504460E4B187870
:1010E8004FF47A73B3FBF0F30C4A1068B0FBF3F0DB
:1010F800FFF738FA68B90F2C01D901200AE000225D
:1011080021464FF0FF30FFF7EDF9054B1C6000203A
:1011180000E0012010BD00BF0000002008000020F2
:101128000400002008B50B4B1A6842F400721A60DC
:101138001A6842F480621A601A6842F480721A606F
:101148000320FFF7BDF90020FFF7C6FFFFF735FAC8
:10115800002008BD003C0240034A1168034B1B787D
:101168000B441360704700BFF80000200000002007
:10117800014B1868704700BFF800002038B50446D6
:10118800FFF7F6FF0546B4F1FF3F02D0044B1B788A
:101198001C44FFF7EDFF401BA042FAD338BD00BF47
:1011A8000000002000230F2B00F2D780F0B482B09B
:1011B80039E0072200E00022B2403A430234674E89
:1011C80046F82420664A1468EA4302EA04064F688F
:1011D80017F4803F01D045EA0406614C2660646834
:1011E80002EA04064F6817F4003F01D045EA0406F6
:1011F8005B4C6660A46802EA04064F6817F4801F17
:1012080001D045EA0406564CA660E46822404E68C0
:1012180016F4001F01D045EA0402514CE260013384
:101228000F2B00F2978001229A400C6804EA02050D
:10123800AA42F4D14C68022C01D0122C10D1DE083D
:10124800083650F826C003F00704A7000F24BC4056
:101258002CEA040C0C69BC4044EA0C0440F8264013
:1012680004685F000326BE40F64306EA040C4C6897
:1012780004F00304BC4044EA0C0404604C6804F124
:10128800FF3CBCF1010F03D9112C01D0122C10D155
:10129800846806EA040CCC68BC4044EA0C04846008
:1012A800446824EA02024C68C4F300149C401443C6
:1012B8004460C26816408A68BA403243C2604A68CD
:1012C80012F0805FABD000220192264A546C44F49D
:1012D80080445464526C02F480420192019A9C0842
:1012E800A61C1E4A52F8267003F0030296000F222D
:1012F800B24027EA02071C4A90423FF45CAF02F56D
:10130800806290421AD002F58062904218D002F5AD
:101318008062904216D002F58062904214D002F5A5
:101328008062904212D002F58062904210D002F59D
:10133800806290423FF43DAF08223DE701223BE73F
:10134800022239E7032237E7042235E7052233E78B
:10135800062231E702B0F0BC704770470038014000
:10136800003C0140003802400000024012B9090464
:10137800816170478161704770B4036A23F001038B
:101388000362036A4268846924F073040D6845EABD
:10139800040623F002048B6823430C4DA84202D0B4
:1013A8000B4CA0420BD123F00803CD682B4323F04C
:1013B800040322F440724D6915438A692A43426046
:1013C80086614A684263036270BC7047000001404E
:1013D8000004014030B4036A23F480730362036A93
:1013E8004268C46924F073040D682C4323F4007325
:1013F8008D6843EA05230E4DA84203D005F58065A4
:10140800A8420ED123F40063CD6843EA052323F4F0
:10141800806322F440524D6942EA05128D6942EA1E
:1014280005124260C4614A68C263036230BC7047F7
:101438000000014030B4036A23F480530362036A56
:101448004468C26922F4E6420D6842EA052223F4A0
:1014580000538D6843EA0533094DA84203D005F5CA
:101468008065A84204D124F480444D6944EA851477
:101478004460C2614A680264036230BC704700BFBE
:101488000000014010B4036A046A24F001040462F5
:10149800846924F0F00444EA021223F00A030B439F
:1014A800826103625DF8044B704710B4036A23F04D
:1014B800100303628469036A24F4704444EA023224
:1014C80023F0A00343EA0113826103625DF8044B31
:1014D8007047836823F0700341F007011943816066
:1014E800704710B4846824F47F4442EA03230B4312
:1014F800234383605DF8044B7047704790F8383099
:10150800012B7DD010B50446012380F83830022322
:1015180080F839300268936823F47F4323F0770317
:1015280093600B68402B57D010D9702B3ED01FD832
:10153800502B47D0602B32D1CA6849680068FFF742
:10154800B4FF60212068FFF7C4FF28E0102B4DD0BE
:1015580008D9202B4FD0302B21D130210068FFF73C
:10156800B8FF1CE0DBB900210068FFF7B2FF16E006
:10157800B3F5805F0ED0B3F5005F10D1CB684A6831
:1015880089680068FFF7ADFF2268936843F48043D9
:10159800936004E00268936823F0070393600123D3
:1015A80084F83930002084F8380010BDCB684A68C8
:1015B80089680068FFF795FF2268936843F077030E
:1015C8009360ECE7CA6849680068FFF75BFF502141
:1015D8002068FFF77EFFE2E7CA6849680068FFF7FE
:1015E80051FF40212068FFF774FFD8E710210068F9
:1015F800FFF76FFFD3E720210068FFF76AFFCEE708
:101608000220704703682E4A904212D0B0F1804FF2
:101618000FD0A2F57C4290420BD002F58062904236
:1016280007D002F58062904203D002F578429042DA
:1016380003D123F070034A681343214A90422AD009
:10164800B0F1804F27D0A2F57C42904223D002F51A
:10165800806290421FD002F5806290421BD002F552
:101668007842904217D002F57052904213D002F59A
:10167800806290420FD002F5806290420BD0A2F5B2
:101688009832904207D002F58062904203D002F56A
:101698008062904203D123F44073CA681343036005
:1016A8008B68C3620B688362054B984203D003F5CD
:1016B8008063984201D10B6903630123436170473A
:1016C80000000140A8B110B5044690F839305BB16C
:1016D800022384F83930211D2068FFF793FF012386
:1016E80084F83930002010BD80F83830FEF7C0FF8C
:1016F800EEE701207047A8B110B5044690F83930DC
:101708005BB1022384F83930211D2068FFF77AFF86
:10171800012384F83930002010BD80F83830FFF7F5
:10172800ECFEEEE70120704730B4036A23F01003A3
:101738000362036A4468826922F4E6420D6842EA59
:10174800052223F020038D6843EA05130E4DA842B5
:1017580003D005F58065A8420ED123F08003CD683B
:1017680043EA051323F0400324F440644D6944EA36
:1017780085048D6944EA8504446082614A6882630D
:10178800036230BC704700BF0000014038B590F8D4
:101798003830012B66D00D460446012380F83830D6
:1017A800022380F839300C2A1AD8DFE802F007192A
:1017B8001919201919193419191947000068FFF760
:1017C800DBFD2268936943F00803936122689369FB
:1017D80023F0040393612268936929690B43936199
:1017E800012384F83930002084F8380038BD0068B7
:1017F800FFF79AFF2268936943F4006393612268B4
:10180800936923F48063936122689369296943EAA1
:1018180001239361E4E70068FFF7DCFD2268D369E0
:1018280043F00803D3612268D36923F00403D3612A
:101838002268D36929690B43D361D1E70068FFF7B0
:10184800F9FD2268D36943F40063D3612268D36940
:1018580023F48063D3612268D369296943EA0123A9
:10186800D361BDE70220C1E710B4012303FA01F4F4
:10187800036A23EA04030362036A8A401343036288
:101888005DF8044B7047000010B50446012200685B
:10189800FFF7EAFF2368094A934203D002F5806202
:1018A800934203D15A6C42F400425A642268136886
:1018B80043F001031360002010BD00BF0000014089
:1018C8000F49D1F8883043F47003C1F888300D4BC4
:1018D8001A6842F001021A60002098601A6822F023
:1018E800847222F480321A60074A5A601A6822F415
:1018F80080221A60D8604FF000638B60704700BF89
:1019080000ED00E00038024010300024704700006D
:10191800494B5A6822F440325A605A6841680A436F
:101928005A600268536823F48073536002685368EE
:10193800016943EA012353600268536823F0407346
:1019480053600268536881680B4353600268936868
:1019580023F40063936002689368C1680B43936043
:10196800826A364B9A4249D00268936823F07063C2
:10197800936002689368816A0B4393600268936876
:1019880023F04053936002689368C16A0B439360E5
:101998000268936823F00203936002689368816980
:1019A80043EA41039360036A002B32D1026853680B
:1019B80023F4006353600268D36A23F47003D3628C
:1019C8000168CB6AC269013A43EA0253CB620268F2
:1019D800936823F40073936002689368016B43EA89
:1019E800412393600268936823F4806393600268DC
:1019F8009368416943EA812393607047026893685A
:101A080023F0706393600268936823F040539360F7
:101A1800BEE70268536843F4006353600268536882
:101A280023F46043536001684B68426A013A43EA11
:101A380042334B60BFE700BF002301400100000FA5
:101A480030B310B50446036C43B1236C13F0100F88
:101A58000AD00120002384F83C3010BD436480F88C
:101A68003C30FEF7D9FDF0E7236C23F4885323F0CC
:101A7800020343F0020323642046FFF749FF0020D6
:101A88006064236C23F0030343F001032364E1E75C
:101A98000120704770477047704738B504460268A0
:101AA8001168536811F0020F2FD003F0200363B3BD
:101AB800036C13F0100F03D1036C43F40073036439
:101AC800936813F0405F19D1A369BBB9D36A13F4C3
:101AD800700F03D0936813F4806F0FD1536823F00D
:101AE80020035360236C23F480732364236C13F462
:101AF800805F03D1236C43F0010323642046FFF782
:101B0800C9FF23686FF012021A60236819685A68BF
:101B180002F0800211F0040F36D0002A34D0226C73
:101B280012F0100F03D1226C42F4005222649A681A
:101B380012F4401F21D19A6B12F4401F03D09A6807
:101B480012F4806F19D15A6812F4806F15D19A680F
:101B580012F0405F11D1A2697AB95A6822F0800266
:101B68005A60236C23F480532364236C13F4807F1E
:101B780003D1236C43F0010323642046FFF7C6FE1C
:101B880023686FF00C021A6022681168536803F02A
:101B9800400311F0010F04D01BB1136813F0010FBB
:101BA80009D122681168536803F0806311F0200F8F
:101BB80000D063B938BD236C43F4803323642046D6
:101BC800FFF769FF23686FF001021A60E9E7636CA9
:101BD80043F0020363646FF0200515602046FFF7A9
:101BE8005BFF23681D60E5E730B482B000230193F2
:101BF80090F83C30012B00F0B780012380F83C308E
:101C08000B68092B3ED90568EA689BB203EB4303CE
:101C18001E3B072404FA03F322EA0303EB6005687A
:101C2800EA688C680B8803EB43031E3B04FA03F352
:101C38001343EB604B68062B3AD805686A6B03EBD5
:101C48008303053B1F2404FA03F322EA03036B63AF
:101C580005686A6B4B6803EB8303053B0C8804FA41
:101C680003F313436B630268404B9A4250D00268F7
:101C78003E4B9A4255D0002380F83C30184602B0BB
:101C880030BC704705682A699BB203EB43030724FD
:101C980004FA03F322EA03032B6105682A698C68B6
:101CA8000B8803EB430304FA03F313432B61C1E7E7
:101CB8000C2B16D805682A6B03EB8303233B1F24E0
:101CC80004FA03F322EA03032B6305682A6B4B68C3
:101CD80003EB8303233B0C8804FA03F313432B63BE
:101CE800C1E70568EA6A03EB8303413B1F2404FA52
:101CF80003F322EA0303EB620568EA6A4B6803EB25
:101D08008303413B0C8804FA03F31343EB62AAE70D
:101D18000B68122BABD1164A536843F48003536007
:101D2800A5E70B68103B012BA5D8114A536843F46B
:101D3800000353600B68102B9DD10E4B1B6802F1FA
:101D4800467202F52E3202F28332A2FB03239B0C69
:101D580003EB83035A00019202E0019B013B0193CC
:101D6800019B002BF9D186E7022088E7002001407B
:101D7800002301400800002090F83830012B22D0C1
:101D880030B4012280F83820022380F83930046802
:101D9800636823F070036360046863680D682B430D
:101DA80063600468A36823F08003A3600468A368E1
:101DB80049680B43A36080F83920002380F8383045
:101DC800184630BC7047022070470268D36823F475
:101DD8009073D3600268536923F001035361202391
:101DE80080F83A30704790F83930DBB2212B2AD18D
:101DF8008368B3F5805F16D0036A5A1C02621A78AA
:101E080003685A60C38C013B9BB2C384EBB9026878
:101E1800D36823F08003D3600268D36843F040039B
:101E2800D36000207047036A1B880268C3F3080365
:101E3800536003691BB9036A02330362E2E7036A6A
:101E480001330362DEE7022070470020704700007C
:101E58002DE9F843044601680A6922F44052C36830
:101E680013430B610168CA6822F4164222F00C027F
:101E780083680069034360690343E06903431343CC
:101E8800CB6021684A6922F44072A36913434B610D
:101E9800E369B3F5004F60D02368B84A934200F075
:101EA800148102F58062934200F00F81FEF746FF2D
:101EB80000EB800000EB80006568AD00B0FBF5F535
:101EC800AF4FA7FB05356D092E01FEF737FF00EB75
:101ED800800000EB80006568AD00B0FBF5F9FEF707
:101EE8002DFF00EB800000EB80006568AD00B0FBC3
:101EF800F5F5A7FB05356D094FF0640808FB159546
:101F08002D013235A7FB05356D0905F0F00535447F
:101F1800FEF714FF00EB800000EB80006668B60057
:101F2800B0FBF6F6FEF70AFF00EB800000EB80003E
:101F380063689B00B0FBF3F0A7FB0030400908FB87
:101F480010684FEA081808F13208A7FB0837C7F3EA
:101F5800431723682F449F600DE12368874A934203
:101F68005BD002F58062934257D0FEF7E7FE00EBA4
:101F7800800000EB800065686D00B0FBF5F5804FD0
:101F8800A7FB05356D092E01FEF7D8FE00EB800092
:101F980000EB800065686D00B0FBF5F9FEF7CEFE3A
:101FA80000EB800000EB800065686D00B0FBF5F584
:101FB800A7FB05356D094FF0640808FB1595ED0082
:101FC8003235A7FB05356D096D0005F4F875354404
:101FD800FEF7B4FE00EB800000EB80006668760038
:101FE800B0FBF6F6FEF7AAFE00EB800000EB8000DF
:101FF80063685B00B0FBF3F3A7FB03235B0908FBF3
:1020080013684FEAC80808F13208A7FB0837C7F376
:10201800421723682F449F60ADE0FEF79FFE00EB58
:10202800800000EB800065686D00B0FBF5F5544F4B
:10203800A7FB05356D092E01FEF790FE00EB800029
:1020480000EB800065686D00B0FBF5F9FEF786FED1
:1020580000EB800000EB800065686D00B0FBF5F5D3
:10206800A7FB05356D094FF0640808FB1595ED00D1
:102078003235A7FB05356D096D0005F4F875354453
:10208800FEF76CFE00EB800000EB800066687600CF
:10209800B0FBF6F6FEF762FE00EB800000EB800076
:1020A80063685B00B0FBF3F3A7FB03235B0908FB42
:1020B80013684FEAC80808F13208A7FB0837C7F3C6
:1020C800421723682F449F6055E0FEF747FE00EB58
:1020D800800000EB80006568AD00B0FBF5F5284F87
:1020E800A7FB05356D092E01FEF738FE00EB8000D1
:1020F80000EB80006568AD00B0FBF5F9FEF72EFE39
:1021080000EB800000EB80006568AD00B0FBF5F5E2
:10211800A7FB05356D094FF0640808FB15952D01DF
:102128003235A7FB05356D0905F0F0053544FEF796
:1021380015FE00EB800000EB80006668B600B0FB7F
:10214800F6F6FEF70BFE00EB800000EB80006368FC
:102158009B00B0FBF3F0A7FB0030400908FB1068B8
:102168004FEA081808F13208A7FB0837C7F34317E6
:1021780023682F449F60BDE8F88300BF001001402A
:102188001F85EB5158B310B5044690F839300BB39E
:10219800242384F839302268D36823F40053D360A9
:1021A8002046FFF755FE2268136923F49043136114
:1021B8002268536923F02A0353612268D36843F4E1
:1021C8000053D3600020E063202384F8393084F87A
:1021D8003A3010BD80F83830FEF77EFAD8E7012093
:1021E800704790F83A30DBB2202B1BD1E1B1EAB14D
:1021F80090F83830012B1BD081628285C28500237C
:10220800C363222280F83A2080F8383001684A698E
:1022180042F001024A610168CA6842F49072CA60D9
:102228001846704702207047012070470120704708
:1022380002207047704708B50168CB6823F0400357
:10224800CB60202380F83930FFF7F4FF002008BD69
:10225800704708B590F83A30DBB2222B40D183683A
:10226800B3F5805F0ED0036903BB03685A68836ABD
:10227800591C81621A70C38D013B9BB2C385F3B1AF
:1022880000202EE0826A036943B903685B68C3F3E0
:1022980008031380836A02338362ECE703685B6890
:1022A800DBB21380836A01338362E4E703685B6807
:1022B800826A511C816203F07F031370DBE70268B6
:1022C800D36823F49073D3600268536923F0010341
:1022D8005361202380F83A30FFF7BAFF002000E06E
:1022E800022008BD7047000010B504460268136854
:1022F800D168526913F00F0005D113F0200F02D0F6
:1023080011F0200F53D1002867D012F0010202D13A
:1023180011F4907F61D013F0010F06D011F4807F83
:1023280003D0E06B40F00100E06313F0040F04D029
:102338001AB1E06B40F00200E06313F0020F04D022
:102348001AB1E06B40F00400E06313F0080F04D00A
:102358001AB1E26B42F00802E263E26B002A48D04D
:1023680013F0200F02D011F0200F24D123685B69ED
:1023780003F04003E26B12F0080F00D13BB3204694
:10238800FFF723FD23685A6912F0400F1BD05A69E2
:1023980022F040025A61636B8BB11A4A1A65606B6E
:1023A80000F03AF828B3606B036D984721E02046A7
:1023B800FFF74FFF1DE02046FFF74BFFD6E720460B
:1023C800FFF790FF15E02046FFF78CFF11E020464D
:1023D800FFF788FF0023E3630BE013F0800F02D0C0
:1023E80011F0800F06D113F0400F02D011F0400F0A
:1023F80004D110BD2046FFF7F6FCFAE72046FFF7A8
:102408001AFFF6E71124000808B5806B0023C3857E
:10241800C384FFF767FF08BD90F83530DBB2022BA5
:1024280003D08023436501207047052380F83530A9
:102438000268136823F0010313600020704700004E
:10244800DFF834D0002103E00C4B5B5843500431D3
:102458000B480C4B42189A42F6D30B4A02E0002371
:1024680042F8043B094B9A42F9D3FFF729FA00F0E6
:1024780011F8FEF7EBFD7047000002203025000838
:10248800000000200C0000200C000020FC000020B0
:10249800FEE7000070B50D4E0D4CA41BA4100025DE
:1024A800A54209D10B4E0C4C00F018F8A41BA4103F
:1024B8000025A54205D170BD56F82530984701354D
:1024C800EEE756F8253098470135F2E72825000849
:1024D80028250008282500082C250008F8B500BF85
:1024E800F8BC08BC9E467047F8B500BFF8BC08BCED
:0424F8009E46704745
:1024FC005372632F6D61696E2E6300000000000043
:10250C000000000001020304060708090000000097
:04251C0001020304B1
:08252000D8DCFF7F0100000080
:04252800AD010008F9
:04252C008901000819
:0C25300001000000100000000024F40076
:040000050800244982
:00000001FF
