:020000040800F2
:1000000000000220CD1F00081D2000081D20000850
:100010001D2000081D2000081D2000080000000011
:100020000000000000000000000000003F08000881
:100030001D200008000000004108000843080008D7
:100040001D2000081D2000081D2000081D2000089C
:100050001D2000081D2000081D2000081D2000088C
:100060001D2000081D2000081D2000081D2000087C
:100070001D2000081D2000081D2000081D2000086C
:100080001D2000081D200008510800081D20000840
:100090001D2000081D2000081D2000081D2000084C
:1000A0001D2000081D2000081D2000081D2000083C
:1000B0001D2000081D2000081D2000081D2000082C
:1000C0001D2000081D2000081D2000081D2000081C
:1000D0001D2000081D200008610800081D200008E0
:1000E0001D2000081D2000081D2000081D200008FC
:1000F0001D2000081D2000081D2000081D200008EC
:100100001D2000081D2000081D2000081D200008DB
:100110001D2000081D2000081D2000081D200008CB
:100120001D2000081D2000081D2000081D200008BB
:100130001D2000081D2000081D2000081D200008AB
:100140001D2000081D2000081D2000081D2000089B
:100150001D2000081D2000081D2000081D2000088B
:100160001D2000081D2000081D2000081D2000087B
:100170001D2000081D2000081D20000800000000B0
:080180001D2000081D200008ED
:1001900010B5054C237833B9044B13B10448AFF3C1
:1001A00000800123237010BD7800002000000000B3
:1001B0008C28000808B5034B1BB103490348AFF373
:1001C000008008BD000000007C0000208C28000892
:1001D00001F0FF01102A2BDB10F0070F08D010F8F8
:1001E000013B013A8B422DD010F0070F42B3F6D1FC
:1001F000F0B441EA012141EA014122F007047FF015
:1002000000070023F0E80256083C85EA010586EA6B
:10021000010685FA47F5A3FA87F586FA47F6A5FAA7
:1002200087F68EB9EED1F0BC01F0FF0102F00702B3
:1002300032B110F8013B013A83EA010313B1F8D15E
:100240000020704701387047002D06BF354603383F
:10025000073815F0010F07D1013015F4807F02BF78
:10026000013015F4C03F0130F0BC0138704700BFC9
:1002700053B94AB9002908BF00281CBF4FF0FF310D
:100280004FF0FF3000F072B9ADF1080C6DE904CE0B
:1002900000F006F8DDF804E0DDE9022304B0704761
:1002A0002DE9F047089E04468846002B4BD18A4230
:1002B000154667D9B2FA82F24AB1C2F1200701FAB3
:1002C00002F320FA07F7954047EA030894404FEA03
:1002D000154E230CB8FBFEF71FFA85FC0EFB1788A2
:1002E00043EA084307FB0CF1994209D9EB1807F1DF
:1002F000FF3080F01B81994240F21881023F2B446D
:100300005B1AA4B2B3FBFEF00EFB103344EA0344C5
:1003100000FB0CFCA44509D92C1900F1FF3380F037
:100320000781A44540F2048102382C4440EA07408A
:10033000A4EB0C0400271EB1D4400023C6E90043FF
:100340003946BDE8F0878B4209D9002E00F0EB80DA
:100350000027C6E9000138463946BDE8F087B3FA00
:1003600083F7002F47D18B4202D3824200F2FA80FA
:10037000841A61EB030301209846002EE0D0C6E901
:100380000048DDE702B9FFDEB2FA82F2002A40F04F
:100390008F80491B4FEA154E1FFA85F80127B1FBE4
:1003A000FEFC230C0EFB1C1143EA014308FB0CF17D
:1003B000994207D9EB180CF1FF3002D2994200F2B2
:1003C000CD808446591AA3B2B1FBFEF00EFB101487
:1003D00043EA044408FB00F8A04507D92C1900F1B2
:1003E000FF3302D2A04500F2B6801846A4EB080401
:1003F00040EA0C409FE7C7F1200CBB4022FA0CFEFC
:100400004EEA030E01FA07F420FA0CF521FA0CF378
:100410004FEA1E482543B3FBF8F92C0C08FB1933AF
:100420001FFA8EFA44EA034309FB0AF49C4202FADB
:1004300007F200FA07F10BD91EEB030309F1FF30B5
:1004400080F087809C4240F28480A9F102097344C5
:100450001B1BADB2B3FBF8F008FB103345EA0344B5
:1004600000FB0AFAA24508D91EEB040400F1FF3391
:100470006BD2A24569D90238744440EA0940A0FB16
:100480000289A4EB0A044C45C2464B4654D351D0D2
:10049000002E69D0B1EB0A0564EB030404FA0CFCEE
:1004A000FD40FC404CEA0505C6E90054002747E73B
:1004B000C2F1200320FA03F7954001FA02F021FA75
:1004C00003F34FEA154E3843010CB3FBFEF71FFA56
:1004D00085F80EFB173341EA034107FB08F38B4213
:1004E00004FA02F407D9691807F1FF3C2FD28B42B6
:1004F0002DD9023F2944CB1A81B2B3FBFEF00EFB8B
:10050000103341EA034100FB08F38B4207D9691815
:1005100000F1FF3C17D28B4215D902382944C91A81
:1005200040EA07473BE73746304609E70746E7E634
:100530001846FBE64145ABD2B8EB020A69EB0E0266
:1005400001381346A4E76046E9E7184695E7674691
:10055000D1E781467CE702382C4447E7ACF1020C36
:100560002B442FE7384608E73746E9E6704700BFD7
:1005700000230F2B00F2D780F0B482B039E00722BD
:1005800000E00022B2403A430234674E46F824208D
:10059000664A1468EA4302EA04064F6817F4803F8B
:1005A00001D045EA0406614C2660646802EA04064C
:1005B0004F6817F4003F01D045EA04065B4C6660C3
:1005C000A46802EA04064F6817F4801F01D045EAC8
:1005D0000406564CA660E46822404E6816F4001FDC
:1005E00001D045EA0402514CE26001330F2B00F2C6
:1005F000978001229A400C6804EA0205AA42F4D1CD
:100600004C68022C01D0122C10D1DE08083650F8AC
:1006100026C003F00704A7000F24BC402CEA040CFA
:100620000C69BC4044EA0C0440F8264004685F00B2
:100630000326BE40F64306EA040C4C6804F00304AB
:10064000BC4044EA0C0404604C6804F1FF3CBCF17B
:10065000010F03D9112C01D0122C10D1846806EAA5
:10066000040CCC68BC4044EA0C048460446824EA6E
:1006700002024C68C4F300149C4014434460C268F6
:1006800016408A68BA403243C2604A6812F0805FFE
:10069000ABD000220192264A546C44F48044546446
:1006A000526C02F480420192019A9C08A61C1E4AD8
:1006B00052F8267003F0030296000F22B24027EA98
:1006C00002071C4A90423FF45CAF02F58062904200
:1006D0001AD002F58062904218D002F580629042F2
:1006E00016D002F58062904214D002F580629042EA
:1006F00012D002F58062904210D002F580629042E2
:100700003FF43DAF08223DE701223BE7022239E7F3
:10071000032237E7042235E7052233E7062231E7D3
:1007200002B0F0BC7047704700380140003C014007
:10073000003802400000024012B90904816170478C
:1007400081617047074AD36823F4E0631B041B0CE4
:10075000000200F4E060184340F0BF6040F4003055
:10076000D060704700ED00E030B4174BDB68C3F396
:100770000223C3F10704042C28BF04241D1D062DE9
:1007800018D9033B4FF0FF3505FA04F421EA0401C0
:10079000994005FA03F322EA0303194300280BDB0F
:1007A0000901C9B200F1604000F5614080F8001312
:1007B00030BC70470023E5E700F00F000901C9B223
:1007C000024B1954F4E700BF00ED00E014ED00E027
:1007D00000F01F02400901239340024A42F82030F2
:1007E000704700BF00E100E00138B0F1807F0AD21D
:1007F000064B5860064AF02182F8231000209860CA
:1008000007221A6070470120704700BF10E000E027
:1008100000ED00E0042805D0054A136823F0040326
:1008200013607047024A136843F004031360704773
:1008300010E000E0704708B5FFF7FCFF08BD704707
:10084000704708B500F024FFFFF7F5FF08BD000072
:1008500008B5024801F0FBF808BD00BFA800002061
:1008600008B5024800F08CFA08BD00BFF000002077
:100870000268D36823F49073D3600268536923F04D
:1008800001035361202380F83A30704790F83930E3
:10089000DBB2212B2AD18368B3F5805F16D0036ABF
:1008A0005A1C02621A7803685A60C38C013B9BB2DF
:1008B000C384EBB90268D36823F08003D360026875
:1008C000D36843F04003D36000207047036A1B885D
:1008D0000268C3F30803536003691BB9036A023358
:1008E0000362E2E7036A01330362DEE70220704736
:1008F000002070472DE9F843044601680A6922F494
:100900004052C36813430B610168CA6822F416425F
:1009100022F00C0283680069034360690343E069C5
:1009200003431343CB6021684A6922F44072A369F0
:1009300013434B61E369B3F5004F60D02368B84AB5
:10094000934200F0148102F58062934200F00F811F
:1009500000F028FE00EB800000EB80006568AD0031
:10096000B0FBF5F5AF4FA7FB05356D092E0100F083
:1009700019FE00EB800000EB80006568AD00B0FB65
:10098000F5F900F00FFE00EB800000EB80006568D9
:10099000AD00B0FBF5F5A7FB05356D094FF0640818
:1009A00008FB15952D013235A7FB05356D0905F0BE
:1009B000F005354400F0F6FD00EB800000EB800010
:1009C0006668B600B0FBF6F600F0ECFD00EB8000C8
:1009D00000EB800063689B00B0FBF3F0A7FB0030E6
:1009E000400908FB10684FEA081808F13208A7FB15
:1009F0000837C7F3431723682F449F600DE123682E
:100A0000874A93425BD002F58062934257D000F050
:100A1000C9FD00EB800000EB800065686D00B0FB55
:100A2000F5F5804FA7FB05356D092E0100F0BAFDE5
:100A300000EB800000EB800065686D00B0FBF5F90D
:100A400000F0B0FD00EB800000EB800065686D00F9
:100A5000B0FBF5F5A7FB05356D094FF0640808FB01
:100A60001595ED003235A7FB05356D096D0005F4D0
:100A7000F875354400F096FD00EB800000EB800037
:100A800066687600B0FBF6F600F08CFD00EB8000A7
:100A900000EB800063685B00B0FBF3F3A7FB03236C
:100AA0005B0908FB13684FEAC80808F13208A7FB86
:100AB0000837C7F3421723682F449F60ADE000F06A
:100AC00081FD00EB800000EB800065686D00B0FBED
:100AD000F5F5544FA7FB05356D092E0100F072FDA9
:100AE00000EB800000EB800065686D00B0FBF5F95D
:100AF00000F068FD00EB800000EB800065686D0091
:100B0000B0FBF5F5A7FB05356D094FF0640808FB50
:100B10001595ED003235A7FB05356D096D0005F41F
:100B2000F875354400F04EFD00EB800000EB8000CE
:100B300066687600B0FBF6F600F044FD00EB80003E
:100B400000EB800063685B00B0FBF3F3A7FB0323BB
:100B50005B0908FB13684FEAC80808F13208A7FBD5
:100B60000837C7F3421723682F449F6055E000F011
:100B700029FD00EB800000EB80006568AD00B0FB54
:100B8000F5F5284FA7FB05356D092E0100F01AFD7C
:100B900000EB800000EB80006568AD00B0FBF5F96C
:100BA00000F010FD00EB800000EB80006568AD00F8
:100BB000B0FBF5F5A7FB05356D094FF0640808FBA0
:100BC00015952D013235A7FB05356D0905F0F005AA
:100BD000354400F0F7FC00EB800000EB8000666815
:100BE000B600B0FBF6F600F0EDFC00EB800000EB89
:100BF000800063689B00B0FBF3F0A7FB0030400966
:100C000008FB10684FEA081808F13208A7FB0837FC
:100C1000C7F3431723682F449F60BDE8F88300BFE4
:100C2000001001401F85EB5158B310B5044690F8F1
:100C300039300BB3242384F839302268D36823F485
:100C40000053D3602046FFF755FE2268136923F452
:100C5000904313612268536923F02A035361226889
:100C6000D36843F40053D3600020E063202384F86A
:100C7000393084F83A3010BD80F8383000F088F907
:100C8000D8E70120704790F83930DBB2202B16D11D
:100C9000B9B1C2B190F83830012B16D0016282840C
:100CA000C2840023C363212280F8392080F83830C1
:100CB0000168CA6842F08002CA6018467047022084
:100CC000704701207047012070470220704770472D
:100CD00008B50168CB6823F04003CB60202380F87F
:100CE0003930FFF7F4FF002008BD704708B590F8D1
:100CF0003A30DBB2222B40D18368B3F5805F0ED04F
:100D0000036903BB03685A68836A591C81621A70BD
:100D1000C38D013B9BB2C385F3B100202EE0826AF4
:100D2000036943B903685B68C3F308031380836AEC
:100D300002338362ECE703685B68DBB21380836A8B
:100D400001338362E4E703685B68826A511C816255
:100D500003F07F031370DBE70268D36823F490731A
:100D6000D3600268536923F001035361202380F8A4
:100D70003A30FFF7BAFF002000E0022008BD7047BC
:100D800010B5044602681368D168526913F00F0069
:100D900005D113F0200F02D011F0200F53D10028FD
:100DA00067D012F0010202D111F4907F61D013F0EC
:100DB000010F06D011F4807F03D0E06B40F00100FA
:100DC000E06313F0040F04D01AB1E06B40F00200AE
:100DD000E06313F0020F04D01AB1E06B40F004009E
:100DE000E06313F0080F04D01AB1E26B42F008027E
:100DF000E263E26B002A48D013F0200F02D011F01A
:100E0000200F24D123685B6903F04003E26B12F0EA
:100E1000080F00D13BB32046FFF72AFD23685A692B
:100E200012F0400F1BD05A6922F040025A61636BE6
:100E30008BB11A4A1A65606B00F03AF828B3606B00
:100E4000036D984721E02046FFF750FF1DE0204644
:100E5000FFF74CFFD6E72046FFF791FF15E020464D
:100E6000FFF78DFF11E02046FFF789FF0023E363C2
:100E70000BE013F0800F02D011F0800F06D113F0B9
:100E8000400F02D011F0400F04D110BD2046FFF7F3
:100E9000FDFCFAE72046FFF71BFFF6E7A10E00086E
:100EA00008B5806B0023C385C384FFF768FF08BDC6
:100EB00090F83530DBB2022B03D08023436501204C
:100EC0007047052380F835300268136823F001036A
:100ED000136000207047704708B50720FFF732FC09
:100EE000002211466FF00B00FFF73EFC0022114676
:100EF0006FF00A00FFF738FC002211466FF009007E
:100F0000FFF732FC002211466FF00400FFF72CFCC3
:100F1000002211466FF00300FFF726FC0022114665
:100F20006FF00100FFF720FC002211464FF0FF3068
:100F3000FFF71AFC08BD00000268134B9A4200D06C
:100F4000704710B586B00024009403F58C335A6CBA
:100F500042F480725A645B6C03F480730093009BCC
:100F60000123019303230293039401A90748FFF788
:100F7000FFFA224621461220FFF7F6FB1220FFF768
:100F800027FC06B010BD00BF002001400004024055
:100F90000268154B9A4200D0704710B586B0002405
:100FA000009403F5FA331A6C42F400321A641B6C95
:100FB00003F400330093009B0C230193022302935C
:100FC00001230393032304930723059301A90748EF
:100FD000FFF7CEFA224621462620FFF7C5FB262042
:100FE000FFF7F6FB06B010BD0044004000000240D1
:100FF000002800F0AB8130B583B00446036813F0DD
:10100000010F3BD0A74B9B6803F00C03042B2CD0A3
:10101000A44B9B6803F00C03082B21D06368B3F545
:10102000803F4FD0B3F5A02F52D09E4B1A6822F4C8
:1010300080321A601A6822F480221A606368002BDA
:1010400050D000F02DFB0546964B1B6813F4003F73
:1010500014D100F025FB401B6428F5D903207AE168
:10106000904B5B6813F4800FD8D08E4B1B6813F441
:10107000003F03D06368002B00F06A81236813F0FF
:10108000020F55D0874B9B6813F00C0F3ED0854B59
:101090009B6803F00C03082B33D0E368002B68D067
:1010A000814B01221A6000F0FBFA05467D4B1B685C
:1010B00013F0020F54D100F0F3FA401B0228F5D9C7
:1010C000032048E1774A136843F480331360B5E79F
:1010D000744B1A6842F480221A601A6842F4803213
:1010E0001A60ABE700F0DCFA05466E4B1B6813F4A0
:1010F000003FC3D000F0D4FA401B6428F5D9032088
:1011000029E1684B5B6813F4800FC6D1654B1B68FF
:1011100013F0020F04D0E368012B01D001201AE183
:10112000604A136823F0F803216943EAC10313609E
:10113000236813F0080F40D0636963B35B4B01224F
:101140001A6000F0ADFA0546564B5B6F13F0020FC4
:1011500033D100F0A5FA401B0228F5D90320FAE0AC
:10116000504A136823F0F803216943EAC10313606E
:10117000DEE74D4B00221A6000F092FA0546494B1B
:101180001B6813F0020FD3D000F08AFA401B02282C
:10119000F5D90320DFE0454B00221A6000F080FA09
:1011A0000546404B5B6F13F0020F06D000F078FA53
:1011B000401B0228F5D90320CDE0236813F0040F6B
:1011C0001FD1A369002B00F0C580364A926802F057
:1011D0000C02082A00F0C180022B7FD0344B002281
:1011E0001A6000F05DFA04462E4B1B6813F0007F76
:1011F00000F0AA8000F054FA001B0228F4D9032062
:10120000A9E000230193274B1A6C42F080521A6424
:101210001B6C03F080530193019B264A136843F42F
:101220008073136000F03CFA0546224B1B6813F4F0
:10123000807F06D100F034FA401B0228F5D9032044
:1012400089E0A368012B1DD0052B21D0154B1A6F07
:1012500022F001021A671A6F22F004021A67A368CB
:1012600053B300F01DFA05460E4B1B6F13F0020F2F
:10127000A7D100F015FA401B41F288339842F3D908
:10128000032068E0074A136F43F001031367E6E7A2
:10129000044B1A6F42F004021A671A6F42F00102FF
:1012A0001A67DCE70038024000004742800E4742E0
:1012B000600047420070004000F0F2F90546284BFC
:1012C0001B6F13F0020F3FF47CAF00F0E9F9401BF5
:1012D00041F288339842F2D903203CE0214B0022AE
:1012E0001A6000F0DDF905461D4B1B6813F0007F06
:1012F00006D000F0D5F9401B0228F5D903202AE0DA
:10130000E369226A1343626A43EA8213A26A5208BB
:10131000013A43EA0243E26A43EA0263104A536035
:10132000104B01221A6000F0BBF904460C4B1B68FD
:1013300013F0007F06D100F0B3F9001B0228F5D9A5
:10134000032008E0002006E0002004E001207047B0
:10135000012000E0002003B030BD0120FBE700BF0A
:101360000038024060004742324B9B6803F00C0398
:10137000042B5CD0082B01D02F4870472DE9F04B8F
:101380002C4B5A6802F03F025B6813F4800F2BD09D
:10139000284B5B68C3F388131E4600275C010025B9
:1013A000E41A65EB0705A90141EA9461A001001B5D
:1013B00061EB0501CB0043EA5073C400A01943EB75
:1013C00007014B0243EAD05344022046194600234A
:1013D000FEF74EFF174B5B68C3F3014301335B001D
:1013E000B0FBF3F0BDE8F08B124B5B68C3F38813DE
:1013F0001E4600275C010025E41A65EB0705A901DC
:1014000041EA9461A001001B61EB0501CB0043EAB6
:101410005073C400A01943EB07018B0243EA9053B9
:101420008402204619460023FEF722FFD2E7034834
:10143000704700BF003802400024F40000127A0018
:10144000002800F09D8070B504464F4B1B6803F0E8
:101450000F038B4209D2CBB24B4A1370136803F0CF
:101460000F038B4201D0012070BD236813F0020FDF
:1014700017D013F0040F04D0444A936843F4E053A8
:101480009360236813F0080F04D0404A936843F434
:10149000604393603D4A936823F0F003A0680343E0
:1014A00093600D46236813F0010F32D06368012B5F
:1014B00021D09A1E012A25D9344A126812F0020F4F
:1014C00060D032498A6822F0030213438B6000F037
:1014D000E7F806462D4B9B6803F00C036268B3EBFC
:1014E000820F16D000F0DCF8801B41F2883398425E
:1014F000F0D90320B8E7254A126812F4003FE0D182
:101500000120B1E7214A126812F0007FD9D10120F1
:10151000AAE71D4B1B6803F00F03AB4209D9EAB2DF
:10152000194B1A701B6803F00F03AB4201D0012066
:101530009AE7236813F0040F06D0144A936823F443
:10154000E053E1680B439360236813F0080F07D062
:101550000E4A936823F46043216943EAC103936010
:10156000FFF702FF094B9B68C3F30313084AD35CE0
:10157000D840084B1860002000F05AF8002073E7AC
:101580000120704701206FE7003C02400038024014
:10159000A428000800000020014B1868704700BF15
:1015A0000000002008B5FFF7F7FF044B9B68C3F36A
:1015B0008223034AD35CD84008BD00BF00380240F4
:1015C000B428000808B5FFF7E7FF044B9B68C3F396
:1015D0004233034AD35CD84008BD00BF0038024004
:1015E000B42800080F49D1F8883043F47003C1F8DB
:1015F00088300D4B1A6842F001021A600020986092
:101600001A6822F0847222F480321A60074A5A6003
:101610001A6822F480221A60D8604FF000638B6051
:10162000704700BF00ED00E0003802401030002499
:1016300010B50446074B1868074BA3FB0030800920
:10164000FFF7D2F8002221464FF0FF30FFF78CF869
:10165000002010BD00000020D34D621008B50B4BD8
:101660001A6842F400721A601A6842F480621A60C2
:101670001A6842F480721A600320FFF763F80020B2
:10168000FFF7D6FFFFF728FC002008BD003C024012
:10169000024A136801331360704700BFA0000020A6
:1016A000014B1868704700BFA000002030B583B020
:1016B0000190FFF7F5FF0546019CB4F1FF3F00D014
:1016C0000134FFF7EDFF401BA042FAD303B030BD59
:1016D000494B5A6822F440325A605A6841680A43BA
:1016E0005A600268536823F4807353600268536839
:1016F000016943EA012353600268536823F0407391
:1017000053600268536881680B43536002689368B2
:1017100023F40063936002689368C1680B4393608D
:10172000826A364B9A4249D00268936823F070630C
:10173000936002689368816A0B43936002689368C0
:1017400023F04053936002689368C16A0B4393602F
:101750000268936823F002039360026893688169CA
:1017600043EA41039360036A002B32D10268536855
:1017700023F4006353600268D36A23F47003D362D6
:101780000168CB6AC269013A43EA0253CB6202683C
:10179000936823F40073936002689368016B43EAD3
:1017A000412393600268936823F480639360026826
:1017B0009368416943EA81239360704702689368A4
:1017C00023F0706393600268936823F04053936042
:1017D000BEE70268536843F40063536002685368CD
:1017E00023F46043536001684B68426A013A43EA5C
:1017F00042334B60BFE700BF002301400100000FF0
:1018000030B310B50446036C43B1236C13F0100FD2
:101810000AD00120002384F83C3010BD436480F8D6
:101820003C30FFF789FBF0E7236C23F4885323F067
:10183000020343F0020323642046FFF749FF002020
:101840006064236C23F0030343F001032364E1E7A6
:101850000120704782B00023019390F83C30012BA7
:1018600063D0012380F83C3003689A6812F0010FBE
:1018700013D19A6842F001029A60304B1B68304ADB
:10188000A2FB03239B0C03EB4303019302E0019BA8
:10189000013B0193019B002BF9D10268936813F07F
:1018A000010F44D0036C23F4E06323F0010343F4FD
:1018B00080730364536813F4806F05D0036C23F4C2
:1018C000405343F480530364036C13F4805F19D0D6
:1018D000436C23F006034364002380F83C306FF030
:1018E00022031360174B5B6813F01F0F0DD10368C1
:1018F0009A6812F0405F1DD19A6842F080429A6067
:10190000002015E000234364E6E703680E4A934293
:1019100001D000200CE09A6812F0405F0CD19A6868
:1019200042F080429A60002002E0022000E00020A5
:1019300002B070470020FBE70020F9E7000000201C
:1019400083DE1B43002301400020014090F83C301F
:10195000012B19D0012380F83C300268936823F0F2
:101960000103936003689B6813F0010F07D1036CB8
:1019700023F4885323F0010343F00103036400239D
:1019800080F83C30184670470220704703689A6818
:1019900012F4806F03D09B6813F4807F1CD170B564
:1019A0000D460446FFF77CFE064623681A6812F0CF
:1019B000020F1AD1B5F1FF3FF7D025B1FFF770FE46
:1019C000801BA842F1D9236C43F004032364002355
:1019D00084F83C3003202DE0036C43F020030364C3
:1019E000002380F83C30012070476FF012021A602B
:1019F000236C43F40073236423689A6812F0405FF9
:101A000017D1A269BAB9DA6A12F4700F03D09B68D1
:101A100013F4806F11D1236C23F480732364236C3F
:101A200013F4805F0BD1236C43F001032364002087
:101A300000E0002070BD0020FCE70020FAE7002055
:101A4000F8E70368D86C704770477047704738B53F
:101A5000044602681168536811F0020F2FD003F09A
:101A6000200363B3036C13F0100F03D1036C43F432
:101A700000730364936813F0405F19D1A369BBB985
:101A8000D36A13F4700F03D0936813F4806F0FD1EF
:101A9000536823F020035360236C23F48073236482
:101AA000236C13F4805F03D1236C43F001032364A0
:101AB0002046FFF7C9FF23686FF012021A602368FF
:101AC00019685A6802F0800211F0040F36D0002A1B
:101AD00034D0226C12F0100F03D1226C42F4005269
:101AE00022649A6812F4401F21D19A6B12F4401FAD
:101AF00003D09A6812F4806F19D15A6812F4806F7B
:101B000015D19A6812F0405F11D1A2697AB95A686A
:101B100022F080025A60236C23F480532364236CE8
:101B200013F4807F03D1236C43F001032364204628
:101B3000FFF7D1F923686FF00C021A602268116870
:101B4000536803F0400311F0010F04D01BB1136878
:101B500013F0010F09D122681168536803F0806304
:101B600011F0200F00D063B938BD236C43F48033EB
:101B700023642046FFF769FF23686FF001021A60B3
:101B8000E9E7636C43F0020363646FF020051560BE
:101B90002046FFF75BFF23681D60E5E730B482B0A5
:101BA0000023019390F83C30012B00F0B780012313
:101BB00080F83C300B68092B3ED90568EA689BB277
:101BC00003EB43031E3B072404FA03F322EA030357
:101BD000EB600568EA688C680B8803EB43031E3BE7
:101BE00004FA03F31343EB604B68062B3AD80568FD
:101BF0006A6B03EB8303053B1F2404FA03F322EA19
:101C000003036B6305686A6B4B6803EB8303053B57
:101C10000C8804FA03F313436B630268404B9A4247
:101C200050D002683E4B9A4255D0002380F83C3099
:101C3000184602B030BC704705682A699BB203EBB6
:101C40004303072404FA03F322EA03032B61056824
:101C50002A698C680B8803EB430304FA03F31343EC
:101C60002B61C1E70C2B16D805682A6B03EB8303A5
:101C7000233B1F2404FA03F322EA03032B630568C2
:101C80002A6B4B6803EB8303233B0C8804FA03F3B2
:101C900013432B63C1E70568EA6A03EB8303413B07
:101CA0001F2404FA03F322EA0303EB620568EA6ADD
:101CB0004B6803EB8303413B0C8804FA03F31343A3
:101CC000EB62AAE70B68122BABD1164A536843F4B8
:101CD00080035360A5E70B68103B012BA5D8114A80
:101CE000536843F4000353600B68102B9DD10E4BD7
:101CF0001B6802F1467202F52E3202F28332A2FB19
:101D000003239B0C03EB83035A00019202E0019B27
:101D1000013B0193019B002BF9D186E7022088E764
:101D200000200140002301400000002030B58BB0AE
:101D3000002401941D4B1A6B42F080021A631A6B47
:101D400002F080020192019A02941A6B42F00102A1
:101D50001A631A6B02F001020292029A03941A6B40
:101D600042F002021A631A6B02F002020392039A13
:101D700004941A6B42F008021A631B6B03F0080309
:101D80000493049B0A4D22464FF470412846FEF707
:101D9000D3FC4FF4704305930123069307940894F2
:101DA00005A92846FEF7E4FB0BB030BD0038024021
:101DB000000C0240FEE7000008B50B480B4B036027
:101DC0004FF41653436000238360C36003610C2209
:101DD00042618361C361FEF727FF00B908BDE621B8
:101DE0000348FFF7E7FF00BFF00000200044004079
:101DF000BC28000800B585B01448154B03600023CB
:101E000043608360036183610362C362114A82623B
:101E1000C3600122C26103634261FFF7F1FC68B94C
:101E20000823009301230193002302936946074886
:101E3000FFF7B4FE30B905B05DF804FBC9210648D0
:101E4000FFF7B8FFD3210448FFF7B4FFA800002034
:101E5000002001400100000FBC28000800B595B02B
:101E6000002101912B4B1A6C42F080521A641B6CBA
:101E700003F080530193019B0291274B1A6842F4AF
:101E800080421A601B6803F480430293029B012383
:101E900008934FF48033099302230E934FF480028A
:101EA0000F92082210924FF4A872119212930723F6
:101EB000139308A8FFF79CF820BB0F23039302237A
:101EC0000493002305934FF4C05306934FF4A0539B
:101ED0000793052103A8FFF7B3FAB8B9FFF75CFB36
:101EE0000E4BA3FB00308009FEF77EFC0420FEF7BA
:101EF00091FC002211464FF0FF30FEF735FC15B083
:101F00005DF804FB96210648FFF754FFA42104481E
:101F1000FFF750FF0038024000700040D34D6210C0
:101F2000BC28000808B5FFF799FBFFF797FFFFF7FC
:101F3000FDFEFFF741FFFFF75DFF16E04FF4C870AD
:101F4000FFF7B4FB1948FFF701FD042218491948AF
:101F5000FEF799FE10BB4FF4C870FFF7A7FB0C22E9
:101F600015491448FEF78FFEE0B9104C2046FFF7E4
:101F700071FC12492046FFF709FD0028DED12046FA
:101F8000FFF75FFD0E4B186040F6B83202FB00F21F
:101F9000120B0C49064800F067F8CFE770210A4899
:101FA000FFF708FF77210848FFF704FFA80000208B
:101FB00030010020F00000200400002040420F000B
:101FC000A4000020C8280008BC280008DFF834D08E
:101FD000002103E00C4B5B58435004310B480C4B81
:101FE00042189A42F6D30B4A02E0002342F8043B1F
:101FF000094B9A42F9D3FFF7F5FA00F011F8FFF711
:1020000091FF704700000220102900080000002006
:10201000780000207800002040010020FEE700004A
:1020200070B50D4E0D4CA41BA4100025A54209D17E
:102030000B4E0C4C00F02AFCA41BA4100025A5425A
:1020400005D170BD56F8253098470135EEE756F8B2
:10205000253098470135F2E70829000808290008CB
:10206000082900080C2900080EB400B59CB01DAB6F
:10207000029006906FF000410948079104910949C8
:1020800053F8042B05910068019302A900F066F84B
:10209000029B00221A701CB05DF804EB03B070477D
:1020A000140000200802FFFF2DE9F0478E689E42D1
:1020B00082460C469046994637D88A8912F4906F2A
:1020C00031D0256809696F1A6569022305EB45055A
:1020D00095FBF3F509F101033B449D4238BF1D46D2
:1020E000530530D5294600F029FB064650B90C238C
:1020F000CAF80030A38943F04003A3814FF0FF30BA
:10210000BDE8F0873A46216900F0A6FAA38923F4D6
:10211000906343F08003A381266165613E44ED1B1B
:102120002660A5604E464E4500D94E463246414691
:10213000206800F09CFAA3689B1BA36023681E44E0
:1021400026600020DCE72A4600F052FB0646002805
:10215000E2D12169504600F0A3FAC8E72DE9F04F1B
:102160009DB0804603938B891D060C4616460FD5FD
:102170000B696BB9402100F0E1FA2060206128B9B9
:102180000C23C8F800304FF0FF30C7E040236361F4
:102190000023099320238DF8293030238DF82A302D
:1021A0004FF0010B37463D4615F8013B0BB1252B8F
:1021B0003ED1B7EB060A0BD0534632462146404685
:1021C000FFF772FF013000F0A480099B534409938C
:1021D0003B78002B00F09D8000234FF0FF32CDE9CB
:1021E0000523049307938DF853301A932F46052245
:1021F00017F8011B4F48FDF7EBFF049BD0B9D90638
:1022000044BF20228DF853201A0744BF2B228DF89B
:1022100053202A782A2A15D0079A2F4600200A250B
:10222000394611F8013B303B092B4DD9B8B10FE0CD
:102230002F46B8E73F4A801A0BFA00F01843049083
:102240003D46D3E7039A111D12680391002A01DB72
:10225000079204E0524243F00203079204933B7852
:102260002E2B0CD17B782A2B33D1039B1A1D1B6894
:102270000392002BB8BF4FF0FF33023705932E4D6A
:10228000397803222846FDF7A3FF38B14023401BCD
:1022900003FA00F0049B034301370493397827487D
:1022A0008DF8281006227E1CFDF792FF002838D0FA
:1022B000234B13BB039B073323F00703083303931C
:1022C000099B4B4409936DE705FB023201200F4641
:1022D000A6E700230137059319460A25384610F86A
:1022E000012B303A092A03D9002BC8D00591C6E743
:1022F00005FB012101230746F0E703AB00932246CB
:10230000104B04A94046AFF30080B0F1FF3F814677
:10231000D6D1A3895B063FF536AF09981DB0BDE85D
:10232000F08F03AB00932246064B04A9404600F011
:1023300081F8EAE7CC280008D2280008D62800084F
:1023400000000000A92000082DE9F04791461F4633
:102350008A680B69DDF820809342B8BF1346C9F83C
:10236000003091F8432006460C4612B10133C9F8FB
:1023700000302368990642BFD9F800300233C9F80B
:102380000030256815F0060507D104F1190AE36845
:10239000D9F800209B1AAB4228DC94F8433022681D
:1023A000003318BF012392062DD404F143023946AD
:1023B0003046C047013020D02368E568D9F80020B6
:1023C00003F00603042B08BFAD1AA36822690CBFF3
:1023D00025EAE57500259342C4BF9B1AED184FF01E
:1023E00000091A344D451AD1002008E00123524655
:1023F00039463046C047013003D14FF0FF30BDE8C9
:10240000F0870135C3E7E1185A1C302081F84300FA
:10241000224494F8451082F843100233C5E70123A3
:10242000224639463046C0470130E6D009F101095D
:10243000D8E700002DE9F04301F1430C0C46097E7A
:1024400085B06E291746064698460C9A00F0B38070
:1024500022D8632936D00AD8002900F0B98058293B
:1024600000F0838004F1420584F8421032E06429D0
:1024700001D06929F6D120681368050603F104012B
:102480002AD51B681160002B03DA2D225B4284F8E9
:1024900043206F480A2239E0732900F09D8008D854
:1024A0006F2920D07029DDD1236843F020032360F9
:1024B00003E0752917D07829D4D1782384F84530E2
:1024C000644855E01368191D1B68116004F142054A
:1024D00084F8423001238CE01B68116010F0400F3B
:1024E00018BF1BB2CFE713682568181D10602806B7
:1024F00001D51B6802E06806FBD51B8854486F298C
:1025000014BF0A220822002184F843106568A560E0
:10251000002DC0F29580216821F004012160002B7C
:102520003DD1002D40F08E806546082A0BD12368EE
:10253000DB0708D5236962689A42DEBF302305F8BD
:10254000013C05F1FF35ACEB05032361CDF80080BC
:102550003B4603AA21463046FFF7F6FE01304DD137
:102560004FF0FF3005B0BDE8F083394884F84510DE
:10257000136821681D1D1B6815600A060BD5CA0764
:1025800044BF41F0200121601BB9226822F02002E3
:1025900022601022B7E74D0648BF9BB2EFE76546C1
:1025A000B3FBF2F102FB1133C35C05F8013D0B46AE
:1025B0000029F5D1B9E7136825686169181D106015
:1025C00028061B6801D5196002E06A06FBD5198050
:1025D000002323616546B9E71368191D11601D6862
:1025E000626800212846FDF7F3FD08B1401B6060DA
:1025F00063682361002384F84330A7E723692A46F0
:1026000039463046C0470130AAD023689B0713D40F
:10261000E068039B9842B8BF1846A3E701234A46E7
:1026200039463046C04701309AD00135E368039AF5
:102630009B1AAB42F2DCEBE7002504F11909F5E740
:10264000002BACD1037884F8423004F142056CE7EA
:10265000DD280008EE28000810B5431E0A44914208
:1026600000D110BD11F8014B03F8014FF7E7884284
:1026700010B501EB020307D8421E99420AD011F8A7
:10268000014B02F8014FF8E78342F5D98118D21ABD
:10269000D34200D110BD13F8014D01F8014DF7E709
:1026A00038B50546002945D051F8043C0C1F002BD5
:1026B000B8BFE41800F0D2F81F4A1368104633B9C7
:1026C000636014602846BDE8384000F0C8B8A342F3
:1026D0000CD921686218934204BF1A685B68636072
:1026E00004BF521822600460ECE713465A680AB12E
:1026F000A242FAD919685818A0420BD120680144A7
:10270000581882421960DDD1106852685A6001443D
:102710001960D7E702D90C232B60D3E72068211872
:102720008A4204BF11685268626004BF09182160C0
:102730005C60C7E738BD00BF9400002070B5CD1CB9
:1027400025F0030508350C2D38BF0C25002D064655
:1027500001DBA94203D90C233360002070BD00F0D7
:102760007DF8214A1468214691B9204C23681BB991
:10277000304600F063F820602946304600F05EF8ED
:10278000431C24D10C233360304600F068F8E4E7A2
:102790000B685B1B18D40B2B0FD90B60CD50CC18DA
:1027A000304600F05CF804F10B00231D20F0070018
:1027B000C31AD3D05A42E250D0E78C424B6816BFBE
:1027C000636013600C46EBE70C464968CCE7C41C19
:1027D00024F00304A04205D0211A304600F02EF860
:1027E0000130CFD02560DBE7940000209800002066
:1027F000F8B5074614460E4621B91146BDE8F84023
:10280000FFF79CBF22B9FFF74BFF25462846F8BDCE
:1028100000F026F8A0420FD221463846FFF78EFF7F
:1028200005460028F2D031462246FFF715FF314613
:102830003846FFF735FFE9E73546E7E738B5064C98
:10284000002305460846236000F012F8431C02D11D
:10285000236803B12B6038BD3C01002070477047EE
:1028600051F8043C181F002BBCBF0B58C018704710
:10287000044A05491368002B08BF0B461844106032
:10288000184670479C00002040010020F8B500BFAA
:10289000F8BC08BC9E467047F8B500BFF8BC08BC41
:0428A0009E46704799
:1028A40000000000000000000102030406070809FC
:1028B40000000000010203045372632F6D61696E0E
:1028C4002E630000256C6400232D302B2000686CDF
:1028D4004C0065666745464700303132333435363F
:1028E4003738394142434445460030313233343578
:0C28F400363738396162636465660000A5
:08290000A0D9FF7F01000000D7
:04290800B50100080D
:04290C00910100082D
:102910000024F400200A566F6C74616765203D2026
:10292000000000001800002000000000000000006F
:102930000000000000000000000000000000000097
:102940000000000000000000000000000000000087
:102950000000000000000000000000000000000077
:102960000000000000000000000000000000000067
:102970000000000000000000000000000000000057
:0829800000000000000000004F
:0400000508001FCD03
:00000001FF
