:020000040800F2
:1000000000000220B10F0008010C0008030C0008DA
:10001000050C0008070C0008090C0008000000008F
:100020000000000000000000000000000B0C0008B1
:100030000D0C0008000000000F0C0008110C000857
:10004000011000080110000801100008011000084C
:10005000011000080110000801100008011000083C
:10006000011000080110000801100008011000082C
:10007000011000080110000801100008011000081C
:10008000011000080110000801100008011000080C
:1000900001100008011000080110000801100008FC
:1000A00001100008011000080110000801100008EC
:1000B00001100008011000080110000801100008DC
:1000C00001100008011000080110000801100008CC
:1000D00001100008011000080110000801100008BC
:1000E00001100008011000080110000801100008AC
:1000F000011000080110000801100008011000089C
:10010000011000080110000801100008011000088B
:10011000011000080110000801100008011000087B
:10012000011000080110000801100008011000086B
:10013000011000080110000801100008011000085B
:10014000011000080110000801100008011000084B
:10015000011000080110000801100008011000083B
:10016000011000080110000801100008011000082B
:100170000110000801100008011000080000000034
:08018000011000080110000845
:1001880010B5054C237833B9044B13B10448AFF3C9
:1001980000800123237010BD04000020000000002F
:1001A8004C10000808B5034B1BB103490348AFF3D3
:1001B800008008BD00000000080000204C10000866
:1001C80053B94AB9002908BF00281CBF4FF0FF31B6
:1001D8004FF0FF3000F072B9ADF1080C6DE904CEB4
:1001E80000F006F8DDF804E0DDE9022304B070470A
:1001F8002DE9F047089E04468846002B4BD18A42D9
:10020800154667D9B2FA82F24AB1C2F1200701FA5B
:1002180002F320FA07F7954047EA030894404FEAAB
:10022800154E230CB8FBFEF71FFA85FC0EFB17884A
:1002380043EA084307FB0CF1994209D9EB1807F187
:10024800FF3080F01B81994240F21881023F2B4415
:100258005B1AA4B2B3FBFEF00EFB103344EA03446E
:1002680000FB0CFCA44509D92C1900F1FF3380F0E0
:100278000781A44540F2048102382C4440EA074033
:10028800A4EB0C0400271EB1D4400023C6E90043A8
:100298003946BDE8F0878B4209D9002E00F0EB8083
:1002A8000027C6E9000138463946BDE8F087B3FAA9
:1002B80083F7002F47D18B4202D3824200F2FA80A3
:1002C800841A61EB030301209846002EE0D0C6E9AA
:1002D8000048DDE702B9FFDEB2FA82F2002A40F0F8
:1002E8008F80491B4FEA154E1FFA85F80127B1FB8D
:1002F800FEFC230C0EFB1C1143EA014308FB0CF126
:10030800994207D9EB180CF1FF3002D2994200F25A
:10031800CD808446591AA3B2B1FBFEF00EFB10142F
:1003280043EA044408FB00F8A04507D92C1900F15A
:10033800FF3302D2A04500F2B6801846A4EB0804A9
:1003480040EA0C409FE7C7F1200CBB4022FA0CFEA4
:100358004EEA030E01FA07F420FA0CF521FA0CF321
:100368004FEA1E482543B3FBF8F92C0C08FB193358
:100378001FFA8EFA44EA034309FB0AF49C4202FA84
:1003880007F200FA07F10BD91EEB030309F1FF305E
:1003980080F087809C4240F28480A9F1020973446E
:1003A8001B1BADB2B3FBF8F008FB103345EA03445E
:1003B80000FB0AFAA24508D91EEB040400F1FF333A
:1003C8006BD2A24569D90238744440EA0940A0FBBF
:1003D8000289A4EB0A044C45C2464B4654D351D07B
:1003E800002E69D0B1EB0A0564EB030404FA0CFC97
:1003F800FD40FC404CEA0505C6E90054002747E7E4
:10040800C2F1200320FA03F7954001FA02F021FA1D
:1004180003F34FEA154E3843010CB3FBFEF71FFAFE
:1004280085F80EFB173341EA034107FB08F38B42BB
:1004380004FA02F407D9691807F1FF3C2FD28B425E
:100448002DD9023F2944CB1A81B2B3FBFEF00EFB33
:10045800103341EA034100FB08F38B4207D96918BE
:1004680000F1FF3C17D28B4215D902382944C91A2A
:1004780040EA07473BE73746304609E70746E7E6DD
:100488001846FBE64145ABD2B8EB020A69EB0E020F
:1004980001381346A4E76046E9E7184695E767463A
:1004A800D1E781467CE702382C4447E7ACF1020CDF
:1004B8002B442FE7384608E73746E9E6704700BF80
:1004C8000F49D1F8883043F47003C1F888300D4BD8
:1004D8001A6842F001021A60002098601A6822F037
:1004E800847222F480321A60074A5A601A6822F429
:1004F80080221A60D8604FF000638B60704700BF9D
:1005080000ED00E0003802401030002482B00023E3
:10051800019305E0009B01330093019B0133019394
:10052800019B8342F6DB02B07047FEE700B595B049
:1005380000230193234A116C41F080511164126C1D
:1005480002F080520192019A02931F4A116841F405
:1005580080411160126802F480420292029A0222DB
:10056800089201220B9210220C920E9308A800F018
:1005780051F8F0B90F2303930021049105910691D6
:10058800079103A800F056FAB8B900F0FFFA0F4B2C
:10059800A3FB0030800900F083FB042000F096FBE9
:1005A800002211464FF0FF3000F046FB15B05DF811
:1005B80004FB3F210648FFF7B8FF4D210448FFF729
:1005C800B4FF00BF0038024000700040D34D6210F5
:1005D8007410000808B500F0A5FBFFF7A7FF00F0AE
:1005E800DBFA0A4D00224FF47041284600F0D6FC91
:1005F800074C2046FFF78AFF01224FF47041284636
:1006080000F0CCFC2046FFF781FFEAE7000C02402F
:1006180040420F00002800F0AB8130B583B004469B
:10062800036813F0010F3BD0A74B9B6803F00C0342
:10063800042B2CD0A44B9B6803F00C03082B21D06F
:100648006368B3F5803F4FD0B3F5A02F52D09E4BCF
:100658001A6822F480321A601A6822F480221A601A
:100668006368002B50D000F07FFB0546964B1B6853
:1006780013F4003F14D100F077FB401B6428F5D930
:1006880003207AE1904B5B6813F4800FD8D08E4B2F
:100698001B6813F4003F03D06368002B00F06A81E5
:1006A800236813F0020F55D0874B9B6813F00C0F8B
:1006B8003ED0854B9B6803F00C03082B33D0E368CE
:1006C800002B68D0814B01221A6000F04DFB0546D3
:1006D8007D4B1B6813F0020F54D100F045FB401B03
:1006E8000228F5D9032048E1774A136843F4803398
:1006F8001360B5E7744B1A6842F480221A601A68CE
:1007080042F480321A60ABE700F02EFB05466E4BD0
:100718001B6813F4003FC3D000F026FB401B64287D
:10072800F5D9032029E1684B5B6813F4800FC6D123
:10073800654B1B6813F0020F04D0E368012B01D04E
:1007480001201AE1604A136823F0F803216943EA9B
:10075800C1031360236813F0080F40D0636963B3C3
:100768005B4B01221A6000F0FFFA0546564B5B6F9F
:1007780013F0020F33D100F0F7FA401B0228F5D925
:100788000320FAE0504A136823F0F803216943EA8A
:10079800C1031360DEE74D4B00221A6000F0E4FA53
:1007A8000546494B1B6813F0020FD3D000F0DCFA62
:1007B800401B0228F5D90320DFE0454B00221A60D0
:1007C80000F0D2FA0546404B5B6F13F0020F06D0DB
:1007D80000F0CAFA401B0228F5D90320CDE02368AF
:1007E80013F0040F1FD1A369002B00F0C580364A0F
:1007F800926802F00C02082A00F0C180022B7FD018
:10080800344B00221A6000F0AFFA04462E4B1B68E6
:1008180013F0007F00F0AA8000F0A6FA001B02285F
:10082800F4D90320A9E000230193274B1A6C42F066
:1008380080521A641B6C03F080530193019B264A73
:10084800136843F48073136000F08EFA0546224B58
:100858001B6813F4807F06D100F086FA401B02283B
:10086800F5D9032089E0A368012B1DD0052B21D0E1
:10087800154B1A6F22F001021A671A6F22F0040250
:100888001A67A36853B300F06FFA05460E4B1B6F47
:1008980013F0020FA7D100F067FA401B41F288332A
:1008A8009842F3D9032068E0074A136F43F0010325
:1008B8001367E6E7044B1A6F42F004021A671A6FCF
:1008C80042F001021A67DCE70038024000004742A4
:1008D800800E4742600047420070004000F044FA32
:1008E8000546284B1B6F13F0020F3FF47CAF00F056
:1008F8003BFA401B41F288339842F2D903203CE08E
:10090800214B00221A6000F02FFA05461D4B1B6888
:1009180013F0007F06D000F027FA401B0228F5D913
:1009280003202AE0E369226A1343626A43EA8213D6
:10093800A26A5208013A43EA0243E26A43EA0263BE
:10094800104A5360104B01221A6000F00DFA044659
:100958000C4B1B6813F0007F06D100F005FA001B52
:100968000228F5D9032008E0002006E0002004E072
:1009780001207047012000E0002003B030BD0120B5
:10098800FBE700BF0038024060004742264B9B68E7
:1009980003F00C03042B44D0082B01D023487047E4
:1009A8002DE9F04B204B5A6802F03F025B6813F4C4
:1009B800800F13D01C4B5968C1F3881100231C48C1
:1009C800A1FB0001FFF7FCFB174B5B68C3F3014376
:1009D80001335B00B0FBF3F0BDE8F08B124B5B68B2
:1009E800C3F388131E4600275C010025E41A65EB53
:1009F8000705A90141EA9461A001001B61EB05010B
:100A0800CB0043EA5073C400A01943EB07018B02E3
:100A180043EA90538402204619460023FFF7D0FB8F
:100A2800D2E70348704700BF003802400024F400B2
:100A380040787D01002800F09D8070B504464F4B3A
:100A48001B6803F00F038B4209D2CBB24B4A1370D9
:100A5800136803F00F038B4201D0012070BD236897
:100A680013F0020F17D013F0040F04D0444A936810
:100A780043F4E0539360236813F0080F04D0404A0E
:100A8800936843F4604393603D4A936823F0F0030E
:100A9800A068034393600D46236813F0010F32D01A
:100AA8006368012B21D09A1E012A25D9344A12687D
:100AB80012F0020F60D032498A6822F00302134311
:100AC8008B6000F051F906462D4B9B6803F00C0330
:100AD8006268B3EB820F16D000F046F9801B41F232
:100AE80088339842F0D90320B8E7254A126812F4EF
:100AF800003FE0D10120B1E7214A126812F0007FDF
:100B0800D9D10120AAE71D4B1B6803F00F03AB42A4
:100B180009D9EAB2194B1A701B6803F00F03AB42EC
:100B280001D001209AE7236813F0040F06D0144A75
:100B3800936823F4E053E1680B439360236813F050
:100B4800080F07D00E4A936823F46043216943EAEB
:100B5800C1039360FFF71AFF094B9B68C3F30313A4
:100B6800084AD35CD840084B1860002000F0C4F84D
:100B7800002073E70120704701206FE7003C024026
:100B8800003802406410000800000020014B18687B
:100B9800704700BF0000002030B589B000240194E0
:100BA800134B1A6B42F080021A631A6B02F0800230
:100BB8000192019A02941A6B42F008021A631B6BA5
:100BC80003F008030293029B0A4D22464FF470413A
:100BD800284600F0E3F94FF470430393012304938C
:100BE8000594069403A9284600F0F4F809B030BD2E
:100BF80000380240000C02407047FEE7FEE7FEE7BF
:100C0800FEE770477047704708B500F0A5F800F098
:100C18006EF808BD074AD36823F4E0631B041B0C75
:100C2800000200F4E060184340F0BF6040F4003078
:100C3800D060704700ED00E030B4174BDB68C3F3B9
:100C48000223C3F10704042C28BF04241D1D062D0C
:100C580018D9033B4FF0FF3505FA04F421EA0401E3
:100C6800994005FA03F322EA0303194300280BDB32
:100C78000901C9B200F1604000F5614080F8001335
:100C880030BC70470023E5E700F00F000901C9B246
:100C9800024B1954F4E700BF00ED00E014ED00E04A
:100CA8000138B0F1807F0AD2064B5860064AF0211D
:100CB80082F823100020986007221A6070470120EC
:100CC800704700BF10E000E000ED00E0042805D008
:100CD800054A136823F0040313607047024A136837
:100CE80043F004031360704710E000E0704708B554
:100CF800FFF7FCFF08BD000010B50446074B186855
:100D0800074BA3FB00308009FFF7CAFF00222146EA
:100D18004FF0FF30FFF790FF002010BD00000020CB
:100D2800D34D621008B50B4B1A6842F400721A6072
:100D38001A6842F480621A601A6842F480721A6073
:100D48000320FFF767FF0020FFF7D6FF00F012F837
:100D5800002008BD003C0240024A136801331360BA
:100D6800704700BF20000020014B1868704700BF83
:100D78002000002008B50320FFF74CFF0022114691
:100D88006FF00B00FFF758FF002211466FF00A00C2
:100D9800FFF752FF002211466FF00900FFF74CFFE2
:100DA800002211466FF00400FFF746FF00221146AB
:100DB8006FF00300FFF740FF002211466FF00100BB
:100DC800FFF73AFF002211464FF0FF30FFF734FFDC
:100DD80008BD000000230F2B00F2D780F0B482B0CA
:100DE80039E0072200E00022B2403A430234674E5D
:100DF80046F82420664A1468EA4302EA04064F6863
:100E080017F4803F01D045EA0406614C2660646807
:100E180002EA04064F6817F4003F01D045EA0406C9
:100E28005B4C6660A46802EA04064F6817F4801FEA
:100E380001D045EA0406564CA660E46822404E6894
:100E480016F4001F01D045EA0402514CE260013358
:100E58000F2B00F2978001229A400C6804EA0205E1
:100E6800AA42F4D14C68022C01D0122C10D1DE0811
:100E7800083650F826C003F00704A7000F24BC402A
:100E88002CEA040C0C69BC4044EA0C0440F82640E7
:100E980004685F000326BE40F64306EA040C4C686B
:100EA80004F00304BC4044EA0C0404604C6804F1F8
:100EB800FF3CBCF1010F03D9112C01D0122C10D129
:100EC800846806EA040CCC68BC4044EA0C048460DC
:100ED800446824EA02024C68C4F300149C4014439A
:100EE8004460C26816408A68BA403243C2604A68A1
:100EF80012F0805FABD000220192264A546C44F471
:100F080080445464526C02F480420192019A9C0815
:100F1800A61C1E4A52F8267003F0030296000F2200
:100F2800B24027EA02071C4A90423FF45CAF02F540
:100F3800806290421AD002F58062904218D002F581
:100F48008062904216D002F58062904214D002F579
:100F58008062904212D002F58062904210D002F571
:100F6800806290423FF43DAF08223DE701223BE713
:100F7800022239E7032237E7042235E7052233E75F
:100F8800062231E702B0F0BC7047704700380140D4
:100F9800003C0140003802400000024012B9090438
:100FA8008161704781617047DFF834D0002103E028
:100FB8000C4B5B58435004310B480C4B42189A4277
:100FC800F6D30B4A02E0002342F8043B094B9A424D
:100FD800F9D3FFF775FA00F011F8FFF7FBFA70473D
:100FE80000000220901000080000002004000020EB
:100FF8000400002024000020FEE7000070B50D4E1C
:101008000D4CA41BA4100025A54209D10B4E0C4C75
:1010180000F018F8A41BA4100025A54205D170BD46
:1010280056F8253098470135EEE756F825309847A9
:101038000135F2E7881000088810000888100008B9
:101048008C100008F8B500BFF8BC08BC9E46704775
:0C105800F8B500BFF8BC08BC9E4670470D
:101064000000000000000000010203040607080954
:0C1074005372632F6D61696E2E630000E3
:0810800078F1FF7F0100000080
:04108800AD010008AE
:04108C0089010008CE
:041090000024F40044
:0400000508000FB12F
:00000001FF
