:020000040800F2
:1000000000000220453300089533000895330008AE
:100010009533000895330008953300080000000070
:10002000000000000000000000000000711C00083B
:100030009533000800000000111D0008551200084B
:100040009533000895330008953300089533000870
:100050009533000895330008953300089533000860
:100060009533000895330008953300089533000850
:100070009533000895330008953300089533000840
:1000800095330008953300085D1200089533000889
:100090009533000895330008953300089533000820
:1000A000953300086D120008953300089533000859
:1000B0009533000895330008953300089533000800
:1000C00095330008953300089533000895330008F0
:1000D00095330008953300087D1200089533000819
:1000E00095330008953300089533000895330008D0
:1000F00095330008953300089533000895330008C0
:1001000095330008953300089533000895330008AF
:10011000953300089533000895330008953300089F
:10012000953300089533000895330008953300088F
:10013000953300089533000895330008953300087F
:10014000953300089533000895330008953300086F
:10015000953300089533000895330008953300085F
:10016000953300089533000895330008953300084F
:10017000953300089533000895330008000000000F
:080180009533000895330008D7
:1001900010B5054C237833B9044B13B10448AFF3C1
:1001A00000800123237010BD0C000020000000001F
:1001B000E033000808B5034B1BB103490348AFF314
:1001C000008008BD0000000010000020E03300089F
:1001D00053B94AB9002908BF00281CBF4FF0FF31AE
:1001E0004FF0FF3000F072B9ADF1080C6DE904CEAC
:1001F00000F006F8DDF804E0DDE9022304B0704702
:100200002DE9F047089E04468846002B4BD18A42D0
:10021000154667D9B2FA82F24AB1C2F1200701FA53
:1002200002F320FA07F7954047EA030894404FEAA3
:10023000154E230CB8FBFEF71FFA85FC0EFB178842
:1002400043EA084307FB0CF1994209D9EB1807F17F
:10025000FF3080F01B81994240F21881023F2B440D
:100260005B1AA4B2B3FBFEF00EFB103344EA034466
:1002700000FB0CFCA44509D92C1900F1FF3380F0D8
:100280000781A44540F2048102382C4440EA07402B
:10029000A4EB0C0400271EB1D4400023C6E90043A0
:1002A0003946BDE8F0878B4209D9002E00F0EB807B
:1002B0000027C6E9000138463946BDE8F087B3FAA1
:1002C00083F7002F47D18B4202D3824200F2FA809B
:1002D000841A61EB030301209846002EE0D0C6E9A2
:1002E0000048DDE702B9FFDEB2FA82F2002A40F0F0
:1002F0008F80491B4FEA154E1FFA85F80127B1FB85
:10030000FEFC230C0EFB1C1143EA014308FB0CF11D
:10031000994207D9EB180CF1FF3002D2994200F252
:10032000CD808446591AA3B2B1FBFEF00EFB101427
:1003300043EA044408FB00F8A04507D92C1900F152
:10034000FF3302D2A04500F2B6801846A4EB0804A1
:1003500040EA0C409FE7C7F1200CBB4022FA0CFE9C
:100360004EEA030E01FA07F420FA0CF521FA0CF319
:100370004FEA1E482543B3FBF8F92C0C08FB193350
:100380001FFA8EFA44EA034309FB0AF49C4202FA7C
:1003900007F200FA07F10BD91EEB030309F1FF3056
:1003A00080F087809C4240F28480A9F10209734466
:1003B0001B1BADB2B3FBF8F008FB103345EA034456
:1003C00000FB0AFAA24508D91EEB040400F1FF3332
:1003D0006BD2A24569D90238744440EA0940A0FBB7
:1003E0000289A4EB0A044C45C2464B4654D351D073
:1003F000002E69D0B1EB0A0564EB030404FA0CFC8F
:10040000FD40FC404CEA0505C6E90054002747E7DB
:10041000C2F1200320FA03F7954001FA02F021FA15
:1004200003F34FEA154E3843010CB3FBFEF71FFAF6
:1004300085F80EFB173341EA034107FB08F38B42B3
:1004400004FA02F407D9691807F1FF3C2FD28B4256
:100450002DD9023F2944CB1A81B2B3FBFEF00EFB2B
:10046000103341EA034100FB08F38B4207D96918B6
:1004700000F1FF3C17D28B4215D902382944C91A22
:1004800040EA07473BE73746304609E70746E7E6D5
:100490001846FBE64145ABD2B8EB020A69EB0E0207
:1004A00001381346A4E76046E9E7184695E7674632
:1004B000D1E781467CE702382C4447E7ACF1020CD7
:1004C0002B442FE7384608E73746E9E6704700BF78
:1004D00008B50B4B1A6842F400721A601A6842F4AD
:1004E00080621A601A6842F480721A60032001F078
:1004F000F7FA002002F07EFB01F00EFA002008BDA2
:10050000003C0240034A1168034B1B780B44136004
:10051000704700BF743D002000000020014B1868A8
:10052000704700BF743D002070470000124A12F06F
:10053000070F1ED0D11D21F00701C1F570531344E0
:100540000A460E480260002141601344083B23F034
:1005500007030B48036059601960991A51601360D2
:10056000084B1960084B1960084B4FF000421A60A5
:1005700070474FF47053E4E72C000020383C002013
:1005800028000020343C0020303C00202C3C00207F
:1005900010B4134B1A6882421BD359685C1884420A
:1005A00003D1406801445960184641684418A2428A
:1005B00013D10C4C2468A2420DD052681144416002
:1005C0001A6812680260984200D018605DF8044B07
:1005D00070471346DEE70460F5E70260F3E700BF0B
:1005E000383C00202800002070B5044601F008FEC9
:1005F0003A4B1B68BBB13A4B1B681C4263D1ACB190
:10060000083414F0070F11D024F00704083404F064
:1006100007035BB14FF0500383F31188BFF36F8F73
:10062000BFF34F8FFEE7FFF781FFE4E7002C4CD0CC
:100630002C4B1B68A3424AD32B4B1D6801E02B4671
:1006400015466A68A24202D22A68002AF7D1234AD4
:100650001268AA423DD01E6808362A681A606B6884
:100660001B1B102B10D9281910F0070F08D04FF0C2
:10067000500383F31188BFF36F8FBFF34F8FFEE7F3
:1006800043606C60FFF784FF6A6816490B689B1A29
:100690000B60164909688B4201D214490B60104B5C
:1006A0001B6813436B6000232B6001F03DFE16F0C6
:1006B000070F10D04FF0500383F31188BFF36F8FF3
:1006C000BFF34F8FFEE70026EFE70026EDE7002699
:1006D000EBE70026E9E7304670BD00BF28000020A8
:1006E0002C3C0020303C0020383C0020343C0020D2
:1006F00080B338B50446A0F1080550F8042C16491B
:1007000009680A4208D14FF0500383F31188BFF300
:100710006F8FBFF34F8FFEE750F8080C40B14FF0DA
:10072000500383F31188BFF36F8FBFF34F8FFEE742
:1007300022EA010244F8042C01F062FD54F8041C82
:10074000064A13680B4413602846FFF721FF01F0A7
:10075000EBFD38BD704700BF2C3C0020303C002032
:1007600090F83830012B22D030B4012280F83820A4
:10077000022380F839300468636823F070036360F3
:10078000046863680D682B4363600468A36823F002
:100790008003A3600468A36849680B43A36080F8E2
:1007A0003920002380F83830184630BC70470220CA
:1007B00070477047704700F1080343604FF0FF3205
:1007C0008260C360036100230360704700230361FC
:1007D000704743684B609A688A609A685160996074
:1007E0000861036801330360704730B40D68B5F1E8
:1007F000FF3F02D000F1080202E0026904E01A465D
:1008000053681C68AC42FAD953684B6099608A609F
:100810005160086103680133036030BC70470369AD
:100820004268816891608268416851605A6882427A
:1008300005D000220261186801381860704782688C
:100840005A60F6E70F49D1F8883043F47003C1F8D5
:1008500088300D4B1A6842F001021A60002098603F
:100860001A6822F0847222F480321A60074A5A60B1
:100870001A6822F480221A60D8604FF000638B60FF
:10088000704700BF00ED00E0003802401030002447
:1008900030B58BB0002401941D4B1A6B42F08002DE
:1008A0001A631A6B02F080020192019A02941A6B89
:1008B00042F001021A631A6B02F001020292029ADC
:1008C00003941A6B42F002021A631A6B02F00202DE
:1008D0000392039A04941A6B42F008021A631B6B8A
:1008E00003F008030493049B0A4D22464FF4E041B1
:1008F000284602F0A1FA4FF4E04305930123069342
:100900000794089405A9284602F0B2F90BB030BD4F
:1009100000380240000C024008B5012000F089FCBC
:10092000FBE7000008B50268034B9A4200D008BDFF
:10093000FFF7E8FDFBE700BF00000140FEE7000015
:1009400008B50B480B4B03604FF41653436000236C
:100950008360C36003610C2242618361C36100F064
:1009600023FB00B908BD4FF4B7710348FFF7E6FF5A
:10097000143E0020004400402434000800B585B037
:100980001548164B03600023436083600361836155
:100990000362C362124A8262C3600122C2610363BE
:1009A000426102F0FBFA68B9082300930123019326
:1009B000002302936946084802F0C4FB38B905B029
:1009C0005DF804FB40F207110648FFF7B7FF40F25D
:1009D00011110448FFF7B2FFB83D0020002001408C
:1009E0000100000F2434000800B58FB02748284BC1
:1009F000036040F2374343600023836040F2CF72CC
:100A0000C260036100F0B6FE30BB0EA94FF4805304
:100A100041F8103D1D4800F007FD10BB1B4800F0D9
:100A2000C2FE18BB00230893099308A91748FFF7D3
:100A300097FE00BB60230193002302930393059369
:100A40000C2201A9114800F0F9FEC8B90F4800F0C6
:100A5000FBFF0FB05DF804FB4FF49F710D48FFF7EB
:100A60006DFF4FF4A2710B48FFF768FF40F2491188
:100A70000848FFF763FF4FF4A8710648FFF75EFFD1
:100A800040F259110348FFF759FF00BF7C3D002099
:100A9000000800402434000800B583B00D480E4B18
:100AA000036002F017FC58B93C2300930022019226
:100AB0006946084802F020FC38B903B05DF804FB31
:100AC00040F221110548FFF739FF4FF495710348B3
:100AD000FFF734FF003E002000740040243400087B
:100AE00000B595B0002101912B4B1A6C42F0805259
:100AF0001A641B6C03F080530193019B0291274BF6
:100B00001A6842F480421A601B6803F4804302931F
:100B1000029B012308934FF48033099302230E9321
:100B20004FF480020F92082210924FF4A872119293
:100B300012930723139308A801F034FD20BB0F2361
:100B4000039302230493002305934FF4C0530693A9
:100B50004FF4A0530793052103A801F05BFFB8B938
:100B600002F004F80E4BA3FB0030800901F00AF8F4
:100B7000042001F01DF800220F214FF0FF3000F09B
:100B8000C1FF15B05DF804FBD4210648FFF7D6FE7F
:100B9000E2210448FFF7D2FE003802400070004016
:100BA000D34D62102434000800B587B0FFF790FCE5
:100BB000FFF796FFFFF76CFEFFF7C2FEFFF7DEFEC2
:100BC000FFF712FFFFF768FF01AC074D0FCD0FC411
:100BD0002B682360002101A800F011FB034B186073
:100BE00000F008FBFEE700BFF8330008783D002066
:100BF0000268D36823F49073D3600268536923F0CA
:100C000001035361202380F83A30704790F839305F
:100C1000DBB2212B2AD18368B3F5805F16D0036A3B
:100C20005A1C02621A7803685A60C38C013B9BB25B
:100C3000C384EBB90268D36823F08003D3600268F1
:100C4000D36843F04003D36000207047036A1B88D9
:100C50000268C3F30803536003691BB9036A0233D4
:100C60000362E2E7036A01330362DEE702207047B2
:100C7000002070472DE9F843044601680A6922F410
:100C80004052C36813430B610168CA6822F41642DC
:100C900022F00C0283680069034360690343E06942
:100CA00003431343CB6021684A6922F44072A3696D
:100CB00013434B61E369B3F5004F60D02368B84A32
:100CC000934200F0148102F58062934200F00F819C
:100CD00001F052FF00EB800000EB80006568AD0082
:100CE000B0FBF5F5AF4FA7FB05356D092E0101F0FF
:100CF00043FF00EB800000EB80006568AD00B0FBB7
:100D0000F5F901F039FF00EB800000EB8000656829
:100D1000AD00B0FBF5F5A7FB05356D094FF0640894
:100D200008FB15952D013235A7FB05356D0905F03A
:100D3000F005354401F020FF00EB800000EB80005F
:100D40006668B600B0FBF6F601F016FF00EB800017
:100D500000EB800063689B00B0FBF3F0A7FB003062
:100D6000400908FB10684FEA081808F13208A7FB91
:100D70000837C7F3431723682F449F600DE12368AA
:100D8000874A93425BD002F58062934257D001F0CC
:100D9000F3FE00EB800000EB800065686D00B0FBA7
:100DA000F5F5804FA7FB05356D092E0101F0E4FE36
:100DB00000EB800000EB800065686D00B0FBF5F98A
:100DC00001F0DAFE00EB800000EB800065686D004A
:100DD000B0FBF5F5A7FB05356D094FF0640808FB7E
:100DE0001595ED003235A7FB05356D096D0005F44D
:100DF000F875354401F0C0FE00EB800000EB800088
:100E000066687600B0FBF6F601F0B6FE00EB8000F7
:100E100000EB800063685B00B0FBF3F3A7FB0323E8
:100E20005B0908FB13684FEAC80808F13208A7FB02
:100E30000837C7F3421723682F449F60ADE001F0E5
:100E4000ABFE00EB800000EB800065686D00B0FB3E
:100E5000F5F5544FA7FB05356D092E0101F09CFEF9
:100E600000EB800000EB800065686D00B0FBF5F9D9
:100E700001F092FE00EB800000EB800065686D00E1
:100E8000B0FBF5F5A7FB05356D094FF0640808FBCD
:100E90001595ED003235A7FB05356D096D0005F49C
:100EA000F875354401F078FE00EB800000EB80001F
:100EB00066687600B0FBF6F601F06EFE00EB80008F
:100EC00000EB800063685B00B0FBF3F3A7FB032338
:100ED0005B0908FB13684FEAC80808F13208A7FB52
:100EE0000837C7F3421723682F449F6055E001F08D
:100EF00053FE00EB800000EB80006568AD00B0FBA6
:100F0000F5F5284FA7FB05356D092E0101F044FECC
:100F100000EB800000EB80006568AD00B0FBF5F9E8
:100F200001F03AFE00EB800000EB80006568AD0048
:100F3000B0FBF5F5A7FB05356D094FF0640808FB1C
:100F400015952D013235A7FB05356D0905F0F00526
:100F5000354401F021FE00EB800000EB8000666864
:100F6000B600B0FBF6F601F017FE00EB800000EBD8
:100F7000800063689B00B0FBF3F0A7FB00304009E2
:100F800008FB10684FEA081808F13208A7FB083779
:100F9000C7F3431723682F449F60BDE8F88300BF61
:100FA000001001401F85EB5158B310B5044690F86E
:100FB00039300BB3242384F839302268D36823F402
:100FC0000053D3602046FFF755FE2268136923F4CF
:100FD000904313612268536923F02A035361226806
:100FE000D36843F40053D3600020E063202384F8E7
:100FF000393084F83A3010BD80F8383000F040FDC8
:10100000D8E701207047704708B50168CB6823F026
:101010004003CB60202380F83930FFF7F4FF002035
:1010200008BD704708B590F83A30DBB2222B40D1AA
:101030008368B3F5805F0ED0036903BB03685A6809
:10104000836A591C81621A70C38D013B9BB2C385B0
:10105000F3B100202EE0826A036943B903685B683C
:10106000C3F308031380836A02338362ECE70368E7
:101070005B68DBB21380836A01338362E4E7036851
:101080005B68826A511C816203F07F031370DBE7A7
:101090000268D36823F49073D3600268536923F025
:1010A00001035361202380F83A30FFF7BAFF002094
:1010B00000E0022008BD704710B5044602681368BE
:1010C000D168526913F00F0005D113F0200F02D040
:1010D00011F0200F53D1002867D012F0010202D185
:1010E00011F4907F61D013F0010F06D011F4807FCE
:1010F00003D0E06B40F00100E06313F0040F04D074
:101100001AB1E06B40F00200E06313F0020F04D06C
:101110001AB1E06B40F00400E06313F0080F04D054
:101120001AB1E26B42F00802E263E26B002A48D097
:1011300013F0200F02D011F0200F24D123685B6937
:1011400003F04003E26B12F0080F00D13BB32046DE
:10115000FFF74EFD23685A6912F0400F1BD05A6901
:1011600022F040025A61636B8BB11A4A1A65606BB8
:1011700001F068FE28B3606B036D984721E02046BC
:10118000FFF750FF1DE02046FFF74CFFD6E7204653
:10119000FFF791FF15E02046FFF78DFF11E0204695
:1011A000FFF789FF0023E3630BE013F0800F02D009
:1011B00011F0800F06D113F0400F02D011F0400F54
:1011C00004D110BD2046FFF721FDFAE72046FFF7C6
:1011D0001BFFF6E7D911000808B5806B0023C38513
:1011E000C384FFF768FF08BD842801D0033070472F
:1011F0000020704708B500F0C5FF002008BDF0B51D
:1012000085B00F46446805680669B0F90800FFF725
:10121000EBFF03AB019300903B46B2B22946204658
:1012200000F07EFF012802D1039805B0F0BD002038
:10123000FBE708B5034600B90123184601F0EEF8B4
:10124000002008BD08B501F09DF9012801D000F08B
:1012500091FD08BD08B5FFF7F5FF08BD08B50248C8
:1012600001F0C9FE08BD00BFB83D002008B5024826
:1012700000F062F908BD00BF543E002008B50248E6
:10128000FFF71AFF08BD00BF143E002070B4036AC8
:1012900023F001030362036A4268846924F0730443
:1012A0000D6845EA040623F002048B6823430C4DC5
:1012B000A84202D00B4CA0420BD123F00803CD680A
:1012C0002B4323F0040322F440724D6915438A69CD
:1012D0002A43426086614A684263036270BC704779
:1012E000000001400004014030B4036A23F480731D
:1012F0000362036A4268C46924F073040D682C43D6
:1013000023F400738D6843EA05230E4DA84203D0F1
:1013100005F58065A8420ED123F40063CD6843EA49
:10132000052323F4806322F440524D6942EA0512FA
:101330008D6942EA05124260C4614A68C263036271
:1013400030BC70470000014030B4036A23F480537E
:101350000362036A4468C26922F4E6420D6842EA05
:10136000052223F400538D6843EA0533094DA84252
:1013700003D005F58065A84204D124F480444D696A
:1013800044EA85144460C2614A680264036230BC66
:10139000704700BF0000014010B4036A046A24F0E3
:1013A00001040462846924F0F00444EA021223F088
:1013B0000A030B43826103625DF8044B704710B46B
:1013C000036A23F0100303628469036A24F47044FF
:1013D00044EA023223F0A00343EA0113826103626C
:1013E0005DF8044B7047836823F0700341F00701F8
:1013F00019438160704710B4846824F47F4442EA42
:1014000003230B43234383605DF8044B704702685A
:10141000D36843F00103D3600268136843F001030B
:10142000136000207047704790F83830012B7DD052
:1014300010B50446012380F83830022380F8393093
:101440000268936823F47F4323F0770393600B686B
:10145000402B57D010D9702B3ED01FD8502B47D0DF
:10146000602B32D1CA6849680068FFF7A8FF602185
:101470002068FFF7B8FF28E0102B4DD008D9202BAB
:101480004FD0302B21D130210068FFF7ACFF1CE09A
:10149000DBB900210068FFF7A6FF16E0B3F5805F17
:1014A0000ED0B3F5005F10D1CB684A688968006838
:1014B000FFF7A1FF2268936843F48043936004E040
:1014C0000268936823F007039360012384F839309E
:1014D000002084F8380010BDCB684A68896800682D
:1014E000FFF789FF2268936843F077039360ECE786
:1014F000CA6849680068FFF74FFF50212068FFF76E
:1015000072FFE2E7CA6849680068FFF745FF4021BB
:101510002068FFF768FFD8E710210068FFF763FF36
:10152000D3E720210068FFF75EFFCEE70220704777
:10153000704770477047704710B5044603681A69D2
:1015400012F0020F11D0DA6812F0020F0DD06FF016
:1015500002021A610123037603689B6913F0030FEB
:1015600070D0FFF7E6FF0023237623681A6912F094
:10157000040F12D0DA6812F0040F0ED06FF00402DC
:101580001A610223237623689B6913F4407F5FD09E
:101590002046FFF7CEFF0023237623681A6912F056
:1015A000080F12D0DA6812F0080F0ED06FF00802A0
:1015B0001A61042323762368DB6913F0030F4ED0EE
:1015C0002046FFF7B6FF0023237623681A6912F03E
:1015D000100F12D0DA6812F0100F0ED06FF0100258
:1015E0001A61082323762368DB6913F4407F3DD01A
:1015F0002046FFF79EFF0023237623681A6912F026
:10160000010F03D0DA6812F0010F36D123681A698E
:1016100012F0800F03D0DA6812F0800F34D1236803
:101620001A6912F0400F03D0DA6812F0400F32D17D
:1016300023681A6912F0200F03D0DA6812F0200F25
:1016400030D110BDFFF774FF2046FFF773FF8AE724
:101650002046FFF76DFF2046FFF76CFF9BE7204613
:10166000FFF766FF2046FFF765FFACE72046FFF770
:101670005FFF2046FFF75EFFBDE76FF001021A61D2
:101680002046FFF74FF9C1E76FF080021A6120464C
:10169000FFF790F8C3E76FF040021A612046FFF7AA
:1016A0004AFFC5E76FF020021A612046FFF781F874
:1016B000C7E7000003682E4A904212D0B0F1804F75
:1016C0000FD0A2F57C4290420BD002F5806290428E
:1016D00007D002F58062904203D002F57842904232
:1016E00003D123F070034A681343214A90422AD061
:1016F000B0F1804F27D0A2F57C42904223D002F572
:10170000806290421FD002F5806290421BD002F5A9
:101710007842904217D002F57052904213D002F5F1
:10172000806290420FD002F5806290420BD0A2F509
:101730009832904207D002F58062904203D002F5C1
:101740008062904203D123F44073CA68134303605C
:101750008B68C3620B688362054B984203D003F524
:101760008063984201D10B69036301234361704791
:1017700000000140A8B110B5044690F839305BB1C3
:10178000022384F83930211D2068FFF793FF0123DD
:1017900084F83930002010BD80F8383000F03CF972
:1017A000EEE701207047A8B110B5044690F8393033
:1017B0005BB1022384F83930211D2068FFF77AFFDE
:1017C000012384F83930002010BD80F83830FFF74D
:1017D0002AFEEEE70120704730B4036A23F01003BD
:1017E0000362036A4468826922F4E6420D6842EAB1
:1017F000052223F020038D6843EA05130E4DA8420D
:1018000003D005F58065A8420ED123F08003CD6892
:1018100043EA051323F0400324F440644D6944EA8D
:1018200085048D6944EA8504446082614A68826364
:10183000036230BC704700BF0000014038B590F82B
:101840003830012B66D00D460446012380F838302D
:10185000022380F839300C2A1AD8DFE802F0071981
:101860001919201919193419191947000068FFF7B7
:101870000DFD2268936943F0080393612268936920
:1018800023F0040393612268936929690B439361F0
:10189000012384F83930002084F8380038BD00680E
:1018A000FFF79AFF2268936943F40063936122680B
:1018B000936923F48063936122689369296943EAF9
:1018C00001239361E4E70068FFF70EFD2268D36906
:1018D00043F00803D3612268D36923F00403D36182
:1018E0002268D36929690B43D361D1E70068FFF708
:1018F0002BFD2268D36943F40063D3612268D36966
:1019000023F48063D3612268D369296943EA012300
:10191000D361BDE70220C1E708B5032000F0E0F87D
:10192000002211466FF00B0000F0ECF80022114687
:101930006FF00A0000F0E6F8002211466FF009008F
:1019400000F0E0F8002211466FF0040000F0DAF831
:10195000002211466FF0030000F0D4F800220F219E
:101960006FF0010000F0CEF800220F214FF0FF30A1
:1019700000F0C8F808BD00000268134B9A4200D07E
:10198000704710B586B00024009403F58C335A6C70
:1019900042F480725A645B6C03F480730093009B82
:1019A0000123019303230293039401A9074801F043
:1019B0005FF922460521122000F0A4F8122000F061
:1019C000D5F806B010BD00BF002001400004024061
:1019D00002680F4B9A4200D0704700B587B00021D3
:1019E000009103F5E2331A6C42F000521A641B6C4A
:1019F00003F000530093009B1023019303230293F1
:101A0000039101A9034801F033F907B05DF804FB25
:101A100000740040000002400268094B9A4200D066
:101A2000704782B000230193064B1A6C42F0040207
:101A30001A641B6C03F004030193019B02B070470E
:101A4000000800400038024002680B4B9A4200D068
:101A5000704700B587B04FF400430193022302930F
:101A6000002203920492059301A9044801F000F9B1
:101A700007B05DF804FB00BF00080040000C024006
:101A80000268154B9A4200D0704710B586B000240A
:101A9000009403F5FA331A6C42F400321A641B6C9A
:101AA00003F400330093009B0C2301930223029361
:101AB00001230393032304930723059301A90748F4
:101AC00001F0D6F822460521262000F01BF826203A
:101AD00000F04CF806B010BD004400400000024089
:101AE000074AD36823F4E0631B041B0C000200F4D4
:101AF000E060184340F0BF6040F40030D0607047B1
:101B000000ED00E030B4174BDB68C3F30223C3F1F0
:101B10000704042C28BF04241D1D062D18D9033BDF
:101B20004FF0FF3505FA04F421EA0401994005FA63
:101B300003F322EA0303194300280BDB0901C9B2AE
:101B400000F1604000F5614080F8001330BC704740
:101B50000023E5E700F00F000901C9B2024B195458
:101B6000F4E700BF00ED00E014ED00E000F01F021C
:101B7000400901239340024A42F82030704700BFD9
:101B800000E100E00138B0F1807F0AD2064B5860D6
:101B9000064AF02182F823100020986007221A607C
:101BA00070470120704700BF10E000E000ED00E04A
:101BB000042805D0054A136823F004031360704716
:101BC000024A136843F004031360704710E000E01A
:101BD0000B4B1B68B3F1FF3F08D04FF0500383F36A
:101BE0001188BFF36F8FBFF34F8FFEE74FF05003A5
:101BF00083F31188BFF36F8FBFF34F8FFEE700BFF2
:101C00000800002006480068006880F3088862B673
:101C100061B6BFF34F8FBFF36F8F00DF00BF0000CF
:101C200008ED00E0DFF80C00016841F4700101608C
:101C30007047000088ED00E04FF0807340F8043CEE
:101C400021F0010140F8081C054B40F80C3C40F81D
:101C5000202C6FF0020340F8243C4438704700BF4A
:101C6000D11B000800000000000000000000000080
:101C7000074B19680868B0E8F04F80F30988BFF394
:101C80006F8F4FF0000080F311887047AFF3008032
:101C9000483C00204FF0500383F31188BFF36F8F4F
:101CA000BFF34F8F0A4A136801331360012B00D032
:101CB0007047084B1B6813F0FF0FF9D04FF050032B
:101CC00083F31188BFF36F8FBFF34F8FFEE700BF21
:101CD0000800002004ED00E0094B1B6843B94FF0F9
:101CE000500383F31188BFF36F8FBFF34F8FFEE76D
:101CF000013B034A13600BB983F31188704700BF9F
:101D000008000020000000000000000000000000AB
:101D1000EFF30980BFF36F8F154B1A681EF0100F99
:101D200008BF20ED108A20E9F04F10604DF8043D07
:101D30004FF0500080F31188BFF34F8FBFF36F8FC8
:101D400000F0D4FB4FF0000080F3118808BC196844
:101D50000868B0E8F04F1EF0100F08BFB0EC108A12
:101D600080F30988BFF36F8F704700BFAFF3008027
:101D7000483C002008B54FF0500383F31188BFF3AF
:101D80006F8FBFF34F8F00F043FA18B1034B4FF042
:101D900080521A60002383F3118808BD04ED00E02F
:101DA000064B1B68064AA2FB03239B09013B054A1D
:101DB0001360054B07221A60704700BF0400002023
:101DC000D34D621014E000E010E000E0314B1A68DF
:101DD000314B9A420DD02F4B1A68304B9A4211D199
:101DE0004FF0500383F31188BFF36F8FBFF34F8F12
:101DF000FEE74FF0500383F31188BFF36F8FBFF3FB
:101E00004F8FFEE700B583B0254B1A78D2B201920E
:101E1000FF221A701B78DBB28DF803309DF8033077
:101E200003F050031F4A13701F4B07221A609DF8DE
:101E3000033013F0800F0AD01B4A1368013B136074
:101E40009DF803305B00DBB28DF80330EFE7164AF4
:101E500013681B0203F4E0631360019BDBB2104ABA
:101E60001370124B1A6842F470021A601A6842F03A
:101E700070421A60FFF794FF0D4B00221A60FFF7C3
:101E8000D1FE0C4A136843F040431360FFF7BAFEDB
:101E9000FFF79EFE00ED00E071C20F4170C20F41DE
:101EA00000E400E0403C0020443C002020ED00E045
:101EB0000800002034EF00E0084B1B681B683BB1B2
:101EC000064B1B68DB68DB685A68054B1A60704775
:101ED000034B4FF0FF321A60704700BF4C3C0020AC
:101EE000243D002010B50446006BFEF701FC20469F
:101EF000FEF7FEFB10BD2DE9F04780469946089D90
:101F0000099F0A9C266B02F18042013A06EB820689
:101F100026F0070600230F2B07D8C85CE21882F8CA
:101F20003400CA5C0AB10133F5E7002384F843307A
:101F3000062D00D90625E56265644FF0000AC4F855
:101F400048A0201DFEF742FC04F11800FEF73EFCFD
:101F50002461C5F10705A5616462C4F84CA084F84A
:101F600050A04A4641463046FFF766FE206007B162
:101F70003C60BDE8F087000038B5002407E004EBC2
:101F8000840293000E481844FEF715FC0134062C19
:101F9000F5D90C4D2846FEF70EFC0B4C2046FEF7FB
:101FA0000AFC0A48FEF707FC0948FEF704FC09484A
:101FB000FEF701FC084B1D60084B1C6038BD00BFDC
:101FC000543C0020F83C00200C3D00202C3D00201B
:101FD000583D0020443D00204C3C0020503C002057
:101FE00010B50446FFF756FE204A1368013313600C
:101FF0001F4B1B685BB11F4B1B686BB91C4B1B68ED
:10200000DA6AE36A9A4207D8194B1C6004E0184B5D
:102010001C601368012B26D0174A13680133136024
:10202000E36A01229A401549086802430A6003EBFB
:1020300083039A00211D12481044FEF7CAFBFFF7E4
:102040004BFE0C4B1B686BB1094B1B68DA6AE36AE9
:102050009A4207D20B4B4FF080521A60BFF34F8F5A
:10206000BFF36F8F10BDFFF787FFD5E7E03C00207F
:10207000483C0020403D0020F03C0020F43C002083
:10208000543C002004ED00E070B504460E461D4BA4
:102090001D681D4B18680430FEF7C1FB50B91A4B80
:1020A0001B68DA6A012303FA02F218490B6823EA73
:1020B00002030B60B4F1FF3F13D02C44124B1B689A
:1020C0005C60A54216D8124B18680F4B1968043192
:1020D000FEF78BFB0F4B1B68A34212D90D4B1C6004
:1020E0000FE0002EE9D0084B196804310A48FEF7CA
:1020F00070FB06E0094B1868034B19680431FEF7C2
:1021000074FB70BD6C3D0020483C0020F43C002076
:102110004C3C0020243D0020443D0020503C002049
:102120002DE9F04385B0074688461546994690004C
:10213000FEF75AFAF8B106465420FEF755FA04465F
:10214000A8B10663D4B10023039302940D9B0193BD
:102150000C9B00934B462A4641463846FFF7CBFE80
:102160002046FFF73DFF012005B0BDE8F083304673
:10217000FEF7BEFAE6E74FF0FF30F5E74FF0FF302D
:10218000F2E7000000B583B0174B019300230093E2
:10219000802216491648FFF7C3FF012805D0B0F189
:1021A000FF3F17D003B05DF804FB4FF0500383F3FB
:1021B0001188BFF36F8FBFF34F8F0E4B4FF0FF327D
:1021C0001A600D4B01221A600C4B00221A60FFF7B7
:1021D000FDFDE7E74FF0500383F31188BFF36F8FE6
:1021E000BFF34F8FFEE700BF203D00203C340008C6
:1021F000C5240008243D0020403D00206C3D002007
:10220000024A136801331360704700BFEC3C0020A2
:10221000F8B53A4B1B68002B64D1394B1D6801356A
:102220001D60C5B9374B1B681B6843B14FF05003A5
:1022300083F31188BFF36F8FBFF34F8FFEE7314AEF
:102240001168314B186810601960304A1368013307
:102250001360FFF731FE2E4B1B68AB4238D90024C8
:102260002C4B1B68DB6A03EB83039A002A4B9B58B9
:10227000012B3CD901243AE00124224B1B681B6846
:1022800043B3204B1B68DB68DE6873689D4226D32E
:10229000371D3846FEF7C3FAB36A1BB106F11800C2
:1022A000FEF7BDFAF36A01229A401C49086802430E
:1022B0000A6003EB83039A00394617481044FEF77F
:1022C00088FAF26A134B1B68DB6A9A42D4D2D4E7CD
:1022D0000024D2E70E4B4FF0FF321A60C0E70C4AE1
:1022E0001360BDE70E4A13680133136000240D4BE1
:1022F0001B6803B101242046F8BD00BFEC3C002060
:102300006C3D00204C3C0020503C0020283D00202B
:10231000243D0020483C0020543C0020F43C002098
:10232000E83C0020703D002038B5334B1B6843B9B2
:102330004FF0500383F31188BFF36F8FBFF34F8FBC
:10234000FEE7FFF7A7FC2C4B1A68013A1A601B68DE
:10235000002B4DD1294B1B6823B90024FFF7BCFC8F
:10236000204638BD0024264B1B681BB3244BDB687A
:10237000DC6804F11800FEF752FA251D2846FEF726
:102380004EFAE36A01229A401E49086802430A6035
:1023900003EB83039A0029461B481044FEF719FA01
:1023A000E26A1A4B1B68DB6A9A42DCD3184B0122A3
:1023B0001A60D8E70CB1FFF77FFD164B1C6854B1CB
:1023C000FFF726FF10B1124B01221A60013CF7D132
:1023D000104B00221A600E4B1B685BB10E4B4FF086
:1023E00080521A60BFF34F8FBFF36F8F0124B5E7A0
:1023F0000024B3E70024B1E7EC3C0020E03C0020DF
:102400002C3D0020F43C0020543C0020483C00209F
:10241000703D0020E83C002004ED00E010B5A8B1BC
:1024200004460F4B1B6843B14FF0500383F31188F0
:10243000BFF36F8FBFF34F8FFEE7FFF7E1FE002181
:102440002046FFF721FEFFF76FFF38B9054B4FF02D
:1024500080521A60BFF34F8FBFF36F8F10BD00BF64
:10246000EC3C002004ED00E0134B1B6813B310B5E7
:10247000FFF7C6FE114B1C68FFF756FF24B90E4B41
:102480001B68002BF4D110BDFFF704FC0B4BDB687D
:10249000DC68201DFEF7C3F9094A1368013B13608D
:1024A000054A1368013B1360FFF716FC2046FFF74F
:1024B00019FDE4E7704700BFE43C0020583D0020D0
:1024C000E03C002008B5FFF7CFFF064B1B68012B4F
:1024D000F9D9054B4FF080521A60BFF34F8FBFF30D
:1024E0006F8FF0E7543C002004ED00E0204B1B68A8
:1024F0001BB1204B01221A6070471E4B00221A604C
:102500001D4B1B68B3FA83F3DBB2C3F11F0303EB6C
:1025100083018A0019498A5842B94FF0500383F366
:102520001188BFF36F8FBFF34F8FFEE710B41348CE
:102530009A00D418A10001444C6864684C601A44A5
:1025400091000831084484420BD003EB83039A00C6
:102550000A4B13445B68DA68094B1A605DF8044B58
:10256000704761680548142202FB03025160ECE7E2
:10257000EC3C0020703D0020F43C0020543C002046
:10258000483C0020054B1B6833B1054B1B680BB161
:10259000002070470220704701207047403D002016
:1025A000EC3C0020002800F0BB8170B582B00446EE
:1025B000036813F0010F3BD0A74B9B6803F00C039B
:1025C000042B2CD0A44B9B6803F00C03082B21D0C8
:1025D0006368B3F5803F4FD0B3F5A02F52D09E4B28
:1025E0001A6822F480321A601A6822F480221A6073
:1025F0006368002B50D0FDF791FF0546964B1B6892
:1026000013F4003F14D1FDF789FF401B6428F5D96E
:1026100003208AE1904B5B6813F4800FD8D08E4B77
:102620001B6813F4003F03D06368002B00F07A812D
:10263000236813F0020F55D0874B9B6813F00C0FE3
:102640003ED0854B9B6803F00C03082B33D0E36826
:10265000002B68D0814B01221A60FDF75FFF054611
:102660007D4B1B6813F0020F54D1FDF757FF401B41
:102670000228F5D9032058E1774A136843F48033E0
:102680001360B5E7744B1A6842F480221A601A6826
:1026900042F480321A60ABE7FDF740FF05466E4B0F
:1026A0001B6813F4003FC3D0FDF738FF401B6428BC
:1026B000F5D9032039E1684B5B6813F4800FC6D16C
:1026C000654B1B6813F0020F04D0E368012B01D0A7
:1026D00001202AE1604A136823F0F803216943EAE4
:1026E000C1031360236813F0080F40D0636963B31C
:1026F0005B4B01221A60FDF711FF0546564B5B6FDD
:1027000013F0020F33D1FDF709FF401B0228F5D962
:1027100003200AE1504A136823F0F803216943EAD1
:10272000C1031360DEE74D4B00221A60FDF7F6FE91
:102730000546494B1B6813F0020FD3D0FDF7EEFEA0
:10274000401B0228F5D90320EFE0454B00221A6018
:10275000FDF7E4FE0546404B5B6F13F0020F06D019
:10276000FDF7DCFE401B0228F5D90320DDE02368DD
:1027700013F0040F79D0384B1B6C13F0805F33D10A
:1027800000230193344B1A6C42F080521A641B6C84
:1027900003F080530193019B0125324B1B6813F416
:1027A000807F23D0A368012B34D0052B38D02A4B4F
:1027B0001A6F22F001021A671A6F22F004021A67D8
:1027C000A368002B36D0FDF7A9FE0646224B1B6FEF
:1027D00013F0020F48D1FDF7A1FE801B41F28833B0
:1027E0009842F3D90320A0E00025D6E71D4A1368DC
:1027F00043F480731360FDF791FE0646194B1B6886
:1028000013F4807FCED1FDF789FE801B0228F5D915
:1028100003208AE0104A136F43F001031367CFE7E8
:102820000D4B1A6F42F004021A671A6F42F0010250
:102830001A67C5E7FDF772FE0646074B1B6F13F0DC
:10284000020F11D0FDF76AFE801B41F288339842D7
:10285000F3D9032069E000BF00380240000047427E
:10286000800E474200700040E5B9A369002B5BD0A1
:10287000304A926802F00C02082A58D0022B17D076
:102880002D4B00221A60FDF749FE0446294B1B68B8
:1028900013F0007F42D0FDF741FE001B0228F5D95E
:1028A000032042E0234A136C23F080531364DCE7D7
:1028B000214B00221A60FDF731FE05461D4B1B68B7
:1028C00013F0007F06D0FDF729FE401B0228F5D942
:1028D00003202AE0E369226A1343626A43EA82130F
:1028E000A26A5208013A43EA0243E26A43EA0263F7
:1028F000104A5360104B01221A60FDF70FFE044688
:102900000C4B1B6813F0007F06D1FDF707FE001B80
:102910000228F5D9032008E0002006E0002004E0AA
:1029200001207047012000E0002002B070BD0120AE
:10293000FBE700BF0038024060004742324B9B6813
:1029400003F00C03042B5CD0082B01D02F487047F8
:102950002DE9F04B2C4B5A6802F03F025B6813F4F0
:10296000800F2BD0284B5B68C3F388131E460027CB
:102970005C010025E41A65EB0705A90141EA9461B1
:10298000A001001B61EB0501CB0043EA5073C400BA
:10299000A01943EB07014B0243EAD05344022046FF
:1029A00019460023FDF714FC174B5B68C3F3014382
:1029B00001335B00B0FBF3F0BDE8F08B124B5B68BA
:1029C000C3F388131E4600275C010025E41A65EB5B
:1029D0000705A90141EA9461A001001B61EB050113
:1029E000CB0043EA5073C400A01943EB07018B02EC
:1029F00043EA90538402204619460023FDF7E8FB82
:102A0000D2E70348704700BF003802400024F400BA
:102A100000127A00002800F09D8070B504464F4BEC
:102A20001B6803F00F038B4209D2CBB24B4A1370E1
:102A3000136803F00F038B4201D0012070BD23689F
:102A400013F0020F17D013F0040F04D0444A936818
:102A500043F4E0539360236813F0080F04D0404A16
:102A6000936843F4604393603D4A936823F0F00316
:102A7000A068034393600D46236813F0010F32D022
:102A80006368012B21D09A1E012A25D9344A126885
:102A900012F0020F60D032498A6822F00302134319
:102AA0008B60FDF73BFD06462D4B9B6803F00C0346
:102AB0006268B3EB820F16D0FDF730FD801B41F248
:102AC00088339842F0D90320B8E7254A126812F4F7
:102AD000003FE0D10120B1E7214A126812F0007FE7
:102AE000D9D10120AAE71D4B1B6803F00F03AB42AD
:102AF00009D9EAB2194B1A701B6803F00F03AB42F5
:102B000001D001209AE7236813F0040F06D0144A7D
:102B1000936823F4E053E1680B439360236813F058
:102B2000080F07D00E4A936823F46043216943EAF3
:102B3000C1039360FFF702FF094B9B68C3F30313C4
:102B4000084AD35CD840084B1860002000F052F8C7
:102B5000002073E70120704701206FE7003C02402E
:102B6000003802400C34000804000020014B1868B3
:102B7000704700BF0400002008B5FFF7F7FF044BC3
:102B80009B68C3F38223034AD35CD84008BD00BFCF
:102B9000003802401C34000808B5FFF7E7FF044B7B
:102BA0009B68C3F34233034AD35CD84008BD00BFDF
:102BB000003802401C3400080F2303600B4B9A6856
:102BC00002F0030242609A6802F0F00282609A68A2
:102BD00002F4E052C2609B68DB0803F4E053036137
:102BE000034B1B6803F00F030B6070470038024073
:102BF000003C024010B588B0002201461920FEF7C3
:102C000081FF1920FEF7B2FF00240194144B5A6C87
:102C100042F001025A645B6C03F001030193019BD3
:102C200002A903A8FFF7C8FFFFF7B6FF43000D484E
:102C3000A0FB03239B0C013B0B480C4A026040F2B3
:102C4000E732C260436004618460FEF793FD10B117
:102C5000012008B010BD0448FEF7D9FBF9E700BF1A
:102C60000038024083DE1B43543E00200000014038
:102C700000230F2B00F2D780F0B482B039E0072296
:102C800000E00022B2403A430234674E46F8242066
:102C9000664A1468EA4302EA04064F6817F4803F64
:102CA00001D045EA0406614C2660646802EA040625
:102CB0004F6817F4003F01D045EA04065B4C66609C
:102CC000A46802EA04064F6817F4801F01D045EAA1
:102CD0000406564CA660E46822404E6816F4001FB5
:102CE00001D045EA0402514CE26001330F2B00F29F
:102CF000978001229A400C6804EA0205AA42F4D1A6
:102D00004C68022C01D0122C10D1DE08083650F885
:102D100026C003F00704A7000F24BC402CEA040CD3
:102D20000C69BC4044EA0C0440F8264004685F008B
:102D30000326BE40F64306EA040C4C6804F0030484
:102D4000BC4044EA0C0404604C6804F1FF3CBCF154
:102D5000010F03D9112C01D0122C10D1846806EA7E
:102D6000040CCC68BC4044EA0C048460446824EA47
:102D700002024C68C4F300149C4014434460C268CF
:102D800016408A68BA403243C2604A6812F0805FD7
:102D9000ABD000220192264A546C44F4804454641F
:102DA000526C02F480420192019A9C08A61C1E4AB1
:102DB00052F8267003F0030296000F22B24027EA71
:102DC00002071C4A90423FF45CAF02F580629042D9
:102DD0001AD002F58062904218D002F580629042CB
:102DE00016D002F58062904214D002F580629042C3
:102DF00012D002F58062904210D002F580629042BB
:102E00003FF43DAF08223DE701223BE7022239E7CC
:102E1000032237E7042235E7052233E7062231E7AC
:102E200002B0F0BC7047704700380140003C0140E0
:102E3000003802400000024012B909048161704765
:102E40008161704790F83530DBB2022B03D08023CC
:102E5000436501207047052380F835300268136808
:102E600023F001031360002070470000494B5A68AB
:102E700022F440325A605A6841680A435A60026834
:102E8000536823F48073536002685368016943EA0E
:102E9000012353600268536823F040735360026853
:102EA000536881680B4353600268936823F400639E
:102EB000936002689368C1680B439360826A364BE3
:102EC0009A4249D00268936823F070639360026865
:102ED0009368816A0B4393600268936823F04053C0
:102EE000936002689368C16A0B43936002689368B9
:102EF00023F00203936002689368816943EA410307
:102F00009360036A002B32D10268536823F4006394
:102F100053600268D36A23F47003D3620168CB6AFA
:102F2000C269013A43EA0253CB620268936823F410
:102F30000073936002689368016B43EA41239360D6
:102F40000268936823F48063936002689368416920
:102F500043EA8123936070470268936823F07063AB
:102F600093600268936823F040539360BEE7026861
:102F7000536843F4006353600268536823F460436A
:102F8000536001684B68426A013A43EA42334B603E
:102F9000BFE700BF002301400100000F30B310B5B0
:102FA0000446036C43B1236C13F0100F0AD00120C8
:102FB000002384F83C3010BD436480F83C30FEF7B9
:102FC000DBFCF0E7236C23F4885323F0020343F087
:102FD000020323642046FFF749FF00206064236C4E
:102FE00023F0030343F001032364E1E7012070476A
:102FF00070477047704738B50446026811685368D7
:1030000011F0020F2FD003F0200363B3036C13F011
:10301000100F03D1036C43F400730364936813F03F
:10302000405F19D1A369BBB9D36A13F4700F03D001
:10303000936813F4806F0FD1536823F0200353601B
:10304000236C23F480732364236C13F4805F03D117
:10305000236C43F0010323642046FFF7C9FF236874
:103060006FF012021A60236819685A6802F0800231
:1030700011F0040F36D0002A34D0226C12F0100F59
:1030800003D1226C42F4005222649A6812F4401F69
:1030900021D19A6B12F4401F03D09A6812F4806F0A
:1030A00019D15A6812F4806F15D19A6812F0405FF6
:1030B00011D1A2697AB95A6822F080025A60236C51
:1030C00023F480532364236C13F4807F03D1236C97
:1030D00043F0010323642046FDF726FA23686FF0CE
:1030E0000C021A6022681168536803F0400311F063
:1030F000010F04D01BB1136813F0010F09D122682E
:103100001168536803F0806311F0200F00D063B999
:1031100038BD236C43F4803323642046FFF769FFF6
:1031200023686FF001021A60E9E7636C43F0020361
:1031300063646FF0200515602046FFF75BFF23688E
:103140001D60E5E730B482B00023019390F83C3075
:10315000012B00F0B780012380F83C300B68092B6D
:103160003ED90568EA689BB203EB43031E3B072484
:1031700004FA03F322EA0303EB600568EA688C684B
:103180000B8803EB43031E3B04FA03F31343EB608A
:103190004B68062B3AD805686A6B03EB8303053B43
:1031A0001F2404FA03F322EA03036B6305686A6BC6
:1031B0004B6803EB8303053B0C8804FA03F31343CA
:1031C0006B630268404B9A4250D002683E4B9A4271
:1031D00055D0002380F83C30184602B030BC704710
:1031E00005682A699BB203EB4303072404FA03F33F
:1031F00022EA03032B6105682A698C680B8803EBBC
:10320000430304FA03F313432B61C1E70C2B16D8D5
:1032100005682A6B03EB8303233B1F2404FA03F3A3
:1032200022EA03032B6305682A6B4B6803EB8303D5
:10323000233B0C8804FA03F313432B63C1E70568AF
:10324000EA6A03EB8303413B1F2404FA03F322EAF7
:103250000303EB620568EA6A4B6803EB8303413BB7
:103260000C8804FA03F31343EB62AAE70B68122BF2
:10327000ABD1164A536843F480035360A5E70B684B
:10328000103B012BA5D8114A536843F40003536047
:103290000B68102B9DD10E4B1B6802F1467202F594
:1032A0002E3202F28332A2FB03239B0C03EB830337
:1032B0005A00019202E0019B013B0193019B002B0C
:1032C000F9D186E7022088E7002001400023014071
:1032D0000400002070B110B50446037933B1022315
:1032E0002371002020610123237110BD4371FEF77B
:1032F0006FFBF4E7012070474379012B1FD070B4B6
:1033000001254571022303710668336840F6FE7497
:10331000944023EA04040B6849680B439340234319
:10332000336004682368C02101FA02F223EA020232
:103330002260057100234371184670BC704702205B
:1033400070470000DFF834D0002103E00C4B5B58DD
:10335000435004310B480C4B42189A42F6D30B4AA7
:1033600002E0002342F8043B094B9A42F9D3FDF7EF
:1033700069FA00F011F8FDF717FC70470000022011
:1033800054340008000000200C0000200C00002035
:10339000903E0020FEE7000070B50D4E0D4CA41BC2
:1033A000A4100025A54209D10B4E0C4C00F018F8D2
:1033B000A41BA4100025A54205D170BD56F82530E8
:1033C00098470135EEE756F8253098470135F2E782
:1033D0004C3400084C3400084C34000850340008C9
:1033E000F8B500BFF8BC08BC9E467047F8B500BFF2
:0833F000F8BC08BC9E467047C2
:1033F800303400081909000800000000000000002F
:10340800800000000000000000000000010203042A
:103418000607080900000000010203045372632F25
:103428006D61696E2E63000064656661756C745425
:0C34380061736B0049444C45000000002B
:08344400BCCDFF7F0100000078
:04344C00B5010008BE
:0434500091010008DE
:0C345400010000000024F400AAAAAAAAAB
:040000050800334577
:00000001FF
