:020000040800F2
:1000000000000220A54D0008A1020008A50200087A
:10001000A9020008AD020008B102000800000000BB
:100020000000000000000000000000008D3100080A
:10003000B502000800000000C132000819330008B2
:10004000ED4D0008ED4D0008ED4D0008ED4D0008A8
:10005000ED4D0008ED4D0008ED4D0008ED4D000898
:10006000ED4D0008ED4D0008ED4D0008ED4D000888
:10007000ED4D0008ED4D0008ED4D0008ED4D000878
:10008000ED4D0008ED4D00083D020008ED4D000863
:10009000ED4D0008ED4D0008ED4D0008ED4D000858
:1000A000ED4D0008ED4D0008ED4D0008ED4D000848
:1000B000ED4D0008ED4D0008ED4D0008ED4D000838
:1000C000ED4D0008ED4D0008ED4D0008ED4D000828
:1000D000ED4D0008ED4D0008ED4D0008ED4D000818
:1000E000ED4D0008ED4D0008ED4D0008ED4D000808
:1000F000ED4D0008ED4D0008ED4D0008ED4D0008F8
:10010000ED4D0008ED4D0008ED4D0008ED4D0008E7
:10011000ED4D0008ED4D0008ED4D0008ED4D0008D7
:10012000ED4D0008ED4D0008ED4D0008ED4D0008C7
:10013000ED4D0008ED4D0008ED4D0008ED4D0008B7
:10014000ED4D0008ED4D0008ED4D0008ED4D0008A7
:10015000ED4D0008ED4D0008ED4D0008ED4D000897
:10016000ED4D0008ED4D0008ED4D0008ED4D000887
:10017000ED4D0008ED4D0008ED4D0008ED4D000877
:08018000ED4D0008ED4D0008F3
:1001880010B5054C237833B9044B13B10448AFF3C9
:1001980000800123237010BD8C04002000000000A3
:1001A8004455000808B5034B1BB103490348AFF396
:1001B800008008BD0000000090040020445500089D
:1001C800154B002B08BF134B9D46A3F5803A002121
:1001D8008B460F461348144A121A04F079FF0F4B46
:1001E800002B00D098470E4B002B00D098470020DA
:1001F800002104000D000D48002802D00C4805F02D
:100208002FF804F00FFF2000290004F02DFD04F062
:10021800F9FE00BF00000800000000000000000018
:10022800000000008C0400203033012069520008CF
:100238007552000800B583B000230D4A0193116878
:10024800890712D50B49D26C0868C2F30B02ADF8C6
:10025800022050B101AA0DF1020101F093F8019BAF
:100268001BB1054B4FF080521A6003B05DF804FBD8
:1002780000200140C832012004ED00E008B501204B
:1002880000F0E2F9002000F0DFF9022000F0DCF9CC
:10029800032000F0D9F9FEE7704700BFFEE700BF72
:1002A800FEE700BFFEE700BFFEE700BF704700BFE4
:1002B800354B36481A68002142F001021A609960ED
:1002C8001A6822F0847222F480321A6058601A6820
:1002D80082B022F480221A60D960009101911A68D4
:1002E80042F480321A601A4603E0009BB3F5A06F0F
:1002F80009D0136803F400330193009B0133009382
:10030800019B002BF1D0204B1B6813F4003318BF5E
:1003180001230193019B012B05D01D4B4FF0006277
:100328009A6002B07047184B1A491A6C1A4842F082
:1003380080521A640A6842F480420A609A689A6095
:100348009A6842F400429A609A6842F4A0529A600D
:1003580058601A6842F080721A601A689201FCD5D7
:100368000E49094A40F205600860996821F00301C6
:100378009960996841F002019960936803F00C0351
:10038800082BFAD1C9E700BF00380240103000241A
:1003980000ED00E00070004008544007003C0240B7
:1003A800154A936803F00C03042B23D0082B09D0BB
:1003B800124B114A12499268C2F303128A5CD34065
:1003C8000B6170475068516852684302C2F3881243
:1003D80001F03F014CBF0B4B084BB3FBF1F303FBA0
:1003E80002F3054A5268C2F3014201325200B3FBDC
:1003F800F2F3DEE7034BDCE7003802400024F400A8
:100408000400002040787D012DE9F0432DED0A8B92
:10041800002289B00221052000F0EAFDDFF8D8812A
:10042800C8F8000010B1032000F00EF900220421E2
:10043800052000F0DDFDDFF8C491C9F8000010B117
:10044800032000F00FF9664C9FED66AA664B674ED5
:10045800674FDFED689A2360F0EE4AAA636024E0F4
:1004680077EEE88AD6ED046A28EE899AF0EE678A74
:1004780029EE299AC9EE267A37EE877A84ED037A2F
:1004880094ED017AC8EE877A0020FCEEE77A17EE41
:10049800901AC1F30B0103F0BBFE0121002003F009
:1004A80089FE642101A801F051FF01F023FE0190AB
:1004B800BB68D8F8000043F08043BB6040B100231C
:1004C8004FF0FF320DF1020100F0EAFF012877D06A
:1004D800D9F8000030B10023012202A900F0E0FFA2
:1004E800012857D094ED028A96ED009A3579D6ED19
:1004F800027AD6ED03CA94ED04BAD4ED03BA6B427E
:1005080007EE103AB8EEC77A38EE4A8A27EE297A0B
:1005180028EE098A87EE27CAB0EE4C0A04F064FC7C
:1005280038EE4B7A07EE905AABEE007AF8EEE77A9F
:1005380078EE2B8AB0EE4C0AE7EE878A04F054FC7A
:1005480068EE297AABEE008A87EEAC7AF0EE087A8C
:1005580037EE2B7AF4EEE78AF1EE10FA84ED048A8E
:1005680084ED037A3FF77CAFF5EEC08AF1EE10FA1E
:1005780086D57AEEE87A96ED046A67EE897AF0EE27
:100588006A8A67EEA97AC7EE866A36EE877A84EDBC
:10059800037A75E79DED028ADDED037ADDED04CA85
:1005A8009DED069A059B9DF81C5084ED028AC6EDC8
:1005B800027AC6ED03CA336186ED009A35719AE76F
:1005C800BDF8023094ED007A07EE903AF8EEE77A3B
:1005D800B0EE6AAA0020A7EE87AA00F051F877E7E4
:1005E800A804002000000000010C403A1800002078
:1005F80000200140CDCCCC3DC8320120C4320120BE
:1006080030B50F4C054683B054F82000012104EBA7
:10061800450403F0E7F80B4A238A52F825000093B3
:1006280002220123002469468DF804308DF8073032
:100638008DF806408DF8052003F09CFC03B030BD12
:10064800905300082C000020044B054A03EB40039C
:1006580052F820201B8A1383704700BF905300086C
:100668002C000020044B054A03EB400352F82020DD
:100678001B8A5383704700BF905300082C0000204A
:10068800054B064A52F8202003EB40005169038AC3
:100698004B405361704700BF905300082C00002066
:1006A80030B50D46012187B00446084603F09AF894
:1006B80001214FF4804003F0C5F8184806A900EB63
:1006C80084000123002441F8103D00698DF80C4096
:1006D8008DF80F4003F04EFC012D01D007B030BD5E
:1006E8002146204603F0FEFC082304A88DF81530A7
:1006F80004958DF814408DF8165003F043FB40F62E
:1007080006720F2301A88DF80750ADF804208DF864
:10071800063002F0D3FE07B030BD00BF2C00002029
:1007280008B5044B03EB80000121006903F08CFC41
:1007380008BD00BF2C0000202DE9F84F8146382065
:100748000D46924602F0A0FC002845D0244E33689E
:10075800044633B306F10408012D274628BF0125B6
:100768000023A386C4E90B5A47F8049B384600F0D7
:1007780025FB04F1180000F021FBE06A336F2461C7
:10078800984288BF3067C5F1020500EB800008EB8E
:100798008000A5616462394600F014FB0120BDE8C1
:1007A800F88FB04606F12C0B48F8040B404600F0D1
:1007B800F9FA06F1180000F0F5FA06F14007584674
:1007C80000F0F0FA384600F0EDFA06F1540000F0B7
:1007D800E9FAC6E91AB7BFE74FF0FF30DFE700BF15
:1007E800BC04002070B50D4C2368656F0544181DC6
:1007F8000E4600F011FB636F2168AB424D608CBF61
:10080800E06EA06E043100F0EDFA36B12168304692
:100818001831BDE8704000F0E5BA70BDBC04002096
:100828002DE9F0414B4D6B6DF3B12F1D02F0C6FC65
:100838002B6EDC6804F1180000F0EEFA261D00208B
:1008480002F012FD304600F0E7FAE36A2A6F03EB84
:1008580083009342314607EB800088BF2B6700F086
:10086800B1FA6B6D002BE1D101F044FCD5E91D32E2
:10087800394F801AE86700283BD0013301386B678D
:10088800E867AA6E1BB9E96EC5E91A120A4611682B
:100898000029F0D0D268D4686268934206D2EAE7A9
:1008A800DA686B6FD46862689A421FD8261D02F016
:1008B80085FC304600F0B0FAA36A04F118000BB1C9
:1008C80000F0AAFA002002F0CFFCE36A2A6F03EBDB
:1008D80083009342314607EB800088BF2B6700F006
:1008E80071FAAB6E1A68002ADAD16B6FE86F0028CC
:1008F800C3D12A6FAB679300991805EB810149684A
:10090800A9B97AB1531E03EB830105EB810149684C
:1009180051B933B1931E03EB830205EB820252688F
:1009280012B92B67BDE8F0811A462B679B00134468
:100938009B00E91809488A6852688A6003449A4209
:1009480004BF52688A60D06828600368016BBDE8FC
:10095800F0411847BC040020C0040020C80400204F
:10096800C36870B5DC68094D04F11806304600F01C
:1009780053FA05F15400314600F024FA2B68E06A76
:10098800DB6A984234BF0020012070BDBC040020FF
:1009980010B51C2002F078FB044620B1002340F873
:1009A800043B00F0FFF9204610BD00BF2DE9F843D5
:1009B80011F07F4FDDF820902ED10C4699B902F046
:1009C800FDFB464B5A6942F480525A615A6942F417
:1009D80000525A615A6942F480425A615A6942F493
:1009E80000425A61FEE706461746984602F098F814
:1009F80010B9B9F1000F23D101F072FB3568B8F1D5
:100A0800000F31D12C4232D0002F50D025EA0404F7
:100A1800346001F025FC47E002F0D0FB2F4B5A6907
:100A280042F480525A615A6942F400525A615A6932
:100A380042F480425A615A6942F400425A61FEE720
:100A480002F0BCFB254B5A6942F480525A615A693C
:100A580042F400525A615A6942F480425A615A6912
:100A680042F400425A61FEE734EA0503CCD0B9F1FA
:100A7800000F1CD0002F0CBF00214FF08071B8F17F
:100A8800000F01D041F080614A462143301D01F03A
:100A980099FE01F0E5FB08B902F084FB02F0B2F818
:100AA800830107D520F07F452846BDE8F88301F08B
:100AB800D7FBF9E702F0CAFB3568B8F1000F08D197
:100AC8002C4203D017B125EA0404346002F0D0FBAD
:100AD800EAE734EA0503F9D1F4E700BF000C024065
:100AE80011F07F4F70B513D002F068FB0E4B5A69B6
:100AF80042F480525A615A6942F400525A615A6962
:100B080042F480425A615A6942F400425A61FEE74F
:100B180006460C4602F09AFB356825EA0404346060
:100B280002F0A6FB284670BD000C024011F07F4F72
:100B380070B513D002F042FB0E4B5A6942F4805252
:100B48005A615A6942F400525A615A6942F4804221
:100B58005A615A6942F400425A61FEE706460C4659
:100B680002F02CFB356825EA0404346002F07CFBB3
:100B7800284670BD000C02402DE9F04111F07F4677
:100B880013D002F01BFB214B5A6942F480525A6180
:100B98005A6942F400525A615A6942F480425A61D1
:100BA8005A6942F400425A61FEE705460C4601F0D4
:100BB80097FA2968286905F10C07214387422960BB
:100BC80034460CD119E03EB1D20141F0007148BF62
:100BD8001C4301F0BDFE2968474540460DD0D0E9C9
:100BE800002822F07F4312F0806F03EA0106EAD062
:100BF800B342E9D047454046F1D121EA04012960D2
:100C080001F02EFB2868BDE8F08100BF000C02400F
:100C180012F07F4F2DE9F0412ED116469AB902F015
:100C2800CDFA424B5A6942F480525A615A6942F4E9
:100C380000525A615A6942F480425A615A6942F430
:100C480000425A61FEE7054688461F4601F068FFE4
:100C580030BB002F47D101F043FA2C6841460C43C2
:100C68002846FFF789FF36EA040336D02C6801F0DE
:100C7800F7FA2046BDE8F08102F0A0FA2B4B5A693A
:100C880042F480525A615A6942F400525A615A69D0
:100C980042F480425A615A6942F400425A61FEE7BE
:100CA80001F01EFA2C6841460C432846FFF764FF02
:100CB80036EA040311D0002FD8D03A4646F0A06196
:100CC800281D01F07FFD01F0CBFA60B301F09AFF17
:100CD80083011CD520F07F44CBE72B6833402B6081
:100CE80001F0BEFAC5E702F069FA104B5A6942F4FE
:100CF80080525A615A6942F400525A615A6942F460
:100D080080425A615A6942F400425A61FEE702F091
:100D18009DFA2C6836EA040304BF24EA06062E600E
:100D280002F0A6FAA5E702F03DFACFE7000C024070
:100D380038B5044601F0D4F963687BB1206904F141
:100D48000C05A84203D110E02069A8420DD04FF04D
:100D5800007101F0FDFD6368002BF5D1204602F01B
:100D6800BDF9BDE8384001F07BBA02F027FA094B1B
:100D78005A6942F480525A615A6942F400525A61DF
:100D88005A6942F480425A615A6942F400425A61EF
:100D9800FEE700BF000C0240FFF7EEBE00B180691D
:100DA800704700BF00F108034FF0FF310022816057
:100DB800C0E90023C0E90333704700BF0023036183
:100DC800704700BFD0E9002310B49C688C609C6811
:100DD8004B600132616099605DF8044B0861026004
:100DE800704700BF30B40D686B1C11D000F10802C9
:100DF80000E01A4653681C68AC42FAD904684B6094
:100E0800013499608A6051600861046030BC7047A1
:100E180002695368F2E700BF43688168026910B449
:100E28009960816854684B601368844208BF5160B8
:100E3800013B002101615DF8044B136018467047BF
:100E480038B51546026C044632B90568002D2BD01A
:100E5800A36B0133A36338BD7DB9806803F06AFED4
:100E6800A368216C62680B449342A360F0D32368A3
:100E7800A360A36B0133A36338BDC06803F05AFEB7
:100E8800226CE3682168524213448B42E36002D229
:100E980063681A44E260022DDAD1A36B002BD7D025
:100EA800A36B013BA363D3E7406801F081FE656053
:100EB800CEE700BF036873B130B4026C45680C46D6
:100EC800C1681144A942C16024BFC36019462046C5
:100ED80030BC03F02FBE704738B5044602F0B6F9AF
:100EE800A36C002B14DD636A93B104F1240507E0B9
:100EF800A36C013BA364A36C002B09DD636A3BB1BF
:100F0800284601F0D9FC0028F2D001F0F3FDEFE704
:100F18004FF0FF33A36402F0ABF902F097F9636C6A
:100F2800002B14DD236993B104F1100507E0636C0D
:100F3800013B6364636C002B09DD23693BB12846E0
:100F480001F0BAFC0028F2D001F0D4FDEFE74FF031
:100F5800FF336364BDE8384002F08AB938B5D8B1C8
:100F680004460D4602F072F9D4E90F032268A26024
:100F780000FB03F0C31A1344002102444FF0FF3072
:100F8800A163E36060646260A06415BB2369BBB9B8
:100F980002F06EF9012038BD02F010F9134B5A69BE
:100FA80042F480525A615A6942F400525A615A69AD
:100FB80042F480425A615A6942F400425A61FEE79B
:100FC80004F1100001F078FC0128E1D102F0EAF800
:100FD800DEE704F11000FFF7E5FE04F12400FFF757
:100FE800E1FE02F045F9012038BD00BF000C0240C7
:100FF800F8B5D8B1054654200E46174602F044F815
:10100800044698B106FB05F0013002F03DF8206077
:1010180048B1C4E90F5601212046FFF79FFF84F825
:1010280050702046F8BD204602F058F802F0C6F885
:10103800084B5A6942F480525A615A6942F4005284
:101048005A615A6942F480425A615A6942F400422C
:101058005A61FEE7000C024010B5E8B188420C4620
:1010680013D202F0ABF8204B5A6942F480525A610D
:101078005A6942F400525A615A6942F480425A61EC
:101088005A6942F400425A61FEE702220021FFF742
:10109800AFFFA8B1846310BD02F090F8124B5A69F3
:1010A80042F480525A615A6942F400525A615A69AC
:1010B80042F480425A615A6942F400425A61FEE79A
:1010C80002F07CF8084B5A6942F480525A615A6916
:1010D80042F400525A615A6942F480425A615A698C
:1010E80042F400425A61FEE7000C02402DE9F04349
:1010F80085B00192002800F0988088461F46044673
:1011080000297BD0022F02D1E36B012B54D101F0CF
:1011180007FD00284ED1019E002E40F0A9804FF017
:10112800000925E002F0A4F800F0DAFF02F08EF8DA
:10113800636C013308BFC4F84490A36C013308BF43
:10114800C4F8489002F094F801A902A801F07AFCCA
:1011580000287ED102F07AF8A26BE36B9A4218D08D
:1011680002F086F82046FFF7B7FE01F079F801266D
:1011780002F06CF8A26BE36B9A4231D3022F2FD0A6
:10118800019D002D6ED0002ECCD102A801F038FCB4
:10119800C8E702F06DF8019904F1100001F0DEFAD9
:1011A8002046FFF799FE01F05BF80028DFD101F037
:1011B800F9FFDCE70026B2E702F000F83B4B5A697A
:1011C80042F480525A615A6942F400525A615A698B
:1011D80042F480425A615A6942F400425A61FEE779
:1011E8003A4641462046FFF72BFE636A002B53D14F
:1011F80002F03EF8012005B0BDE8F083036C002B37
:1012080080D001F0DBFF294B5A6942F480525A61C1
:101218005A6942F400525A615A6942F480425A614A
:101228005A6942F400425A61FEE701F0C7FF1F4BBA
:101238005A6942F480525A615A6942F400525A611A
:101248005A6942F480425A615A6942F400425A612A
:10125800FEE72046FFF740FE01F002F8002005B047
:10126800BDE8F08302F004F8284605B0BDE8F08335
:1012780001F0A4FF0D4B5A6942F480525A615A6931
:1012880042F400525A615A6942F480425A615A69DA
:1012980042F400425A61FEE704F1240001F00CFB1D
:1012A8000128A5D101F07EFFA2E700BF000C024093
:1012B80070B50646542001F0E7FEF0B100254FF066
:1012C800FF330122856304464364C263836480F864
:1012D80050600564C0E90055C0E902551030FFF7B9
:1012E80061FD04F12400FFF75DFD2B462A462946DF
:1012F8002046FFF7FBFE204670BD01F05FFF094B5B
:101308005A6942F480525A615A6942F400525A6149
:101318005A6942F480425A615A6942F400425A6159
:10132800FEE700BF000C024038B568B145680446C6
:1013380001F0F0FB854201D0002038BDE368013B95
:10134800E360ABB1012038BD01F038FF0C4B5A699E
:1013580042F480525A615A6942F400525A615A69F9
:1013680042F480425A615A6942F400425A61FEE7E7
:1013780020461A461946FFF7B9FE012038BD00BFBE
:10138800000C02402DE9F041002868D00E461746AF
:101398009846044600294BD0B8F1020F1AD1E36BE6
:1013A800012B31D102F02EF801F008FFA36B05469E
:1013B800424631462046FFF743FDA36C013319D05E
:1013C800A36C0133A3640124284601F04DFF204695
:1013D800BDE8F08102F016F801F0F0FEA26BE36BB5
:1013E8009A420546E4D32846002401F03DFF2046F2
:1013F800BDE8F081636A002B45D12846012401F03D
:1014080033FF2046BDE8F08101F0D8FE234B5A692E
:1014180042F480525A615A6942F400525A615A6938
:1014280042F480425A615A6942F400425A61FEE726
:10143800036C002BB0D001F0C1FE184B5A6942F47E
:1014480080525A615A6942F400525A615A6942F408
:1014580080425A615A6942F400425A61FEE701F03B
:10146800ADFE0E4B5A6942F480525A615A6942F4F1
:1014780000525A615A6942F480425A615A6942F4E8
:1014880000425A61FEE704F1240001F015FA002831
:10149800B3D00124002F97D03C6095E7000C0240A0
:1014A8002DE9F04184B00192002800F0B6800E4684
:1014B8001F460446002900F0818001F031FB002816
:1014C80065D001F0C3FEA56B002D47D1019B002B11
:1014D80000F0948002A801F093FA04F124080EE0C9
:1014E80001F0C6FE2046FFF7F7FC00F0B9FE01F058
:1014F800ADFEA36B002B31D1019B002B7ED001F0F8
:10150800B7FE00F0EDFD01F0A1FE636C013308BFEA
:101518006564A36C013308BFA56401F0A9FE01A9A5
:1015280002A801F08FFA00286ED101F08FFEA36B9C
:10153800002BD5D101F09CFE2368002B56D00199D1
:10154800404601F00BF92046FFF7C6FC00F088FE84
:10155800D0B101F07BFEA36B002BCDD031462046E5
:10156800E568FFF7A7FC002F6BD1A36B2268013B4E
:10157800A363002A72D02369002B73D101F078FE8F
:10158800012004B0BDE8F08101F00CFEE1E7019B09
:10159800002B96D001F012FE364B5A6942F4805265
:1015A8005A615A6942F400525A615A6942F48042B7
:1015B8005A615A6942F400425A61FEE7036C002BF3
:1015C8003FF47BAF01F0FAFD2A4B5A6942F480528E
:1015D8005A615A6942F400525A615A6942F4804287
:1015E8005A615A6942F400425A61FEE701F02EFE40
:1015F800606801F0A5FA01F03BFEA0E701F038FEB3
:10160800002004B0BDE8F0812046FFF765FC00F03B
:1016180027FE002004B0BDE8F08101F0CFFD154B96
:101628005A6942F480525A615A6942F400525A6126
:101638005A6942F480425A615A6942F400425A6136
:10164800FEE7636AE560002B98D004F1240001F0FE
:1016580033F9002892D001F0A5FD8FE701F05AFA7E
:10166800606088E704F1100001F026F9012885D1AF
:10167800F1E700BF000C024070B5C0B146680D46E6
:10168800044601F047FA86420CD000232A46194640
:101698002046FFF705FF012800D070BDE36801333D
:1016A800E36070BDE3680133E360012070BD01F0C1
:1016B80085FD094B5A6942F480525A615A6942F4CD
:1016C80000525A615A6942F480425A615A6942F496
:1016D80000425A61FEE700BF000C0240F8B540B373
:1016E8000F461646044669B101F08CFE01F066FD0E
:1016F800A36B0546002B30D11C46284601F0B4FDEB
:101708002046F8BD036C002BEED001F057FD234BAB
:101718005A6942F480525A615A6942F400525A6135
:101728005A6942F480425A615A6942F400425A6145
:10173800FEE701F043FD194B5A6942F480525A61A1
:101748005A6942F400525A615A6942F480425A6115
:101758005A6942F400425A61FEE739462046FFF7CB
:10176800A9FBA36B013BA363636C013308D0636CD3
:10177800013363642846012401F076FD2046F8BD54
:101788002369002BF6D004F1100001F095F8002829
:10179800F0D0002EEED001243460AEE7000C0240F9
:1017A800F8B530B30E46044661B101F02BFE01F0E6
:1017B80005FDA56B0746002D2FD1384601F054FDD5
:1017C8002846F8BD036C002BEFD001F0F7FC194B4D
:1017D8005A6942F480525A615A6942F400525A6175
:1017E8005A6942F480425A615A6942F400425A6185
:1017F800FEE701F0E3FC0F4B5A6942F480525A614C
:101808005A6942F400525A615A6942F480425A6154
:101818005A6942F400425A61FEE731462046E668BA
:101828000125FFF747FB3846E66001F01DFD284615
:10183800F8BD00BF000C024010B538B1044601F0F5
:1018480005FDA46B01F014FD204610BD01F0B6FCA7
:10185800084B5A6942F480525A615A6942F400525C
:101868005A615A6942F480425A615A6942F4004204
:101878005A61FEE7000C024010B548B1044601F079
:10188800E5FCA36BE46BE41A01F0F2FC204610BD02
:1018980001F094FC084B5A6942F480525A615A6923
:1018A80042F400525A615A6942F480425A615A69B4
:1018B80042F400425A61FEE7000C024008B1806B16
:1018C800704708B501F07AFC084B5A6942F4805217
:1018D8005A615A6942F400525A615A6942F4804284
:1018E8005A615A6942F400425A61FEE7000C02400C
:1018F80010B5C0B1044616480023024651688C4210
:1019080002F108020BD00133082BF7D1206808B187
:1019180001F0E4FB2046BDE8104001F0DFBB0022E7
:1019280040F83320F2E701F049FC0A4B5A6942F4C7
:1019380080525A615A6942F400525A615A6942F413
:1019480080425A615A6942F400425A61FEE700BF78
:10195800CC320120000C0240C06C7047C164704753
:1019680090F85000704700BF20B1806BB0FA80F04B
:101978004009704708B501F021FC094B5A6942F447
:1019880080525A615A6942F400525A615A6942F4C3
:1019980080425A615A6942F400425A61FEE700BF28
:1019A800000C024008B530B1836BC06BC01AB0FAA6
:1019B80080F0400908BD01F001FC094B5A6942F466
:1019C80080525A615A6942F400525A615A6942F483
:1019D80080425A615A6942F400425A61FEE700BFE8
:1019E800000C024030B4084A002352F8334002EB9E
:1019F800C30524B10133082BF7D130BC70476860A8
:101A080042F8331030BC7047CC32012010B40A4C75
:101A1800002223465968814203F1080305D00132A8
:101A2800082AF7D15DF8044B7047002344F8323098
:101A38005DF8044B704700BFCC32012038B504462E
:101A48000D4601F003FC636C013304BF002363649B
:101A5800A36C013304BF0023A36401F009FCA36B4A
:101A680023B9294604F1240000F0FCFE2046BDE815
:101A78003840FFF731BA00BF4B682DE9F04F8E466A
:101A880001F108095968CEF80410494508BFDEF885
:101A98000C104FF0000CD1F80CA00546904660469B
:101AA8004FF0020B4968CEF80410894504BFDEF8F0
:101AB8000C10CEF80410CA682A60136CAB60D46AA4
:101AC8002C6102F13403B8F1030F85F80C806B60C8
:101AD80018D0936C166BC5E905303378A52B17D150
:101AE800731C9F1B13F8014BA52CFAD0C7F38F0763
:101AF8009245AF830CF1010C05F12005D2D1604667
:101B0800BDE8F08F936A002BE3D085F80CB0E0E7CE
:101B18000027EDE7034A044B1268D268D26852687E
:101B28001A6070473C050020400000200B4B5968A4
:101B38009A68486082420CD810B5044618685968FB
:101B48000431FFF74FF9064B1A68A24288BF1C60A0
:101B580010BDD86859680431FFF744B93C05002026
:101B6800400000202DE9F84FDDF830B0DDE90A69C2
:101B7800002800F09080042E13D901F01FFB744B4D
:101B88005A6942F480525A615A6942F400525A61C1
:101B98005A6942F480425A615A6942F400425A61D1
:101BA800FEE780464C200F4614469A4601F06CFA30
:101BB8000546002800F0C980A400BBF1000F00F022
:101BC800B680C0F830B022465846A52103F080FA06
:101BD8002B6B043C1C4424F007047B1E05F13302E4
:101BE800093713F8011F02F8011F197809B19F423C
:101BF800F7D1002305F1040B85F83D305846EE6215
:101C0800AE64FFF7DBF805F11800FFF7D7F8C6F167
:101C180005032D616D62524641462046AB6101F0D5
:101C28009BFA2860B9F1000F01D0C9F80050494C5F
:101C380001F00CFB2369013323616368002B42D058
:101C4800D4F8DC3023B96368DB6AB34298BF6560B7
:101C580004F11407E86AD4F8E420D4F8E03090429C
:101C680003F1010388BFC4F8E40000EB80002B6493
:101C780007EB80005946C4F8E030FFF7A3F801F0FD
:101C8800F7FAD4F8DC301BB16368DB6AB34216D3C9
:101C98000120BDE8F88F01F091FA2D4B5A6942F402
:101CA80080525A615A6942F400525A615A6942F4A0
:101CB80080425A615A6942F400425A61FEE701F0D3
:101CC80071FA0120E5E765602369012B04F1140727
:101CD800C0D13846FFF766F804F12800FFF762F82C
:101CE80004F13C00FFF75EF804F15000FFF75AF8E2
:101CF80004F1780904F16400FFF754F804F18C0842
:101D08004846FFF74FF84046FFF74CF804F1A000AB
:101D1800FFF748F804F1B400FFF744F804F1C800ED
:101D2800FFF740F8C4F80090C4F80C8092E720460A
:101D380001F0AAF98346286300287FF444AF2846B7
:101D480001F0CCF94FF0FF30A3E74FF0FF30A0E7E8
:101D5800000C02403C05002070B50546264C01F0F9
:101D680075FA002D3ED02E1D3046FFF755F8AB6AA8
:101D78001BB105F11800FFF74FF831461F48FFF770
:101D880021F8D4F8E820D4F8E03001320133C4F85F
:101D9800E030C4F8E82001F06BFAD4F8DC304BB13D
:101DA8006368AB4207D023681B68EBB9144B4FF04C
:101DB800FF321A6070BDD4F8EC30C3B101F0FEF9FF
:101DC800104B5A6942F480525A615A6942F40052DF
:101DD8005A615A6942F480425A615A6942F400428F
:101DE8005A61FEE76568BEE7BDE8704092E6BDE867
:101DF800704001F0D7B900BF3C050020F005002075
:101E080040000020000C024010B5044601F01EFA04
:101E18000CB9034B5C68E46A01F02AFA204610BD4D
:101E28003C05002004292DE9F04113D901F0C6F939
:101E38002D4B5A6942F480525A615A6942F4005251
:101E48005A615A6942F480425A615A6942F400421E
:101E58005A61FEE704460D4601F0F8F9002C3ED021
:101E6800A26C954237D0214F09D97B68A34239D05B
:101E78007B68DE6AAE428CBF0026012603E07E68DE
:101E8800331B5E425E41E36AA5649A42A26908BFB9
:101E9800E562002AA4BFC5F10505A561144D626974
:101EA80003EB830305EB83039A4211D104F1040881
:101EB8004046FEF7B1FFE36AD7F8E42014209342C6
:101EC800414600FB035088BFC7F8E430FEF77AFFAD
:101ED8000EB101F067F9BDE8F04101F0C9B9034B53
:101EE8005C68BDE70026CEE7000C02403C050020F8
:101EF8005005002070B588B3224D6B6883420446B4
:101F08002BD001F0A3F9626905F1C8039A4203D006
:101F1800BDE8704001F0ACB9A36A05F1A002934294
:101F2800F6D0002BF4D1261D3046FEF775FFE36A84
:101F3800D5F8E4209342144A88BFC5F8E430142049
:101F480000FB03203146FEF73DFF6B68E26ADB6A5F
:101F58009A42DDD301F026F9DAE770BD01F02EF9D7
:101F68000A4B5A6942F480525A615A6942F4005243
:101F78005A615A6942F480425A615A6942F40042ED
:101F88005A61FEE73C05002050050020000C024085
:101F98002DE9F04190B10546274E01F033FA01F0E2
:101FA8000DF96A6906F1C8039A4207461AD0002457
:101FB800384601F059F92046BDE8F08101F0FEF8F5
:101FC8001E4B5A6942F480525A615A6942F40052CF
:101FD8005A615A6942F480425A615A6942F400428D
:101FE8005A61FEE7AC6A06F1A0008442DFD0002CFB
:101FF800DDD1D6F8EC30D3B97368EC6ADB6A05F149
:1020080004089C42404634BF00240124FEF704FF24
:10201800EB6AD6F8E4209342094A88BFC6F8E43050
:102028001420414600FB0320FEF7CCFEC0E705F173
:102038001801FEF7C7FEBBE73C050020000C024074
:102048005005002030B5002485B0CDE90244CDE923
:1020580000442346C82217491748FFF783FD012883
:1020680003D005468DB105B030BD00F035FE01281E
:102078000546F7D101F0A2F8104BC3F8DC509C607C
:1020880005B0BDE8304001F06BB901F097F80C4B92
:102098005A6942F480525A615A6942F400525A61AC
:1020A8005A6942F480425A615A6942F400425A61BC
:1020B800FEE700BFDC530008A12400083C0500200F
:1020C800000C024008B501F079F8044B0022C3F86F
:1020D800DC20BDE8084001F099B800BF3C050020AD
:1020E800034AD2F8EC300133C2F8EC30704700BF35
:1020F8003C05002010B501F0A9F8034B9C6801F0DD
:10210800B7F8204610BD00BF3C05002010B501F00F
:1021180079F901F053F8034B9C6801F0A5F82046C3
:1021280010BD00BF3C050020014B1869704700BF77
:102138003C0500202DE9F047454CD4F8EC30BBB9FC
:10214800A3680133A360D4F80880B8F1000F1DD04C
:10215800404E3368434531D900256368DB6A03EB99
:10216800830304EB83035B69022B28BF012505E089
:10217800D4F8F4300133C4F8F4300025D4F8F8303A
:10218800002B0CBF28460120BDE8F08723681B6898
:10219800002B47D12368E2682260E360D4F8F0306E
:1021A8000133C4F8F03023681B68002B37D1294E5F
:1021B8004FF0FF33336033684345CDD8DFF89C9048
:1021C800002524E02368DB68DF687B6807F1040AE0
:1021D800984550463AD3FEF71FFEBB6A07F1180030
:1021E8000BB1FEF719FEFB6AD4F8E42003EB830079
:1021F8009342514609EB800088BFC4F8E430FEF7EB
:10220800E1FD6368FA6ADB6A9A4228BF0125236800
:102218001B68002BD6D14FF0FF3333609DE7FFF7E3
:1022280079FC95E700F0CAFF0B4B5A6942F48052DB
:102238005A615A6942F400525A615A6942F480421A
:102248005A615A6942F400425A61FEE7336084E7F2
:102258003C05002040000020000C024050050020F2
:102268002DE9F041374CD4F8EC309BB900F0A6FFCB
:10227800354B5A6942F480525A615A6942F4005205
:102288005A615A6942F480425A615A6942F40042DA
:102298005A61FEE700F0DAFFD4F8EC30013BC4F8ED
:1022A800EC30D4F8EC30002B46D12369002B43D016
:1022B80004F1140801271FE0D4F8AC30DD682E1DA6
:1022C80005F11800FEF7A8FD3046FEF7A5FDEB6AFC
:1022D800D4F8E42003EB83009342314608EB8000F6
:1022E80088BFC4F8E430FEF76DFD6368EA6ADB6A0C
:1022F8009A4228BFC4F8F870D4F8A030002BDBD17C
:10230800D4F8F4308BB1D4F8F43073B10125FFF769
:1023180011FF08B1C4F8F850D4F8F430013BC4F800
:10232800F430D4F8F430002BF1D1D4F8F840012C73
:1023380002D100F037FF00E0002400F099FF2046AA
:10234800BDE8F0813C050020000C024038B50028AB
:102358004AD0002934D0324BD3F8EC20E2B9D3F874
:10236800EC4002680134C3F8EC409D6854182CBF57
:1023780001210021AA4204604AD941B1A54206D2EE
:1023880058680430FEF748FD2046FFF7CFFBFFF7FB
:1023980067FF00283FD038BD00F010FF214B5A6975
:1023A80042F480525A615A6942F400525A615A6999
:1023B80042F480425A615A6942F400425A61FEE787
:1023C80000F0FCFE174B5A6942F480525A615A6970
:1023D80042F400525A615A6942F480425A615A6979
:1023E80042F400425A61FEE700F0E8FE0D4B5A69DC
:1023F80042F480525A615A6942F400525A615A6949
:1024080042F480425A615A6942F400425A61FEE736
:102418000029B5D1B2E7BDE8384000F0C3BE00BF1F
:102428003C050020000C024070B3194BD3F8EC10A7
:1024380010B5024699B100F0C1FE164B5A6942F434
:1024480080525A615A6942F400525A615A6942F4F8
:1024580080425A615A6942F400425A61FEE7D3F851
:10246800EC100131C3F8EC109C685868144404302F
:10247800FEF7D2FC2046FFF759FBFFF7F1FE28B91B
:10248800BDE8104000F08EBE00F08CBE10BD00BF4D
:102498003C050020000C024008B5174C09E0D4F8B0
:1024A800EC30D4F8B4500133C4F8EC30FFF7D8FE60
:1024B8004DB9D4F8E830002BF1D16369012BF8D974
:1024C80000F070FEF5E700F0C1FED4F8C030DD681A
:1024D800281DFEF7A1FC2369013B2361D4F8E830ED
:1024E800013BC4F8E83000F0C3FE286B00F0F6FDAD
:1024F800284600F0F3FDDCE73C0500202DE9F84311
:10250800334ED6F8EC300133C6F8EC3033698B42E1
:102518002FD80025904607462A46502406F114096C
:1025280059F80430B818DBB9143C14F1140FF7D17A
:1025380031680B6863BBF1680B689BBBD6F8B43095
:10254800002B39D1D6F8C830CBB9B8F1000F02D07A
:102558000023C8F80030FFF783FE2846BDE8F8835B
:10256800012209EB0401FFF787FA05446A01B8184C
:10257800DAE70025FFF774FE2846BDE8F883032252
:102588001449FFF779FA0544B8F1000FE0D1E2E702
:102598000222FFF771FAF1680B68054407EB451052
:1025A800002BCBD00222FFF767FAD6F8B4300544E7
:1025B80007EB4510002BC5D004220749FFF75CFA4A
:1025C800D6F8C830054407EB4510002BBDD0D6E738
:1025D8003C05002004060020F005002010B52F4C13
:1025E800D4F8EC30002B35D1C4F8F8306268636851
:1025F80012681B6B9A4231D963682949186B1422F7
:1026080002F034FD68B1606861683431FDF736FE68
:1026180007E0D4F8E4303BB3D4F8E430013BC4F825
:10262800E430D4F8E43003EB830304EB83035B6901
:10263800002BEED0D4F8E4101A4A01EB81039B007A
:10264800E0181A4483695B688361934220D0DB6891
:10265800636010BD0123C4F8F83010BD606861687C
:102668003431FDF70BFEC7E700F0A8FD0E4B5A69A1
:1026780042F480525A615A6942F400525A615A69C6
:1026880042F480425A615A6942F400425A61FEE7B4
:10269800142202FB01415B688B61D8E73C050020EE
:1026A800C053000858050020000C024070B50546CC
:1026B800264C00F0CBFD05B965682E1D3046FEF7A7
:1026C800ABFBAB6A1BB105F11800FEF7A5FB314661
:1026D8001F48FEF777FB00F0CBFD6368AB42D4F8E8
:1026E800DC3008D033B123681B68E3B9194B4FF0CD
:1026F800FF321A6070BDD3B1D4F8EC3013B300F0D8
:102708005DFD154B5A6942F480525A615A6942F488
:1027180000525A615A6942F480425A615A6942F435
:1027280000425A61FEE7BDE87040FFF7F3B922693D
:10273800D4F8C810914201D1636070BDBDE8704003
:10274800FFF74CBFBDE8704000F02CBD3C050020F1
:102758000406002040000020000C024038B588B173
:10276800164C0D4661681831FEF73CFB6068043072
:10277800FEF752FB6B1C19D0A0682844BDE838400E
:10278800FFF7D4B900F01AFD0D4B5A6942F4805294
:102798005A615A6942F400525A615A6942F48042B5
:1027A8005A615A6942F400425A61FEE7616804F1CD
:1027B800C8000431BDE83840FEF704BB3C050020E2
:1027C800000C024070B568B3244CD4F8EC309BB9C7
:1027D80000F0F4FC224B5A6942F480525A615A695B
:1027E80042F400525A615A6942F480425A615A6965
:1027F80042F400425A61FEE766681546626841F095
:102808000041B16102F11801FEF7DCFA606804309A
:10281800FEF702FB6B1C19D0A0682844BDE8704085
:10282800FFF784B900F0CAFC0D4B5A6942F4805294
:102838005A615A6942F400525A615A6942F4804214
:102848005A615A6942F400425A61FEE7616804F12C
:10285800C8000431BDE87040FEF7B4BA3C0500205A
:10286800000C024038B578B1114C0D46616818313A
:10287800FEF7A8FA60680430FEF7CEFAA06828448C
:10288800BDE83840FFF752B900F098FC094B5A6987
:1028980042F480525A615A6942F400525A615A69A4
:1028A80042F480425A615A6942F400425A61FEE792
:1028B8003C050020000C0240C36870B5DD6835B3E4
:1028C80005F118061F4C3046FEF7A6FAD4F8EC308E
:1028D800002B30D12E1D3046FEF79EFAEB6AD4F855
:1028E800E4201948934288BFC4F8E43003EB83031B
:1028F800314600EB8300FEF765FA6368EA6ADB6A33
:102908009A4286BF0120C4F8F800002070BD00F08C
:1029180055FC0E4B5A6942F480525A615A6942F486
:1029280000525A615A6942F480425A615A6942F423
:1029380000425A61FEE7314604F1A000FEF742FA70
:10294800DBE700BF3C05002050050020000C0240DA
:1029580070B5284CD4F8EC3023B3C56841F0004179
:102968000160002D32D02E1DFEF756FA3046FEF7D4
:1029780053FAEB6AD4F8E4201F48934288BFC4F89E
:10298800E43003EB830300EB83003146FEF71AFAC9
:102998006368EA6ADB6A9A4286BF0120C4F8F800D5
:1029A800002070BD00F00AFC144B5A6942F48052B2
:1029B8005A615A6942F400525A615A6942F4804293
:1029C8005A615A6942F400425A61FEE700F0F6FB88
:1029D8000A4B5A6942F480525A615A6942F40052C9
:1029E8005A615A6942F480425A615A6942F4004273
:1029F8005A61FEE73C05002050050020000C02400B
:102A080008B530B10D4BD3F8F0209B68C0E900231E
:102A180008BD00F0D3FB0A4B5A6942F480525A6150
:102A28005A6942F400525A615A6942F480425A6122
:102A38005A6942F400425A61FEE700BF3C05002093
:102A4800000C0240F8B500283CD00D4631B30446CE
:102A580000F0FCFB2B68254A591C906819D0D4E972
:102A68000071D2F8F060B74203D0884201D3012543
:102A78000BE0461AB342FAD91B1A0B44D2F8F010ED
:102A880092682B60C4E90012002500F0F1FB28468B
:102A9800F8BD002500F0ECFB2846F8BD00F08EFBE1
:102AA800134B5A6942F480525A615A6942F40052EF
:102AB8005A615A6942F480425A615A6942F40042A2
:102AC8005A61FEE700F07AFB094B5A6942F48052DA
:102AD8005A615A6942F400525A615A6942F4804272
:102AE8005A615A6942F400425A61FEE73C050020E7
:102AF800000C0240024B0122C3F8F820704700BFC7
:102B08003C05002000B1406C704700BF00B1416433
:102B1800704700BF014B5868704700BF3C05002054
:102B2800064BD3F8DC2032B1D3F8EC30002B0CBFC5
:102B38000220002070470120704700BF3C0500209C
:102B4800D0B1F8B5184CC36A6268D26A934212D2FF
:102B58008269002A04DB6268D26AC2F105028261D6
:102B6800124D426903EB830305EB83039A4204D0B9
:102B78006368DB6AC362F8BD7047061D07463046C6
:102B8800FEF74AF96268D4F8E430D06AF8629842ED
:102B980001D9C4F8E40000EB800005EB8000314661
:102BA800BDE8F840FEF70EB93C05002050050020AE
:102BB80018B338B5C26A836C9A421DD00446051D05
:102BC8002846FEF729F9A269A36C0C48E362002A9B
:102BD800A4BFC3F10502A261094AD2F8E4108B42EE
:102BE80088BFC2F8E43003EB8303294600EB830077
:102BF800BDE83840FEF7E6B838BD704750050020FC
:102C08003C050020044A516853685268DB6A8869A9
:102C1800C3F10503936170473C050020914208B554
:102C28000061416005D88169D21A8A420CD301201B
:102C380008BD9A4201D29942F9D2074B011D586842
:102C4800FEF7D0F8002008BD034B011D1868FEF7F9
:102C5800C9F8002008BD00BF38060020F8B51B4C95
:102C680000F0F4FAA7681FB1BDE8F84000F000BB17
:102C780004F10C06304604F12005FEF793F82846C7
:102C8800FEF790F83A460C210A20C4E90056FEF7F0
:102C9800AFF9A06030B10E49FEF7A4FEBDE8F840D8
:102CA80000F0E6BA00F08AFA0A4B5A6942F48052F8
:102CB8005A615A6942F400525A615A6942F4804290
:102CC8005A615A6942F400425A61FEE73806002008
:102CD800E4530008000C024000B585B0FFF7BEFFC2
:102CE800134B9B6863B100230222CDE90023CDE991
:102CF80002334FF4C8720F490F48FEF733FF98B9F3
:102D080000F05CFA0D4B5A6942F480525A615A69D4
:102D180042F400525A615A6942F480425A615A692F
:102D280042F400425A61FEE705B05DF804FB00BFBB
:102D380038060020EC530008A12E0008000C0240C1
:102D48002DE9F042B9B181462C2016461F460D46A2
:102D580000F09AF9044658B1FFF780FF069BC4F8C3
:102D68000090C4E9065627626362201DFEF726F824
:102D78002046BDE8F08200F021FA094B5A6942F476
:102D880080525A615A6942F400525A615A6942F4AF
:102D980080425A615A6942F400425A61FEE700BF14
:102DA800000C024030B5144DAC6885B0C4B105299B
:102DB800CDE9011203900BDCFFF7B2FE022812D016
:102DC8000023A8681A4601A9FEF790F905B030BD9E
:102DD8001A462046002301A9FEF7D4FA05B030BDF3
:102DE800204605B030BDA868089A002301A9FEF75F
:102DF8007DF905B030BD00BF380600202DE9F0434D
:102E0800234E83B04FF000080DE0DB68DC68D3F890
:102E18000090251D2846FDF7FFFF636A2046984766
:102E2800E369012B09D073681A68002AEDD132686A
:102E3800C6E9003203B0BDE8F083A76909EB070CC7
:102E48000023E1454A461946204607D2C4F804C083
:102E5800246170682946FDF7C5FFE4E7CDF80080D6
:102E6800FFF7A0FF0028DED100F0A8F9094B5A6946
:102E780042F480525A615A6942F400525A615A69BE
:102E880042F480425A615A6942F400425A61FEE7AC
:102E980038060020000C02402DE9F041714C86B044
:102EA800012763681E68002E3DD0DB681E68FFF7A7
:102EB80017F9FFF71FF9636B834205463BD8864233
:102EC800606346D9711BA068FEF7B8FDFFF7C8F923
:102ED80000283BD000231A4603A9A068FEF7E0FAB1
:102EE8000028DED0039B002BF4DB059E736913B129
:102EF800301DFDF791FFFFF7FDF8636B984205461B
:102F08001FD3039B6563092BE4D807FA03F313F473
:102F1800047831D113F0C70F39D19B06DAD5304682
:102F280000F0DCF8D6E7FFF7DBF8FFF7E3F8636BB0
:102F38009842054608D2FFF761FF6563FFF790F9ED
:102F4800C8E7FFF75BFFDCE76563BBE700F02AF93A
:102F5800C0E7FFF785F96368DB68D3F80C8008F1F0
:102F68000400FDF759FFD8F81C30012B3ED0D8F8E3
:102F7800243040469847ADE70499B16100295CD0F8
:102F8800294430462B462A46FFF748FEA2E7049B11
:102F9800B1692A4619443046FFF740FE012899D105
:102FA800736A30469847F369012B93D1B369049A41
:102FB800CDF800801A44304643464146FFF7F2FEFA
:102FC800002887D100F0FAF8274B5A6942F480525A
:102FD8005A615A6942F400525A615A6942F480426D
:102FE8005A615A6942F400425A61FEE7D8F818104B
:102FF8002A46314433464046FFF710FE0128B6D131
:1030080000233246009319464046FFF7CBFE0028BE
:10301800ADD100F0D3F8144B5A6942F480525A618A
:103028005A6942F400525A615A6942F480425A611C
:103038005A6942F400425A61FEE700F0BFF80A4BB1
:103048005A6942F480525A615A6942F400525A61EC
:103058005A6942F480425A615A6942F400425A61FC
:10306800FEE700BF38060020000C024010B50446F9
:1030780000F0ECF86469003418BF012400F0F8F897
:10308800204610BD006A7047430710B504461CBFB0
:1030980020F007040834FFF723F80D4B1A686AB1CB
:1030A8005A680C4914448C420DD8A2420BD21968B4
:1030B8005C608C18FFF7D4F8204610BD064A22F051
:1030C80007021A60ECE70024FFF7CAF8204610BD93
:1030D80070060020F72B010080060020A0B108B57B
:1030E80000F06CF8094B5A6942F480525A615A69E7
:1030F80042F400525A615A6942F480425A615A694C
:1031080042F400425A61FEE7704700BF000C0240DB
:10311800014B00225A60704770060020034B586824
:10312800C0F5953000F5FC70704700BF70060020B0
:10313800D6480068006880F3088862B6BFF34F8FEE
:10314800BFF36F8F00DF00BFDFF84403016841F46D
:1031580070010160704700BF30B46FF002034FF098
:103168008075074C40F8045C40F80C4C40F8081C8B
:1031780040F8202C40F8243C30BC4438704700BF4D
:10318800D5310008064B19680868B0E8F04F80F39D
:103198000988BFF36F8F4FF0000080F311887047E4
:1031A80040050020044B4FF080521A60BFF34F8F48
:1031B800BFF36F8F704700BF04ED00E0EFF311809D
:1031C8004FF0500181F311887047002008B50D4B6E
:1031D8001B68013313D0FFF7F1FF0B4B5A6942F418
:1031E80080525A615A6942F400525A615A6942F44B
:1031F80080425A615A6942F400425A61FEE7FFF779
:10320800DDFFFEE744000020000C024008B50D4B2E
:103218001B68B3F57A7F13D0FFF7D0FF0A4B5A69C2
:1032280042F480525A615A6942F400525A615A690A
:1032380042F480425A615A6942F400425A61FEE7F8
:1032480008BD00BF44000020000C024008B5FFF78D
:10325800B5FF044A136801331360BFF34F8FBFF300
:103268006F8F08BD4400002080F31188704700BFAD
:1032780008B50F4B186818B101381860A0B108BD1F
:10328800FFF79CFF0B4B5A6942F480525A615A6906
:1032980042F400525A615A6942F480425A615A69AA
:1032A80042F400425A61FEE7BDE80840FFF7DCBF80
:1032B80044000020000C0240EFF30980BFF36F8F39
:1032C800124B1A681EF0100F08BF20ED108A20E973
:1032D800F04F10604DF8043D4FF0500080F3118816
:1032E800FFF77CF94FF0000080F3118808BC1968DB
:1032F8000868B0E8F04F1EF0100F08BFB0EC108A55
:1033080080F30988BFF36F8F704700BF4005002026
:1033180008B5FFF753FFFEF70DFF18B1044B4FF048
:1033280080521A600020BDE80840FFF79DBF00BF2B
:1033380004ED00E0064B07491B680748074AA1FB54
:1033480003139B09013B072103601160704700BF0D
:1033580014000020D34D621014E000E010E000E0FB
:1033680010B5234B23481A7882B0FF21D2B20192BC
:1033780019701B78DBB28DF803309DF803309DF887
:10338800031003F0500307220906037042600FD5AB
:103398009DF803305B00DBB28DF803309DF80330F5
:1033A8001B0602F1FF32F3D4130203F4E06301E0D9
:1033B8004FF4E06301990E4C43600F4ACBB223707F
:1033C800136843F470031360136843F07043136089
:1033D800FFF7B0FF094B00221A60FFF7B5FE084A55
:1033E800136843F040431360FFF7A2FEFFF7EEFEB9
:1033F80000E400E07832012020ED00E044000020E5
:1034080034EF00E008B5EFF305820F2A08D81B4B0C
:103418001B495A680B6803F4E06393421AD808BD45
:103428001849164B525C19789142F1D9FFF7C6FE3C
:10343800154B5A6942F480525A615A6942F4005253
:103448005A615A6942F480425A615A6942F4004208
:103458005A61FEE7FFF7B2FE0B4B5A6942F48052FD
:103468005A615A6942F400525A615A6942F48042D8
:103478005A615A6942F400425A61FEE778320120E3
:103488000CED00E0F0E300E0000C024008ED00E085
:1034980088ED00E074550008000000208C0400202E
:1034A8008C0400203033012040F0BF60024B40F410
:1034B8000030D860704700BF00ED00E0F0B401783C
:1034C800C378012401F01F0294404D092BB920351F
:1034D8000F4B43F82540F0BC70470E4B4678DB682D
:1034E80082780B4FD843C0F30220C0F10403DBB24B
:1034F8009E400F230341F6B21340334339441B0166
:10350800DBB281F8003347F82540F0BC704700BFB4
:1035180000E100E000ED00E021F0604121F07F01D2
:10352800014B01439960704700ED00E0044A1369BC
:1035380019B923EA000010617047184310617047F9
:1035480000ED00E0044A136804280CBF43F00403AC
:1035580023F004031360704710E000E00A4B0B48A7
:103568001A68002142F001021A6099601A6822F074
:10357800847222F480321A6058601A6822F4802219
:103588001A60D960704700BF00380240103000242C
:10359800024B00221A701870704700BF02380240B0
:1035A80082B00023094A0193136813F4003F019B7A
:1035B80003F101030193019B02D1B3F5A06FF3D18D
:1035C800024B1868C0F3404002B070470038024010
:1035D800034A136823F0F80343EAC00010607047F9
:1035E80000380240014B1860704700BF0000474296
:1035F800064B002201281A701A7005D0042802D13F
:1036080005221A707047704718707047703802406A
:10361800014B1860704700BF800E474230B4029CCF
:10362800064D40EA04605B080843013B40EA82100B
:1036380040EA0340686030BC704700BF0038024071
:10364800014B1860704700BF600047420907034BF1
:1036580041EA8011C3F88410704700BF0038024067
:10366800014B1860704700BF68004742014B186063
:10367800704700BF4C004742034A936823F0EC634D
:10368800194301439160704700380240034A936828
:1036980023F0784319430143916070470038024092
:1036A800034A936823F0030318439060704700BFF0
:1036B80000380240024B986800F00C00704700BFC9
:1036C80000380240034A936823F0F00318439060DF
:1036D800704700BF00380240034A936823F4E05360
:1036E80018439060704700BF00380240034A93684F
:1036F80023F4604343EAC0009060704700380240FA
:103708001F4A936803F00C03042B10B434D0082B21
:1037180019D01C4B03601A4A1B499468C4F303145C
:103728000C5DE34043609468C4F382240C5D23FA83
:1037380004F4846092685DF8044BC2F342328A5CF8
:10374800D340C36070475468516852686302C2F33B
:10375800881201F03F014CBF0C4B0A4BB3FBF1F34D
:1037680003FB02F3064A5268C2F3014201325200D7
:10377800B3FBF2F30360CEE7044B0360CBE700BF73
:10378800003802400024F4004800002040787D0101
:1037980000F44073B3F5407F09D108498A6820F0E6
:1037A800704322F4F81223F4407313438B60034BE5
:1037B8001A6FC0F30B0010431867704700380240B7
:1037C800014B1860704700BF3C0E4742014B186020
:1037D800704700BF400E4742014B1860704700BF5A
:1037E8005C014742044A136B19B923EA00001063CD
:1037F800704718431063704700380240044A536BFF
:1038080019B923EA000050637047184350637047A2
:1038180000380240044A936B19B923EA0000906308
:10382800704718439063704700380240044A136C8D
:1038380019B923EA000010647047184310647047F0
:1038480000380240044A536C19B923EA0000506456
:10385800704718435064704700380240044A13699F
:1038680019B923EA000010617047184310617047C6
:1038780000380240044A536919B923EA000050612C
:10388800704718435061704700380240044A9369F2
:1038980019B923EA00009061704718439061704796
:1038A80000380240044A136A19B923EA000010627A
:1038B800704718431062704700380240044A536A40
:1038C80019B923EA000050627047184350627047E4
:1038D80000380240044A136D19B923EA0000106544
:1038E800704718431065704700380240044A536D0A
:1038F80019B923EA000050657047184350657047AE
:1039080000380240044A936D19B923EA0000906513
:10391800704718439065704700380240044A136E98
:1039280019B923EA000010667047184310667047FB
:1039380000380240044A536E19B923EA0000506661
:10394800704718435066704700380240044A13789D
:1039580019B923EA000010707047184310707047B7
:103968000D3802404309012B0BD0022B094B0CBF29
:103978001B6F5B6F00F01F0023FA00F000F00100DE
:103988007047044B1B6800F01F0023FA00F000F09A
:103998000100704700380240024A536F43F08073B9
:1039A8005367704700380240034BDB68184214BF66
:1039B80001200020704700BF00380240014B1870FA
:1039C800704700BF0E38024008B501214FF48070DF
:1039D800FFF774FF00214FF48070BDE80840FFF73F
:1039E8006DBF00BF42680B6970B422F040720E7957
:1039F8000D688C6822F4807242EA06222A434260EB
:103A0800CE688568094A33432A4023434C791343D7
:103A180043EA440383600A7DC36A013AD2B223F4BD
:103A2800700343EA0253C36270BC7047FDF7FFC0DE
:103A3800002301220275036003714371C0E9023358
:103A4800036170470749084A30B4D0E900354C682B
:103A58002240D0E902402B431343234303434B60E6
:103A680030BC704700230140E030FCFF0023C0E970
:103A78000033C0E902337047836819B923F00103A2
:103A88008360704743F0010383607047436823F401
:103A9800400323F400731943416070474162826216
:103AA800704700BF436823F01F0319434160704704
:103AB800054A536818B923F400035360704743F468
:103AC80000035360704700BF00230140054A536854
:103AD80018B923F480035360704743F4800353609C
:103AE800704700BF00230140092970B41CD9A1F117
:103AF8000A0404EB4404C5680726A640A34025EA47
:103B080006042343062AC3601AD90C2A25D90D3A7C
:103B180002EB8202C36A1F249440914023EA040204
:103B28001143C16270BC704701EB41060469072567
:103B3800B540B34024EA05042343062A0361E4D8C8
:103B4800013A02EB8202436B1F249440914023EA1E
:103B580004021143416370BC7047073A02EB8202CA
:103B6800036B1F249440914023EA0402114301632C
:103B780070BC7047836843F080438360704700BF20
:103B88008068C0F380507047836819B923F4806354
:103B98008360704743F4806383607047836819B912
:103BA80023F002038360704743F002038360704789
:103BB8004B1E416821F4604141EA4331416070473E
:103BC800436819B923F400634360704743F4006302
:103BD80043607047C06C80B2704700BF014B1868E3
:103BE800704700BF08230140836819B923F4807324
:103BF8008360704743F4807383607047836819B9A2
:103C080023F400738360704743F400738360704744
:103C1800054A536818B923F400535360704743F4B6
:103C280000535360704700BF00230140092970B456
:103C38001AD801EB410604690725B540B34024EAC8
:103C4800050423430361836B0232C3F30154121B3F
:103C5800D2B202EB82021F24944023EA040391406B
:103C68001943816370BC7047A1F10A0404EB440452
:103C7800C5680726A640A34025EA06042343C36077
:103C8800E1E700BF4B1E816B21F4401141EA03516B
:103C98008163704782B0002301930190019B19440E
:103CA8000191019B1A6002B0704700BF836823F43A
:103CB8007023194381607047836823F440131943C4
:103CC80081607047836843F480038360704700BF56
:103CD800FFF756BF436819B923F480634360704700
:103CE80043F4806343607047436819B923F48053F1
:103CF8004360704743F480534360704782B00023A9
:103D080001930190019B283319440191019B186884
:103D180080B202B0704700BFC9B201238B4041682E
:103D28001AB921EA0303436070470B4343607047A5
:103D38000368194214BF012000207047C94301607D
:103D4800704700BF4268006810EA112007D00123BD
:103D5800C9B203FA01F1114214BF18460020704796
:103D68006FEA112101607047044B054900221A606F
:103D78005A609A60DA605961704700BF003C0140A0
:103D8800FFFF7F000379827970B4056803F18043EF
:103D980003F59E33EC43F2B1154A41791668264083
:103DA80016605668344054601C6825431D600068DE
:103DB8009468C3431C409460D468102903EA040340
:103DC800D3600DD001F1804303F59E3370BC1A68AF
:103DD8001043186070471A6814401C6070BC704724
:103DE800936803439360D3681843D06070BC7047EE
:103DF800003C014000230C2242710360037183716F
:103E0800704700BF024A136918431061704700BF2A
:103E1800003C0140034B5B69034214BF01200020B2
:103E2800704700BF003C0140014B5861704700BF1C
:103E3800003C0140054B1A685B69034004D002420C
:103E480014BF01200020704718467047003C01400D
:103E5800014B5861704700BF003C014008B53C4B1E
:103E6800984222D03B4B984229D03B4B984230D0C5
:103E78003A4B984237D03A4B98420CD0394B98423B
:103E88003BD0394B984242D0384B984255D0384BAA
:103E9800984246D008BD01211020FFF7DFFC002121
:103EA8001020BDE80840FFF7D9BC01210846FFF7FC
:103EB800D5FC00210120BDE80840FFF7CFBC012157
:103EC8000220FFF7CBFC00210220BDE80840FFF7E5
:103ED800C5BC01210420FFF7C1FC00210420BDE876
:103EE8000840FFF7BBBC01210820FFF7B7FC002101
:103EF8000820BDE80840FFF7B1BC01212020FFF7EA
:103F0800ADFC00212020BDE80840FFF7A7BC012137
:103F18004020FFF7A3FC00214020BDE80840FFF740
:103F28009DBC01214FF48070FFF798FC00214FF4ED
:103F38008070BDE80840FFF791BC01218020FFF7A1
:103F48008DFC00218020BDE80840FFF787BC00BF3A
:103F5800000002400004024000080240000C024039
:103F6800001002400014024000180240001C0240E9
:103F7800002002402DE9F047D1F800C000230127B6
:103F88004FF0030E02E00133102B3FD007FA03F283
:103F980032EA0C04F7D15C00D0F800800E790EFAF2
:103FA80004F5ED4308EA0508C0F80080D0F800A041
:103FB80006FA04F9013E49EA0A09012E0EFA04F844
:103FC800C0F8009016D8D0F808904E7905EA09058F
:103FD8008560D0F808908D79A64046EA0906866083
:103FE800466826EA02024260466805FA03F292B27F
:103FF80032434260C568CA7925EA0805C560C568C4
:10400800A24001332A43102BC260BFD1BDE8F0871C
:1040180000234FF6FF720260037143718371C3710D
:10402800704700BF82B04FF480330193019B0B436C
:104038000193019BC361C161019BC361C369019382
:10404800C369019302B070470369194214BF012084
:1040580000207047006980B2704700BF4369194269
:1040680014BF012000207047406980B2704700BF2C
:1040780001837047418370470AB9418370470183C0
:10408800704700BF416170474369594041617047BB
:10409800CB0800EB830001F0070110B4036A890024
:1040A8000F248C4023EA04030362036A5DF8044B7F
:1040B80002FA01F119430162704700BF08B50121F6
:1040C8004FF48040FFF7FAFB00214FF48040BDE831
:1040D8000840FFF7F3BB00BF014B1860704700BFF3
:1040E8000038014001F0FC0303F1804303F59C33E1
:1040F80001F0030110B49A6889000F248C4022EA69
:1041080004029A609A685DF8044B00FA01F11143C1
:1041180099607047014B1860704700BFDC00274268
:10412800014B1860704700BF00042742024B186A11
:10413800C0F30020704700BF0038014008B50121D6
:104148004FF00050FFF7AEFB00214FF00050BDE8E4
:104158000840FFF7A7BB00BF70B4D1E90036D1E92A
:104168000225084C3343134340F6FE7122682B4363
:10417800814003FA00F022EA01031843206070BC72
:10418800704700BF007400400023C0E90033C0E955
:1041980002337047064A012303FA00F0136819B97D
:1041A80023EA00001060704718431060704700BF92
:1041B80000740040064A0123000903FA00F053681E
:1041C80019B923EA000050607047184350607047DF
:1041D80000740040054A536818B923F0030353607C
:1041E800704743F003035360704700BF00740040FA
:1041F80081402AB9054A136823EA01011160704712
:10420800024B186801431960704700BF00740040F2
:1042180082B00022054B01920193019B0833184498
:104228000190019B196002B0704700BF0074004004
:1042380082B00022054B01920193019B143318446C
:104248000190019B196002B0704700BF00740040E4
:104258000828044B0CBF42EA012242EA0142C2503C
:10426800704700BF2074004082B00022064B0192C4
:104278000193019B2C3303EB90000190019B18687C
:1042880080B202B0704700BF00740040064A4FF485
:10429800805303FA00F0136819B923EA000010608C
:1042A800704718431060704700740040FFF7A0BFC4
:1042B800034B5B6B8140194214BF012000207047FB
:1042C80000740040014B81405963704700740040FE
:1042D800054B1A685B6B814011EA030003D00A4260
:1042E80014BF01200020704700740040014B81403A
:1042F800596370470074004081F0004102E000BF3C
:1043080083F0004330B54FEA41044FEA430594EA8D
:10431800050F08BF90EA020F1FBF54EA000C55EAC8
:10432800020C7FEA645C7FEA655C00F0E2804FEA99
:104338005454D4EB5555B8BF6D420CDD2C4480EA7B
:10434800020281EA030382EA000083EA010180EAAB
:10435800020281EA0303362D88BF30BD11F0004FF9
:104368004FEA01314FF4801C4CEA113102D040422F
:1043780061EB410113F0004F4FEA03334CEA13336A
:1043880002D0524263EB430394EA050F00F0A78082
:10439800A4F10104D5F1200E0DDB02FA0EFC22FA7D
:1043A80005F2801841F1000103FA0EF2801843FA71
:1043B80005F359410EE0A5F120050EF1200E012A62
:1043C80003FA0EFC28BF4CF0020C43FA05F3C018A0
:1043D80051EBE37101F0004507D54FF0000EDCF119
:1043E800000C7EEB00006EEB0101B1F5801F1BD3C2
:1043F800B1F5001F0CD349085FEA30004FEA3C0CC6
:1044080004F101044FEA445212F5800F80F09A80BB
:10441800BCF1004F08BF5FEA500C50F1000041EBBF
:10442800045141EA050130BD5FEA4C0C404141EBC3
:10443800010111F4801FA4F10104E9D191F0000FEA
:1044480004BF01460020B1FA81F308BF2033A3F16D
:104458000B03B3F120020CDA0C3208DD02F1140C64
:10446800C2F10C0201FA0CF021FA02F10CE002F19F
:104478001402D8BFC2F1200C01FA02F120FA0CFC98
:10448800DCBF41EA0C019040E41AA2BF01EB0451E1
:10449800294330BD6FEA04041F3C1CDA0C340EDCDF
:1044A80004F11404C4F1200220FA04F001FA02F322
:1044B80040EA030021FA04F345EA030130BDC4F1E0
:1044C8000C04C4F1200220FA02F001FA04F340EAD5
:1044D8000300294630BD21FA04F0294630BD94F086
:1044E800000F83F4801306BF81F480110134013D6D
:1044F8004EE77FEA645C18BF7FEA655C29D094EADE
:10450800050F08BF90EA020F05D054EA000C04BF5B
:104518001946104630BD91EA030F1EBF0021002046
:1045280030BD5FEA545C05D14000494128BF41F0E5
:10453800004130BD14F580043CBF01F5801130BD49
:1045480001F0004545F0FE4141F470014FF00000D4
:1045580030BD7FEA645C1ABF194610467FEA655C85
:104568001CBF0B46024650EA013406BF52EA033527
:1045780091EA030F41F4002130BD00BF90F0000F15
:1045880004BF0021704730B54FF4806404F1320451
:104598004FF000054FF0000150E700BF90F0000F0A
:1045A80004BF0021704730B54FF4806404F1320431
:1045B80010F0004548BF40424FF000013EE700BF01
:1045C80042004FEAE2014FEA31014FEA02701FBF91
:1045D80012F07F4393F07F4F81F06051704732F0C3
:1045E8007F4208BF704793F07F4F04BF41F400211A
:1045F800704730B54FF4607401F0004521F0004178
:104608001CE700BF50EA010208BF704730B54FF001
:1046180000050AE050EA010208BF704730B511F002
:10462800004502D5404261EB41014FF4806404F13A
:1046380032045FEA915C3FF4D8AE4FF003025FEAC0
:10464800DC0C18BF03325FEADC0C18BF033202EB44
:10465800DC02C2F1200300FA03FC20FA02F001FA9E
:1046680003FE40EA0E0021FA02F11444BDE600BF41
:1046780070B54FF0FF0C4CF4E06C1CEA11541DBFF0
:104688001CEA135594EA0C0F95EA0C0F00F0DEF8BB
:104698002C4481EA030621EA4C5123EA4C5350EAA0
:1046A800013518BF52EA033541F4801143F48013F1
:1046B80038D0A0FB02CE4FF00005E1FB02E506F082
:1046C8000042E0FB03E54FF00006E1FB03569CF0D7
:1046D800000F18BF4EF0010EA4F1FF04B6F5007FDD
:1046E80064F5407404D25FEA4E0E6D4146EB06064F
:1046F80042EAC62141EA55514FEAC52040EA5E50D8
:104708004FEACE2EB4F1FD0C88BFBCF5E06F1ED881
:10471800BEF1004F08BF5FEA500E50F1000041EBB8
:10472800045170BD06F0004646EA010140EA020065
:1047380081EA0301B4EB5C04C2BFD4EB0C0541EA87
:10474800045170BD41F480114FF0000E013C00F39C
:10475800AB8014F1360FDEBF002001F0004170BDC0
:10476800C4F10004203C35DA0C341BDC04F11404D9
:10477800C4F1200500FA05F320FA04F001FA05F265
:1047880040EA020001F0004221F0004110EBD37032
:1047980021FA04F642EB06015EEA430E08BF20EA5E
:1047A800D37070BDC4F10C04C4F1200500FA04F301
:1047B80020FA05F001FA04F240EA020001F0004193
:1047C80010EBD37041F100015EEA430E08BF20EA06
:1047D800D37070BDC4F1200500FA05F24EEA020E4E
:1047E80020FA04F301FA05F243EA020321FA04F07D
:1047F80001F0004121FA04F220EA020000EBD37034
:104808005EEA430E08BF20EAD37070BD94F0000F33
:104818000FD101F00046400041EB010111F4801F67
:1048280008BF013CF7D041EA060195F0000F18BF18
:10483800704703F00046520043EB030313F4801F54
:1048480008BF013DF7D043EA0603704794EA0C0F0E
:104858000CEA135518BF95EA0C0F0CD050EA410624
:1048680018BF52EA4306D1D181EA030101F00041A1
:104878004FF0000070BD50EA410606BF10461946C9
:1048880052EA430619D094EA0C0F02D150EA0136D5
:1048980013D195EA0C0F05D152EA03361CBF104616
:1048A80019460AD181EA030101F0004141F0FE41B5
:1048B80041F470014FF0000070BD41F0FE4141F439
:1048C800780170BD70B54FF0FF0C4CF4E06C1CEA39
:1048D80011541DBF1CEA135594EA0C0F95EA0C0FEE
:1048E80000F0A7F8A4EB050481EA030E52EA0335A9
:1048F8004FEA013100F088804FEA03334FF08055CA
:1049080045EA131343EA12634FEA022245EA1115F6
:1049180045EA10654FEA00260EF000419D4208BFA7
:10492800964244F1FD0404F5407402D25B084FEA54
:104938003202B61A65EB03055B084FEA32024FF400
:1049480080104FF4002CB6EB020E75EB030E22BF5D
:10495800B61A754640EA0C005B084FEA3202B6EB1D
:10496800020E75EB030E22BFB61A754640EA5C00CC
:104978005B084FEA3202B6EB020E75EB030E22BF5C
:10498800B61A754640EA9C005B084FEA3202B6EB5D
:10499800020E75EB030E22BFB61A754640EADC001C
:1049A80055EA060E18D04FEA051545EA16754FEA7E
:1049B80006164FEAC30343EA52734FEAC2025FEA9C
:1049C8001C1CC0D111F4801F0BD141EA00014FF02B
:1049D80000004FF0004CB6E711F4801F04BF0143FC
:1049E8000020B4F1FD0C88BFBCF5E06F3FF6AFAE18
:1049F800B5EB030C04BFB6EB020C5FEA500C50F1A8
:104A0800000041EB045170BD0EF0004E4EEA11312A
:104A180014EB5C04C2BFD4EB0C0541EA045170BD31
:104A280041F480114FF0000E013C90E645EA060E75
:104A38008DE60CEA135594EA0C0F08BF95EA0C0FA3
:104A48003FF43BAF94EA0C0F0AD150EA01347FF4EB
:104A580034AF95EA0C0F7FF425AF104619462CE7C2
:104A680095EA0C0F06D152EA03353FF4FDAE104625
:104A7800194622E750EA410618BF52EA43067FF476
:104A8800C5AE50EA41047FF40DAF52EA43057FF406
:104A9800EBAE12E74FEA4102B2F1E04324BFB3F5AF
:104AA800001CDCF1FE5C0DD901F0004C4FEAC0029D
:104AB8004CEA5070B2F1004F40EB830008BF20F081
:104AC8000100704711F0804F21D113F13872BCBF3B
:104AD80001F00040704741F480114FEA5252C2F190
:104AE8001802C2F1200C10FA0CF320FA02F018BFD9
:104AF80040F001004FEAC1234FEAD32303FA0CFC2C
:104B080040EA0C0023FA02F34FEA4303CCE77FEABA
:104B1800625307D150EA01331EBF4FF0FE4040F404
:104B28004000704701F0004040F0FE4040F40000B3
:104B3800704700BF844641EA000313F003036DD1B8
:104B4800403A41D351F8043B40F8043B51F8043B48
:104B580040F8043B51F8043B40F8043B51F8043B4F
:104B680040F8043B51F8043B40F8043B51F8043B3F
:104B780040F8043B51F8043B40F8043B51F8043B2F
:104B880040F8043B51F8043B40F8043B51F8043B1F
:104B980040F8043B51F8043B40F8043B51F8043B0F
:104BA80040F8043B51F8043B40F8043B51F8043BFF
:104BB80040F8043B51F8043B40F8043B51F8043BEF
:104BC80040F8043B403ABDD2303211D351F8043B8F
:104BD80040F8043B51F8043B40F8043B51F8043BCF
:104BE80040F8043B51F8043B40F8043B103AEDD23E
:104BF8000C3205D351F8043B40F8043B043AF9D28F
:104C0800043208D0D2071CBF11F8013B00F8013B61
:104C180001D30B8803806046704700BF082A13D36E
:104C28008B078DD010F003038AD0C3F10403D21A86
:104C3800DB071CBF11F8013B00F8013B80D331F8BA
:104C4800023B20F8023B7BE7043AD9D3013A11F83A
:104C5800013B00F8013BF9D20B7803704B784370A5
:104C68008B7883706046704780B5012184B0084610
:104C7800FEF7B8FD01210420FEF7B4FD012108204C
:104C88003B4D3C4FFEF7AEFD01214FF48070FEF71F
:104C9800D9FD01214FF000500024FEF7C7FD012681
:104CA8004FF470434FF00308294633482B602E71A8
:104CB800AC71EC7185F80580FFF75CF90223294691
:104CC8002E482B6085F80480FFF754F930232946D5
:104CD8002B482B6085F80480FFF74CF9294B1846C0
:104CE800C3E90044C3E90244FEF7ACFE264B38464C
:104CF80019461C601C715C719C601C611E75FEF776
:104D080071FE7B6843F020037B60BB683343BB6064
:104D18003846334632460B21FEF7E6FE1B4B3C2253
:104D2800194620461A60C3E90144DC60FFF714FA0B
:104D380031462046FFF72EFA4FF44070FEF7B4FBD9
:104D4800134B0F221221184619705A709A70DE7090
:104D5800FEF7B4FB23464FF47A720E490096CDE96C
:104D6800024401940C48FCF7FDFEFDF76BF9FEE7E1
:104D7800A832012000200140000C02400008024037
:104D880000000240B4320120803201209832012014
:104D9800B0320120D453000811040008002103E0B8
:104DA8000B4B5B58435004310A480B4B42189A424C
:104DB800F6D30A4A02E0002342F8043B084B9A4221
:104DC800F9D3FBF775FA00F02DF9FFF74DFF70479F
:104DD80074550008000000208C0400208C0400207A
:104DE80030330120FEE700002DE9F04F10EE100AE5
:104DF80085B010EE104AFFF7E3FBC4F30A520F46E2
:104E080040F22A418A42064661D8DFF8448130469A
:104E1800D8E94A233946FFF72BFCD8E948AB0646C0
:104E28000F4602460B4650465946FFF76BFA524664
:104E38005B4604460D46FFF763FA02460B463046CA
:104E48003946FFF75DFA04F01F02CDE9024508EB89
:104E5800C205D5E90045D8E9502306460F46CDE9F5
:104E68000045FFF705FC0022344BFFF74BFAD8E961
:104E78004C2382468B4630463946FFF7F9FBD8E982
:104E88004E23FFF73FFA3246804689463B46304676
:104E98003946FFF7EDFB02460B4640464946FFF709
:104EA800E7FB029C52465B46FFF72CFAE303DDE979
:104EB80000450022A4185D4122462B46FFF7D8FB87
:104EC800FFF7E8FD00EE100A05B0BDE8F08F14F515
:104ED800000F24D0B2F5FF6F1CD2DFED197A07EE70
:104EE800104AB4EEE77AF1EE10FA1BDCDFED157A22
:104EF800B4EEE77AF1EE10FA1AD4DFED137AB4EED5
:104F0800E77AF1EE10FA80D5002005B0BDE8F04F41
:104F180000F044B807EE904A37EEA70AD4E79FEDB1
:104F28000B0AD1E7002005B0BDE8F04F00F03CB80F
:104F3800002005B0BDE8F04F00F02AB80000F03FAF
:104F48001772B142B4F1CFC2CF8ECEC200000000BA
:104F5800F853000810B52DED028BB0EE408A0446D8
:104F680000F04AF8B0EE480ABDEC028B046010BDB0
:104F780030B1F1EE407A27EE800A2220FFF7EABF2F
:104F8800F0EE407A27EE800A2220FFF7E3BF00BF49
:104F98009FED010AFFF7ECBF000000109FED010A2A
:104FA800FFF7E6BF0000201A9FED010AFFF7E0BFF8
:104FB800000000700028FFEE007AB7EE007A9FED3F
:104FC800050A08BFF0EE477A87EE800A2220FFF72D
:104FD800C1BF00BF0000000070EE407AB4EE400A86
:104FE80087EEA77AF1EE10FAB0EE470A02D6212032
:104FF800FFF7B0BF704700BF014B1868704700BF8C
:105008005800002008B50021044600F0B5F8044B0C
:105018001868C36B03B19847204600F09DFA00BF9B
:105028004055000870B50D4E0D4D761BB61006D0D4
:105038000024013455F8043B9847A642F9D1094E9B
:10504800094D761B00F07CFAB61006D00024013416
:1050580055F8043B9847A642F9D170BD6855000839
:10506800685500087055000868550008032A70B490
:1050780014D940EA0105AD0704460B4622D11D6844
:105088002668AE421946204603F1040304F10404DD
:1050980018D1043A032A20461946F0D8541E72B192
:1050A80002780B789A4208BF641806D00CE010F812
:1050B800012F11F8013F9A4206D1A142F7D10020F1
:1050C80070BC7047541EEBE7D01A70BC704700BF25
:1050D800F0B4860743D0541E002A3ED0CAB2034615
:1050E80002E014F1FF3438D303F8012B9D07F8D1FF
:1050F800032C2BD9CDB245EA05250F2C45EA0545E9
:1051080016D9A4F110073F0903F1200606EB07168C
:1051180003F1100242E9045542E902551032B24245
:10512800F8D104F00F040137032C03EB07130DD952
:105138001E462246043A032A46F8045BFAD8221F80
:1051480022F003020432134404F003042CB1C9B260
:105158001C4403F8011B9C42FBD1F0BC7047144669
:105168000346C5E7024B13B1024800F079B870470F
:1051780000000000755200082DE9F04F354B85B04E
:105188000F460390186800F095F8334B1B6801939D
:1051980003F5A4730293B946019BD3F848613EB363
:1051A800DDF808A04FF001087468651E0FD40134BB
:1051B80006EB84040027B9F1000F20D0D4F80031A1
:1051C8004B451CD0013D6B1CA4F10404F3D1234BC7
:1051D80073B1D6E90032002A34D1002B32D03046E0
:1051E800CAF80030AFF30080DAF80060002EDBD197
:1051F800184B186805B0BDE8F04F00F063B8736845
:105208002268013BAB420CBF75602760002AD9D0E9
:10521800D6F88811D6F804B008FA05F30B4208D17D
:10522800904773685B45B7D1DAF80030B342C9D00C
:10523800B2E7D6F88C01D4F88010034207D103985E
:105248009047EEE7B2461E46002EADD1D0E708469D
:105258009047E6E788040020405500080000000059
:10526800002301461A46184600F02EB838B50A4CF5
:105278000A4D641BA4100AD004F18043013B05EBDE
:105288008305013C55F804399847002CF9D1BDE84D
:10529800384000F05BB900BF74550008705500082D
:1052A800704700BF704700BF704700BF704700BF1E
:1052B800704700BF704700BF01207047012070474A
:1052C800704700BF704700BF2DE9F8432B4D0646D5
:1052D800286898460F469146FFF7ECFF284B1C6854
:1052E800D4F84831002B3DD05A681F2A0DDC02F152
:1052F800010C16BB0232C3F804C0286843F82270B8
:10530800FFF7E0FF0020BDE8F8831E4B7BB34FF4A6
:10531800C870AFF30080034648B3D4F84821002191
:10532800C0E900214FF0010CC4F848010A46C0F852
:105338008811C0F88C11002EDCD003EB8201012407
:10534800C1F88890D3F8880194402043022EC3F80E
:105358008801C1F80881CDD1D3F88C110C43C3F86A
:105368008C41C7E704F5A673C4F84831BCE7286840
:10537800FFF7A8FF4FF0FF30C5E700BF8804002003
:105388004055000800000000080000000800000068
:105398000800000008000000001000200040008005
:1053A80006000000000000000000000001000000EE
:1053B8000100000001000000A5A5A5A5A5A5A5A5BB
:1053C800A5A5A5A5A5A5A5A5A5A5A5A55053443101
:1053D8000000000049444C4500000000546D725123
:1053E80000000000546D7220537663000000000036
:1053F800000000000000F03F748515D3B0D9EF3FDE
:105408000F89F96C58B5EF3F515B12D00193EF3F0C
:105418007B517D3CB872EF3FAAB968318754EF3FA2
:105428003862756E7A38EF3FE1DE1FF59D1EEF3F5B
:1054380015B7310AFE06EF3FCBA93A37A7F1EE3F81
:105448002234124CA6DEEE3F2D89616008CEEE3F75
:10545800272A36D5DABFEE3F824F9D562BB4EE3F52
:10546800295448DD07ABEE3F85553AB07EA4EE3FA0
:10547800CD3B7F669EA0EE3F745FECE8759FEE3FE4
:105488008701EB7314A1EE3F13CE4C9989A5EE3F2B
:10549800DBA02A42E5ACEE3FE5C5CDB037B7EE3F1D
:1054A80090F0A38291C4EE3F5D253EB203D5EE3F56
:1054B800ADD35A999FE8EE3F475EFBF276FFEE3F89
:1054C8009C5285DD9B19EF3F6990EFDC2037EF3F59
:1054D80087A4FBDC1858EF3F5F9B7B33977CEF3F3B
:1054E800DA90A4A2AFA4EF3F40456E5B76D0EF3FC1
:1054F800000000000000E8429423914BF86AAC3F9A
:10550800F3C4FA50CEBFCE3FD6520CFF422EE63F30
:105518000000000000003843FE822B654715474015
:105528009423914BF86ABC3EF3C4FA50CEBF2E3F89
:10553800D6520CFF422E963F60000020000000006B
:10554800F8B500BFF8BC08BC9E467047F8B500BF68
:08555800F8BC08BC9E46704738
:0855600068ACFF7F01000000B0
:085568006D510008AD010008BF
:0455700089010008A5
:10557400000000000000000000000000010203041D
:1055840006070809007A030A0000003F0300000030
:10559400CDCCCC3D0000803FCDCCCC3D000C0240B6
:1055A400000C0240000C0240000C024000000240CB
:1055B400FFFFFFFFAAAAAAAA000000000102030439
:1055C400010203040607080960000020000000002F
:1055D400000000004C030020B40300201C04002041
:1055E40000000000000000000000000000000000B7
:1055F40000000000000000000000000000000000A7
:105604000000000000000000000000000000000096
:105614000000000000000000000000000000000086
:105624000000000000000000000000000000000076
:105634000000000000000000000000000000000066
:105644000000000000000000000000000000000056
:105654000000000000000000000000000000000046
:105664000000000000000000000000000000000036
:105674000000000000000000010000000000000025
:105684000E33CDAB34126DE6ECDE05000B000000EA
:105694000000000000000000000000000000000006
:1056A40000000000000000000000000000000000F6
:1056B40000000000000000000000000000000000E6
:1056C40000000000000000000000000000000000D6
:0C59F40000000000000000000C33012047
:0400000508004DA5FD
:00000001FF
