:020000040800F2
:1000000000000220E5160008351700083517000823
:1000100035170008351700083517000800000000E4
:10002000000000000000000000000000D5050008EE
:100030003517000800000000D7050008D9050008A2
:100040003517000835170008351700083517000860
:100050003517000835170008351700083517000850
:100060003517000835170008351700083517000840
:100070003517000835170008351700083517000830
:100080003517000835170008351700083517000820
:100090003517000835170008351700083517000810
:1000A0003517000835170008351700083517000800
:1000B00035170008351700083517000835170008F0
:1000C00035170008351700083517000835170008E0
:1000D0003517000835170008E50500083517000832
:1000E00035170008351700083517000835170008C0
:1000F00035170008351700083517000835170008B0
:10010000351700083517000835170008351700089F
:10011000351700083517000835170008351700088F
:10012000351700083517000835170008351700087F
:10013000351700083517000835170008351700086F
:10014000351700083517000835170008351700085F
:10015000351700083517000835170008351700084F
:10016000351700083517000835170008351700083F
:100170003517000835170008351700080000000083
:080180003517000835170008CF
:1001880010B5054C237833B9044B13B10448AFF3C9
:1001980000800123237010BD04000020000000002F
:1001A8008017000808B5034B1BB103490348AFF398
:1001B800008008BD0000000008000020801700082B
:1001C80053B94AB9002908BF00281CBF4FF0FF31B6
:1001D8004FF0FF3000F072B9ADF1080C6DE904CEB4
:1001E80000F006F8DDF804E0DDE9022304B070470A
:1001F8002DE9F047089E04468846002B4BD18A42D9
:10020800154667D9B2FA82F24AB1C2F1200701FA5B
:1002180002F320FA07F7954047EA030894404FEAAB
:10022800154E230CB8FBFEF71FFA85FC0EFB17884A
:1002380043EA084307FB0CF1994209D9EB1807F187
:10024800FF3080F01B81994240F21881023F2B4415
:100258005B1AA4B2B3FBFEF00EFB103344EA03446E
:1002680000FB0CFCA44509D92C1900F1FF3380F0E0
:100278000781A44540F2048102382C4440EA074033
:10028800A4EB0C0400271EB1D4400023C6E90043A8
:100298003946BDE8F0878B4209D9002E00F0EB8083
:1002A8000027C6E9000138463946BDE8F087B3FAA9
:1002B80083F7002F47D18B4202D3824200F2FA80A3
:1002C800841A61EB030301209846002EE0D0C6E9AA
:1002D8000048DDE702B9FFDEB2FA82F2002A40F0F8
:1002E8008F80491B4FEA154E1FFA85F80127B1FB8D
:1002F800FEFC230C0EFB1C1143EA014308FB0CF126
:10030800994207D9EB180CF1FF3002D2994200F25A
:10031800CD808446591AA3B2B1FBFEF00EFB10142F
:1003280043EA044408FB00F8A04507D92C1900F15A
:10033800FF3302D2A04500F2B6801846A4EB0804A9
:1003480040EA0C409FE7C7F1200CBB4022FA0CFEA4
:100358004EEA030E01FA07F420FA0CF521FA0CF321
:100368004FEA1E482543B3FBF8F92C0C08FB193358
:100378001FFA8EFA44EA034309FB0AF49C4202FA84
:1003880007F200FA07F10BD91EEB030309F1FF305E
:1003980080F087809C4240F28480A9F1020973446E
:1003A8001B1BADB2B3FBF8F008FB103345EA03445E
:1003B80000FB0AFAA24508D91EEB040400F1FF333A
:1003C8006BD2A24569D90238744440EA0940A0FBBF
:1003D8000289A4EB0A044C45C2464B4654D351D07B
:1003E800002E69D0B1EB0A0564EB030404FA0CFC97
:1003F800FD40FC404CEA0505C6E90054002747E7E4
:10040800C2F1200320FA03F7954001FA02F021FA1D
:1004180003F34FEA154E3843010CB3FBFEF71FFAFE
:1004280085F80EFB173341EA034107FB08F38B42BB
:1004380004FA02F407D9691807F1FF3C2FD28B425E
:100448002DD9023F2944CB1A81B2B3FBFEF00EFB33
:10045800103341EA034100FB08F38B4207D96918BE
:1004680000F1FF3C17D28B4215D902382944C91A2A
:1004780040EA07473BE73746304609E70746E7E6DD
:100488001846FBE64145ABD2B8EB020A69EB0E020F
:1004980001381346A4E76046E9E7184695E767463A
:1004A800D1E781467CE702382C4447E7ACF1020CDF
:1004B8002B442FE7384608E73746E9E6704700BF80
:1004C8000F49D1F8883043F47003C1F888300D4BD8
:1004D8001A6842F001021A60002098601A6822F037
:1004E800847222F480321A60074A5A601A6822F429
:1004F80080221A60D8604FF000638B60704700BF9D
:1005080000ED00E0003802401030002408B5072054
:1005180000F068FB002211466FF00B0000F074FB3E
:10052800002211466FF00A0000F06EFB002211460F
:100538006FF0090000F068FB002211466FF004001C
:1005480000F062FB002211466FF0030000F05CFB34
:10055800002211466FF0010000F056FB0022114600
:100568004FF0FF3000F050FB08BD00000268154B4B
:100578009A4200D0704710B586B00024009403F565
:10058800FA331A6C42F400321A641B6C03F4003319
:100598000093009B0C2301930223029301230393EE
:1005A800032304930723059301A9074800F0D0FE0D
:1005B80022462146262000F027FB262000F058FB83
:1005C80006B010BD0044004000000240704770476C
:1005D80008B500F0AFFE00F07EFB08BD08B5024884
:1005E80000F068FA08BD00BF240000200268D36844
:1005F80023F49073D3600268536923F001035361B5
:10060800202380F83A30704790F83930DBB2212B3C
:100618002AD18368B3F5805F16D0036A5A1C026238
:100628001A7803685A60C38C013B9BB2C384EBB948
:100638000268D36823F08003D3600268D36843F06C
:100648004003D36000207047036A1B880268C3F325
:100658000803536003691BB9036A02330362E2E7C4
:10066800036A01330362DEE7022070470020704707
:100678002DE9F843044601680A6922F44052C36828
:1006880013430B610168CA6822F4164222F00C0277
:1006980083680069034360690343E06903431343C4
:1006A800CB6021684A6922F44072A36913434B6105
:1006B800E369B3F5004F60D02368B84A934200F06D
:1006C800148102F58062934200F00F8100F0E2FD90
:1006D80000EB800000EB80006568AD00B0FBF5F52D
:1006E800AF4FA7FB05356D092E0100F0D3FD00EBD8
:1006F800800000EB80006568AD00B0FBF5F900F004
:10070800C9FD00EB800000EB80006568AD00B0FB20
:10071800F5F5A7FB05356D094FF0640808FB15953D
:100728002D013235A7FB05356D0905F0F005354477
:1007380000F0B0FD00EB800000EB80006668B600BA
:10074800B0FBF6F600F0A6FD00EB800000EB8000A1
:1007580063689B00B0FBF3F0A7FB0030400908FB7F
:1007680010684FEA081808F13208A7FB0837C7F3E2
:10077800431723682F449F600DE12368874A9342FB
:100788005BD002F58062934257D000F083FD00EB06
:10079800800000EB800065686D00B0FBF5F5804FC8
:1007A800A7FB05356D092E0100F074FD00EB8000F4
:1007B80000EB800065686D00B0FBF5F900F06AFD9C
:1007C80000EB800000EB800065686D00B0FBF5F57C
:1007D800A7FB05356D094FF0640808FB1595ED007A
:1007E8003235A7FB05356D096D0005F4F8753544FC
:1007F80000F050FD00EB800000EB8000666876009A
:10080800B0FBF6F600F046FD00EB800000EB800040
:1008180063685B00B0FBF3F3A7FB03235B0908FBEA
:1008280013684FEAC80808F13208A7FB0837C7F36E
:10083800421723682F449F60ADE000F03BFD00EBBA
:10084800800000EB800065686D00B0FBF5F5544F43
:10085800A7FB05356D092E0100F02CFD00EB80008B
:1008680000EB800065686D00B0FBF5F900F022FD33
:1008780000EB800000EB800065686D00B0FBF5F5CB
:10088800A7FB05356D094FF0640808FB1595ED00C9
:100898003235A7FB05356D096D0005F4F87535444B
:1008A80000F008FD00EB800000EB80006668760031
:1008B800B0FBF6F600F0FEFC00EB800000EB8000D9
:1008C80063685B00B0FBF3F3A7FB03235B0908FB3A
:1008D80013684FEAC80808F13208A7FB0837C7F3BE
:1008E800421723682F449F6055E000F0E3FC00EBBB
:1008F800800000EB80006568AD00B0FBF5F5284F7F
:10090800A7FB05356D092E0100F0D4FC00EB800033
:1009180000EB80006568AD00B0FBF5F900F0CAFC9B
:1009280000EB800000EB80006568AD00B0FBF5F5DA
:10093800A7FB05356D094FF0640808FB15952D01D7
:100948003235A7FB05356D0905F0F005354400F093
:10095800B1FC00EB800000EB80006668B600B0FBDD
:10096800F6F600F0A7FC00EB800000EB800063685F
:100978009B00B0FBF3F0A7FB0030400908FB1068B0
:100988004FEA081808F13208A7FB0837C7F34317DE
:1009980023682F449F60BDE8F88300BF0010014022
:1009A8001F85EB5158B310B5044690F839300BB396
:1009B800242384F839302268D36823F40053D360A1
:1009C8002046FFF755FE2268136923F4904313610C
:1009D8002268536923F02A0353612268D36843F4D9
:1009E8000053D3600020E063202384F8393084F872
:1009F8003A3010BD80F83830FFF7B8FDD8E701204D
:100A08007047704708B50168CB6823F04003CB6096
:100A1800202380F83930FFF7F4FF002008BD704725
:100A280008B590F83A30DBB2222B40D18368B3F591
:100A3800805F0ED0036903BB03685A68836A591C38
:100A480081621A70C38D013B9BB2C385F3B100204C
:100A58002EE0826A036943B903685B68C3F308033D
:100A68001380836A02338362ECE703685B68DBB256
:100A78001380836A01338362E4E703685B68826AF0
:100A8800511C816203F07F031370DBE70268D368AF
:100A980023F49073D3600268536923F00103536110
:100AA800202380F83A30FFF7BAFF002000E0022048
:100AB80008BD704710B5044602681368D1685269CA
:100AC80013F00F0005D113F0200F02D011F0200F02
:100AD80053D1002867D012F0010202D111F4907F9F
:100AE80061D013F0010F06D011F4807F03D0E06BC2
:100AF80040F00100E06313F0040F04D01AB1E06B7A
:100B080040F00200E06313F0020F04D01AB1E06B6A
:100B180040F00400E06313F0080F04D01AB1E26B50
:100B280042F00802E263E26B002A48D013F0200F7B
:100B380002D011F0200F24D123685B6903F0400331
:100B4800E26B12F0080F00D13BB32046FFF74EFDD1
:100B580023685A6912F0400F1BD05A6922F04002EC
:100B68005A61636B8BB11A4A1A65606B00F0DAFC44
:100B780028B3606B036D984721E02046FFF750FFCC
:100B88001DE02046FFF74CFFD6E72046FFF791FF10
:100B980015E02046FFF78DFF11E02046FFF789FF9B
:100BA8000023E3630BE013F0800F02D011F0800FF5
:100BB80006D113F0400F02D011F0400F04D110BD40
:100BC8002046FFF721FDFAE72046FFF71BFFF6E76F
:100BD800DD0B000808B5806B0023C385C384FFF7CD
:100BE80068FF08BD074AD36823F4E0631B041B0CA5
:100BF800000200F4E060184340F0BF6040F40030A9
:100C0800D060704700ED00E030B4174BDB68C3F3E9
:100C18000223C3F10704042C28BF04241D1D062D3C
:100C280018D9033B4FF0FF3505FA04F421EA040113
:100C3800994005FA03F322EA0303194300280BDB62
:100C48000901C9B200F1604000F5614080F8001365
:100C580030BC70470023E5E700F00F000901C9B276
:100C6800024B1954F4E700BF00ED00E014ED00E07A
:100C780000F01F02400901239340024A42F8203045
:100C8800704700BF00E100E00138B0F1807F0AD270
:100C9800064B5860064AF02182F82310002098601D
:100CA80007221A6070470120704700BF10E000E07B
:100CB80000ED00E0042805D0054A136823F004037A
:100CC80013607047024A136843F0040313607047C7
:100CD80010E000E0704708B5FFF7FCFF08BD000012
:100CE800002800F0AB8130B583B00446036813F0E8
:100CF800010F3BD0A74B9B6803F00C03042B2CD0AF
:100D0800A44B9B6803F00C03082B21D06368B3F550
:100D1800803F4FD0B3F5A02F52D09E4B1A6822F4D3
:100D280080321A601A6822F480221A606368002BE5
:100D380050D000F007FB0546964B1B6813F4003FA4
:100D480014D100F0FFFA401B6428F5D903207AE19A
:100D5800904B5B6813F4800FD8D08E4B1B6813F44C
:100D6800003F03D06368002B00F06A81236813F00A
:100D7800020F55D0874B9B6813F00C0F3ED0854B64
:100D88009B6803F00C03082B33D0E368002B68D072
:100D9800814B01221A6000F0D5FA05467D4B1B688D
:100DA80013F0020F54D100F0CDFA401B0228F5D9F8
:100DB800032048E1774A136843F480331360B5E7AA
:100DC800744B1A6842F480221A601A6842F480321E
:100DD8001A60ABE700F0B6FA05466E4B1B6813F4D1
:100DE800003FC3D000F0AEFA401B6428F5D90320B9
:100DF80029E1684B5B6813F4800FC6D1654B1B680B
:100E080013F0020F04D0E368012B01D001201AE18E
:100E1800604A136823F0F803216943EAC1031360A9
:100E2800236813F0080F40D0636963B35B4B01225A
:100E38001A6000F087FA0546564B5B6F13F0020FF5
:100E480033D100F07FFA401B0228F5D90320FAE0DD
:100E5800504A136823F0F803216943EAC103136079
:100E6800DEE74D4B00221A6000F06CFA0546494B4C
:100E78001B6813F0020FD3D000F064FA401B02285D
:100E8800F5D90320DFE0454B00221A6000F05AFA3A
:100E98000546404B5B6F13F0020F06D000F052FA84
:100EA800401B0228F5D90320CDE0236813F0040F76
:100EB8001FD1A369002B00F0C580364A926802F062
:100EC8000C02082A00F0C180022B7FD0344B00228C
:100ED8001A6000F037FA04462E4B1B6813F0007FA7
:100EE80000F0AA8000F02EFA001B0228F4D9032093
:100EF800A9E000230193274B1A6C42F080521A6430
:100F08001B6C03F080530193019B264A136843F43A
:100F18008073136000F016FA0546224B1B6813F421
:100F2800807F06D100F00EFA401B0228F5D9032075
:100F380089E0A368012B1DD0052B21D0154B1A6F12
:100F480022F001021A671A6F22F004021A67A368D6
:100F580053B300F0F7F905460E4B1B6F13F0020F61
:100F6800A7D100F0EFF9401B41F288339842F3D93A
:100F7800032068E0074A136F43F001031367E6E7AD
:100F8800044B1A6F42F004021A671A6F42F001020A
:100F98001A67DCE70038024000004742800E4742EB
:100FA800600047420070004000F0CCF90546284B2D
:100FB8001B6F13F0020F3FF47CAF00F0C3F9401B26
:100FC80041F288339842F2D903203CE0214B0022B9
:100FD8001A6000F0B7F905461D4B1B6813F0007F37
:100FE80006D000F0AFF9401B0228F5D903202AE00B
:100FF800E369226A1343626A43EA8213A26A5208C7
:10100800013A43EA0243E26A43EA0263104A536040
:10101800104B01221A6000F095F904460C4B1B682E
:1010280013F0007F06D100F08DF9001B0228F5D9D6
:10103800032008E0002006E0002004E001207047BB
:10104800012000E0002003B030BD0120FBE700BF15
:101058000038024060004742324B9B6803F00C03A3
:10106800042B5CD0082B01D02F4870472DE9F04B9A
:101078002C4B5A6802F03F025B6813F4800F2BD0A8
:10108800284B5B68C3F388131E4600275C010025C4
:10109800E41A65EB0705A90141EA9461A001001B68
:1010A80061EB0501CB0043EA5073C400A01943EB80
:1010B80007014B0243EAD053440220461946002355
:1010C800FFF77EF8174B5B68C3F3014301335B00FE
:1010D800B0FBF3F0BDE8F08B124B5B68C3F38813E9
:1010E8001E4600275C010025E41A65EB0705A901E7
:1010F80041EA9461A001001B61EB0501CB0043EAC2
:101108005073C400A01943EB07018B0243EA9053C4
:101118008402204619460023FFF752F8D2E7034815
:10112800704700BF003802400024F40000127A0023
:10113800002800F09D8070B504464F4B1B6803F0F3
:101148000F038B4209D2CBB24B4A1370136803F0DA
:101158000F038B4201D0012070BD236813F0020FEA
:1011680017D013F0040F04D0444A936843F4E053B3
:101178009360236813F0080F04D0404A936843F43F
:10118800604393603D4A936823F0F003A0680343EB
:1011980093600D46236813F0010F32D06368012B6A
:1011A80021D09A1E012A25D9344A126812F0020F5A
:1011B80060D032498A6822F0030213438B6000F042
:1011C800C1F806462D4B9B6803F00C036268B3EB2D
:1011D800820F16D000F0B6F8801B41F2883398428F
:1011E800F0D90320B8E7254A126812F4003FE0D18D
:1011F8000120B1E7214A126812F0007FD9D10120FD
:10120800AAE71D4B1B6803F00F03AB4209D9EAB2EA
:10121800194B1A701B6803F00F03AB4201D0012071
:101228009AE7236813F0040F06D0144A936823F44E
:10123800E053E1680B439360236813F0080F07D06D
:101248000E4A936823F46043216943EAC10393601B
:10125800FFF702FF094B9B68C3F30313084AD35CEB
:10126800D840084B1860002000F034F8002073E7DD
:101278000120704701206FE7003C0240003802401F
:101288009817000800000020014B1868704700BF3D
:101298000000002008B5FFF7F7FF044B9B68C3F375
:1012A8008223034AD35CD84008BD00BF00380240FF
:1012B800A817000808B5FFF7E7FF044B9B68C3F3BE
:1012C8004233034AD35CD84008BD00BF003802400F
:1012D800A817000810B50446074B1868074BA3FB6E
:1012E80000308009FFF7D0FC002221464FF0FF3084
:1012F800FFF78AFC002010BD00000020D34D6210CB
:1013080008B50B4B1A6842F400721A601A6842F466
:1013180080621A601A6842F480721A600320FFF72C
:1013280061FC0020FFF7D6FFFFF7F0F8002008BDAA
:10133800003C0240024A136801331360704700BF43
:1013480020000020014B1868704700BF20000020D3
:1013580000230F2B00F2D780F0B482B039E00722C7
:1013680000E00022B2403A430234674E46F8242097
:10137800664A1468EA4302EA04064F6817F4803F95
:1013880001D045EA0406614C2660646802EA040656
:101398004F6817F4003F01D045EA04065B4C6660CD
:1013A800A46802EA04064F6817F4801F01D045EAD2
:1013B8000406564CA660E46822404E6816F4001FE6
:1013C80001D045EA0402514CE26001330F2B00F2D0
:1013D800978001229A400C6804EA0205AA42F4D1D7
:1013E8004C68022C01D0122C10D1DE08083650F8B7
:1013F80026C003F00704A7000F24BC402CEA040C05
:101408000C69BC4044EA0C0440F8264004685F00BC
:101418000326BE40F64306EA040C4C6804F00304B5
:10142800BC4044EA0C0404604C6804F1FF3CBCF185
:10143800010F03D9112C01D0122C10D1846806EAAF
:10144800040CCC68BC4044EA0C048460446824EA78
:1014580002024C68C4F300149C4014434460C26800
:1014680016408A68BA403243C2604A6812F0805F08
:10147800ABD000220192264A546C44F48044546450
:10148800526C02F480420192019A9C08A61C1E4AE2
:1014980052F8267003F0030296000F22B24027EAA2
:1014A80002071C4A90423FF45CAF02F5806290420A
:1014B8001AD002F58062904218D002F580629042FC
:1014C80016D002F58062904214D002F580629042F4
:1014D80012D002F58062904210D002F580629042EC
:1014E8003FF43DAF08223DE701223BE7022239E7FE
:1014F800032237E7042235E7052233E7062231E7DE
:1015080002B0F0BC7047704700380140003C014011
:10151800003802400000024012B909048161704796
:101528008161704790F83530DBB2022B03D08023FD
:10153800436501207047052380F835300268136839
:1015480023F00103136000207047000030B589B014
:1015580000240094184B1A6B42F080021A631A6B2D
:1015680002F080020092009A01941A6B42F0010284
:101578001A631A6B02F001020192019A02941A6B23
:1015880042F008021A631B6B03F008030293029BE4
:101598000A4D22464FF470412846FFF7BDFF4FF42D
:1015A80070430393012304930594069403A92846E2
:1015B800FFF7CEFE09B030BD00380240000C0240F3
:1015C800FEE7000008B50B480B4B03604FF41653B9
:1015D800436000238360C36003610C22426183611E
:1015E800C361FFF7DFF900B908BDB6210348FFF76B
:1015F800E7FF00BF2400002000440040B0170008A7
:1016080000B595B0002101912B4B1A6C42F0805225
:101618001A641B6C03F080530193019B0291274BC2
:101628001A6842F480421A601B6803F480430293EC
:10163800029B012308934FF48033099302230E93EE
:101648004FF480020F92082210924FF4A872119260
:1016580012930723139308A8FFF742FB20BB0F231D
:10166800039302230493002305934FF4C053069376
:101678004FF4A0530793052103A8FFF759FDB8B904
:10168800FFF702FE0E4BA3FB00308009FFF7FCFAC0
:101698000420FFF70FFB002211464FF0FF30FFF741
:1016A800B3FA15B05DF804FB8B210648FFF788FFF5
:1016B80099210448FFF784FF003802400070004079
:1016C800D34D6210B017000808B5FFF719FEFFF7F1
:1016D80097FFFFF73BFFFFF775FFFEE7DFF834D012
:1016E800002103E00C4B5B58435004310B480C4B72
:1016F80042189A42F6D30B4A02E0002342F8043B10
:10170800094B9A42F9D3FEF7DBFE00F011F8FFF718
:10171800DBFF704700000220CC1700080000002003
:10172800040000200400002064000020FEE7000000
:1017380070B50D4E0D4CA41BA4100025A54209D16F
:101748000B4E0C4C00F018F8A41BA4100025A54261
:1017580005D170BD56F8253098470135EEE756F8A3
:10176800253098470135F2E7C4170008C417000868
:10177800C4170008C8170008F8B500BFF8BC08BCB3
:101788009E467047F8B500BFF8BC08BC9E46704737
:101798000000000000000000010203040607080919
:1017A80000000000010203045372632F6D61696E2B
:0417B8002E6300009C
:0817BC003CEAFF7F0100000080
:0417C400AD0100086B
:0417C800890100088B
:0417CC000024F40001
:04000005080016E5F4
:00000001FF
